{
	"main.sol": {
		"LuckyDraw": {
			"abi": [
				{
					"inputs": [
						{
							"internalType": "address",
							"name": "_vrfCoordinator",
							"type": "address"
						},
						{
							"internalType": "address",
							"name": "_linkToken",
							"type": "address"
						},
						{
							"internalType": "bytes32",
							"name": "_keyHash",
							"type": "bytes32"
						},
						{
							"internalType": "uint256",
							"name": "_fee",
							"type": "uint256"
						}
					],
					"stateMutability": "nonpayable",
					"type": "constructor"
				},
				{
					"inputs": [
						{
							"internalType": "uint256",
							"name": "",
							"type": "uint256"
						}
					],
					"name": "candidates",
					"outputs": [
						{
							"internalType": "address",
							"name": "",
							"type": "address"
						}
					],
					"stateMutability": "view",
					"type": "function"
				},
				{
					"inputs": [],
					"name": "closeDraw",
					"outputs": [],
					"stateMutability": "nonpayable",
					"type": "function"
				},
				{
					"inputs": [],
					"name": "drawClosed",
					"outputs": [
						{
							"internalType": "bool",
							"name": "",
							"type": "bool"
						}
					],
					"stateMutability": "view",
					"type": "function"
				},
				{
					"inputs": [],
					"name": "getCandidates",
					"outputs": [
						{
							"internalType": "address[]",
							"name": "",
							"type": "address[]"
						}
					],
					"stateMutability": "view",
					"type": "function"
				},
				{
					"inputs": [],
					"name": "getRandomNumber",
					"outputs": [
						{
							"internalType": "bytes32",
							"name": "requestId",
							"type": "bytes32"
						}
					],
					"stateMutability": "nonpayable",
					"type": "function"
				},
				{
					"inputs": [],
					"name": "linkBalance",
					"outputs": [
						{
							"internalType": "uint256",
							"name": "",
							"type": "uint256"
						}
					],
					"stateMutability": "view",
					"type": "function"
				},
				{
					"inputs": [],
					"name": "numWinners",
					"outputs": [
						{
							"internalType": "uint256",
							"name": "",
							"type": "uint256"
						}
					],
					"stateMutability": "view",
					"type": "function"
				},
				{
					"inputs": [],
					"name": "owner",
					"outputs": [
						{
							"internalType": "address",
							"name": "",
							"type": "address"
						}
					],
					"stateMutability": "view",
					"type": "function"
				},
				{
					"inputs": [
						{
							"internalType": "bytes32",
							"name": "requestId",
							"type": "bytes32"
						},
						{
							"internalType": "uint256",
							"name": "randomness",
							"type": "uint256"
						}
					],
					"name": "rawFulfillRandomness",
					"outputs": [],
					"stateMutability": "nonpayable",
					"type": "function"
				},
				{
					"inputs": [
						{
							"internalType": "address[]",
							"name": "_candidates",
							"type": "address[]"
						}
					],
					"name": "setCandidates",
					"outputs": [],
					"stateMutability": "nonpayable",
					"type": "function"
				},
				{
					"inputs": [
						{
							"internalType": "uint256",
							"name": "_numWinners",
							"type": "uint256"
						}
					],
					"name": "setNumWinners",
					"outputs": [],
					"stateMutability": "nonpayable",
					"type": "function"
				},
				{
					"inputs": [
						{
							"internalType": "uint256",
							"name": "",
							"type": "uint256"
						}
					],
					"name": "winners",
					"outputs": [
						{
							"internalType": "address",
							"name": "",
							"type": "address"
						}
					],
					"stateMutability": "view",
					"type": "function"
				},
				{
					"inputs": [],
					"name": "withdrawLink",
					"outputs": [],
					"stateMutability": "nonpayable",
					"type": "function"
				}
			],
			"devdoc": {
				"kind": "dev",
				"methods": {},
				"version": 1
			},
			"evm": {
				"assembly": "    /* \"main.sol\":135:2737  contract LuckyDraw is VRFConsumerBase {... */\n  mstore(0x40, 0xc0)\n    /* \"main.sol\":452:711  constructor(address _vrfCoordinator, address _linkToken, bytes32 _keyHash, uint256 _fee) VRFConsumerBase(_vrfCoordinator, _linkToken) {... */\n  callvalue\n  dup1\n  iszero\n  tag_1\n  jumpi\n  0x00\n  dup1\n  revert\ntag_1:\n  pop\n  mload(0x40)\n  sub(codesize, bytecodeSize)\n  dup1\n  bytecodeSize\n  dup4\n  codecopy\n  dup2\n  dup2\n  add\n  0x40\n  mstore\n  dup2\n  add\n  swap1\n  tag_2\n  swap2\n  swap1\n  tag_3\n  jump\t// in\ntag_2:\n    /* \"main.sol\":557:572  _vrfCoordinator */\n  dup4\n    /* \"main.sol\":574:584  _linkToken */\n  dup4\n    /* \".deps/npm/@chainlink/contracts/src/v0.8/VRFConsumerBase.sol\":9323:9338  _vrfCoordinator */\n  dup2\n    /* \".deps/npm/@chainlink/contracts/src/v0.8/VRFConsumerBase.sol\":9306:9338  vrfCoordinator = _vrfCoordinator */\n  0xffffffffffffffffffffffffffffffffffffffff\n  and\n  0xa0\n  dup2\n  0xffffffffffffffffffffffffffffffffffffffff\n  and\n  dup2\n  mstore\n  pop\n  pop\n    /* \".deps/npm/@chainlink/contracts/src/v0.8/VRFConsumerBase.sol\":9370:9375  _link */\n  dup1\n    /* \".deps/npm/@chainlink/contracts/src/v0.8/VRFConsumerBase.sol\":9344:9376  LINK = LinkTokenInterface(_link) */\n  0xffffffffffffffffffffffffffffffffffffffff\n  and\n  0x80\n  dup2\n  0xffffffffffffffffffffffffffffffffffffffff\n  and\n  dup2\n  mstore\n  pop\n  pop\n    /* \".deps/npm/@chainlink/contracts/src/v0.8/VRFConsumerBase.sol\":9248:9381  constructor(address _vrfCoordinator, address _link) {... */\n  pop\n  pop\n    /* \"main.sol\":606:614  _keyHash */\n  dup2\n    /* \"main.sol\":596:603  keyHash */\n  0x01\n    /* \"main.sol\":596:614  keyHash = _keyHash */\n  dup2\n  swap1\n  sstore\n  pop\n    /* \"main.sol\":630:634  _fee */\n  dup1\n    /* \"main.sol\":624:627  fee */\n  0x02\n    /* \"main.sol\":624:634  fee = _fee */\n  dup2\n  swap1\n  sstore\n  pop\n    /* \"main.sol\":652:662  msg.sender */\n  caller\n    /* \"main.sol\":644:649  owner */\n  0x03\n  0x00\n    /* \"main.sol\":644:662  owner = msg.sender */\n  0x0100\n  exp\n  dup2\n  sload\n  dup2\n  0xffffffffffffffffffffffffffffffffffffffff\n  mul\n  not\n  and\n  swap1\n  dup4\n  0xffffffffffffffffffffffffffffffffffffffff\n  and\n  mul\n  or\n  swap1\n  sstore\n  pop\n    /* \"main.sol\":689:704  _vrfCoordinator */\n  dup4\n    /* \"main.sol\":672:686  vrfCoordinator */\n  0x09\n  0x00\n    /* \"main.sol\":672:704  vrfCoordinator = _vrfCoordinator */\n  0x0100\n  exp\n  dup2\n  sload\n  dup2\n  0xffffffffffffffffffffffffffffffffffffffff\n  mul\n  not\n  and\n  swap1\n  dup4\n  0xffffffffffffffffffffffffffffffffffffffff\n  and\n  mul\n  or\n  swap1\n  sstore\n  pop\n    /* \"main.sol\":452:711  constructor(address _vrfCoordinator, address _linkToken, bytes32 _keyHash, uint256 _fee) VRFConsumerBase(_vrfCoordinator, _linkToken) {... */\n  pop\n  pop\n  pop\n  pop\n    /* \"main.sol\":135:2737  contract LuckyDraw is VRFConsumerBase {... */\n  jump(tag_8)\n    /* \"#utility.yul\":88:205   */\ntag_10:\n    /* \"#utility.yul\":197:198   */\n  0x00\n    /* \"#utility.yul\":194:195   */\n  dup1\n    /* \"#utility.yul\":187:199   */\n  revert\n    /* \"#utility.yul\":334:460   */\ntag_12:\n    /* \"#utility.yul\":371:378   */\n  0x00\n    /* \"#utility.yul\":411:453   */\n  0xffffffffffffffffffffffffffffffffffffffff\n    /* \"#utility.yul\":404:409   */\n  dup3\n    /* \"#utility.yul\":400:454   */\n  and\n    /* \"#utility.yul\":389:454   */\n  swap1\n  pop\n    /* \"#utility.yul\":334:460   */\n  swap2\n  swap1\n  pop\n  jump\t// out\n    /* \"#utility.yul\":466:562   */\ntag_13:\n    /* \"#utility.yul\":503:510   */\n  0x00\n    /* \"#utility.yul\":532:556   */\n  tag_28\n    /* \"#utility.yul\":550:555   */\n  dup3\n    /* \"#utility.yul\":532:556   */\n  tag_12\n  jump\t// in\ntag_28:\n    /* \"#utility.yul\":521:556   */\n  swap1\n  pop\n    /* \"#utility.yul\":466:562   */\n  swap2\n  swap1\n  pop\n  jump\t// out\n    /* \"#utility.yul\":568:690   */\ntag_14:\n    /* \"#utility.yul\":641:665   */\n  tag_30\n    /* \"#utility.yul\":659:664   */\n  dup2\n    /* \"#utility.yul\":641:665   */\n  tag_13\n  jump\t// in\ntag_30:\n    /* \"#utility.yul\":634:639   */\n  dup2\n    /* \"#utility.yul\":631:666   */\n  eq\n    /* \"#utility.yul\":621:684   */\n  tag_31\n  jumpi\n    /* \"#utility.yul\":680:681   */\n  0x00\n    /* \"#utility.yul\":677:678   */\n  dup1\n    /* \"#utility.yul\":670:682   */\n  revert\n    /* \"#utility.yul\":621:684   */\ntag_31:\n    /* \"#utility.yul\":568:690   */\n  pop\n  jump\t// out\n    /* \"#utility.yul\":696:839   */\ntag_15:\n    /* \"#utility.yul\":753:758   */\n  0x00\n    /* \"#utility.yul\":784:790   */\n  dup2\n    /* \"#utility.yul\":778:791   */\n  mload\n    /* \"#utility.yul\":769:791   */\n  swap1\n  pop\n    /* \"#utility.yul\":800:833   */\n  tag_33\n    /* \"#utility.yul\":827:832   */\n  dup2\n    /* \"#utility.yul\":800:833   */\n  tag_14\n  jump\t// in\ntag_33:\n    /* \"#utility.yul\":696:839   */\n  swap3\n  swap2\n  pop\n  pop\n  jump\t// out\n    /* \"#utility.yul\":845:922   */\ntag_16:\n    /* \"#utility.yul\":882:889   */\n  0x00\n    /* \"#utility.yul\":911:916   */\n  dup2\n    /* \"#utility.yul\":900:916   */\n  swap1\n  pop\n    /* \"#utility.yul\":845:922   */\n  swap2\n  swap1\n  pop\n  jump\t// out\n    /* \"#utility.yul\":928:1050   */\ntag_17:\n    /* \"#utility.yul\":1001:1025   */\n  tag_36\n    /* \"#utility.yul\":1019:1024   */\n  dup2\n    /* \"#utility.yul\":1001:1025   */\n  tag_16\n  jump\t// in\ntag_36:\n    /* \"#utility.yul\":994:999   */\n  dup2\n    /* \"#utility.yul\":991:1026   */\n  eq\n    /* \"#utility.yul\":981:1044   */\n  tag_37\n  jumpi\n    /* \"#utility.yul\":1040:1041   */\n  0x00\n    /* \"#utility.yul\":1037:1038   */\n  dup1\n    /* \"#utility.yul\":1030:1042   */\n  revert\n    /* \"#utility.yul\":981:1044   */\ntag_37:\n    /* \"#utility.yul\":928:1050   */\n  pop\n  jump\t// out\n    /* \"#utility.yul\":1056:1199   */\ntag_18:\n    /* \"#utility.yul\":1113:1118   */\n  0x00\n    /* \"#utility.yul\":1144:1150   */\n  dup2\n    /* \"#utility.yul\":1138:1151   */\n  mload\n    /* \"#utility.yul\":1129:1151   */\n  swap1\n  pop\n    /* \"#utility.yul\":1160:1193   */\n  tag_39\n    /* \"#utility.yul\":1187:1192   */\n  dup2\n    /* \"#utility.yul\":1160:1193   */\n  tag_17\n  jump\t// in\ntag_39:\n    /* \"#utility.yul\":1056:1199   */\n  swap3\n  swap2\n  pop\n  pop\n  jump\t// out\n    /* \"#utility.yul\":1205:1282   */\ntag_19:\n    /* \"#utility.yul\":1242:1249   */\n  0x00\n    /* \"#utility.yul\":1271:1276   */\n  dup2\n    /* \"#utility.yul\":1260:1276   */\n  swap1\n  pop\n    /* \"#utility.yul\":1205:1282   */\n  swap2\n  swap1\n  pop\n  jump\t// out\n    /* \"#utility.yul\":1288:1410   */\ntag_20:\n    /* \"#utility.yul\":1361:1385   */\n  tag_42\n    /* \"#utility.yul\":1379:1384   */\n  dup2\n    /* \"#utility.yul\":1361:1385   */\n  tag_19\n  jump\t// in\ntag_42:\n    /* \"#utility.yul\":1354:1359   */\n  dup2\n    /* \"#utility.yul\":1351:1386   */\n  eq\n    /* \"#utility.yul\":1341:1404   */\n  tag_43\n  jumpi\n    /* \"#utility.yul\":1400:1401   */\n  0x00\n    /* \"#utility.yul\":1397:1398   */\n  dup1\n    /* \"#utility.yul\":1390:1402   */\n  revert\n    /* \"#utility.yul\":1341:1404   */\ntag_43:\n    /* \"#utility.yul\":1288:1410   */\n  pop\n  jump\t// out\n    /* \"#utility.yul\":1416:1559   */\ntag_21:\n    /* \"#utility.yul\":1473:1478   */\n  0x00\n    /* \"#utility.yul\":1504:1510   */\n  dup2\n    /* \"#utility.yul\":1498:1511   */\n  mload\n    /* \"#utility.yul\":1489:1511   */\n  swap1\n  pop\n    /* \"#utility.yul\":1520:1553   */\n  tag_45\n    /* \"#utility.yul\":1547:1552   */\n  dup2\n    /* \"#utility.yul\":1520:1553   */\n  tag_20\n  jump\t// in\ntag_45:\n    /* \"#utility.yul\":1416:1559   */\n  swap3\n  swap2\n  pop\n  pop\n  jump\t// out\n    /* \"#utility.yul\":1565:2385   */\ntag_3:\n    /* \"#utility.yul\":1662:1668   */\n  0x00\n    /* \"#utility.yul\":1670:1676   */\n  dup1\n    /* \"#utility.yul\":1678:1684   */\n  0x00\n    /* \"#utility.yul\":1686:1692   */\n  dup1\n    /* \"#utility.yul\":1735:1738   */\n  0x80\n    /* \"#utility.yul\":1723:1732   */\n  dup6\n    /* \"#utility.yul\":1714:1721   */\n  dup8\n    /* \"#utility.yul\":1710:1733   */\n  sub\n    /* \"#utility.yul\":1706:1739   */\n  slt\n    /* \"#utility.yul\":1703:1823   */\n  iszero\n  tag_47\n  jumpi\n    /* \"#utility.yul\":1742:1821   */\n  tag_48\n  tag_10\n  jump\t// in\ntag_48:\n    /* \"#utility.yul\":1703:1823   */\ntag_47:\n    /* \"#utility.yul\":1862:1863   */\n  0x00\n    /* \"#utility.yul\":1887:1951   */\n  tag_49\n    /* \"#utility.yul\":1943:1950   */\n  dup8\n    /* \"#utility.yul\":1934:1940   */\n  dup3\n    /* \"#utility.yul\":1923:1932   */\n  dup9\n    /* \"#utility.yul\":1919:1941   */\n  add\n    /* \"#utility.yul\":1887:1951   */\n  tag_15\n  jump\t// in\ntag_49:\n    /* \"#utility.yul\":1877:1951   */\n  swap5\n  pop\n    /* \"#utility.yul\":1833:1961   */\n  pop\n    /* \"#utility.yul\":2000:2002   */\n  0x20\n    /* \"#utility.yul\":2026:2090   */\n  tag_50\n    /* \"#utility.yul\":2082:2089   */\n  dup8\n    /* \"#utility.yul\":2073:2079   */\n  dup3\n    /* \"#utility.yul\":2062:2071   */\n  dup9\n    /* \"#utility.yul\":2058:2080   */\n  add\n    /* \"#utility.yul\":2026:2090   */\n  tag_15\n  jump\t// in\ntag_50:\n    /* \"#utility.yul\":2016:2090   */\n  swap4\n  pop\n    /* \"#utility.yul\":1971:2100   */\n  pop\n    /* \"#utility.yul\":2139:2141   */\n  0x40\n    /* \"#utility.yul\":2165:2229   */\n  tag_51\n    /* \"#utility.yul\":2221:2228   */\n  dup8\n    /* \"#utility.yul\":2212:2218   */\n  dup3\n    /* \"#utility.yul\":2201:2210   */\n  dup9\n    /* \"#utility.yul\":2197:2219   */\n  add\n    /* \"#utility.yul\":2165:2229   */\n  tag_18\n  jump\t// in\ntag_51:\n    /* \"#utility.yul\":2155:2229   */\n  swap3\n  pop\n    /* \"#utility.yul\":2110:2239   */\n  pop\n    /* \"#utility.yul\":2278:2280   */\n  0x60\n    /* \"#utility.yul\":2304:2368   */\n  tag_52\n    /* \"#utility.yul\":2360:2367   */\n  dup8\n    /* \"#utility.yul\":2351:2357   */\n  dup3\n    /* \"#utility.yul\":2340:2349   */\n  dup9\n    /* \"#utility.yul\":2336:2358   */\n  add\n    /* \"#utility.yul\":2304:2368   */\n  tag_21\n  jump\t// in\ntag_52:\n    /* \"#utility.yul\":2294:2368   */\n  swap2\n  pop\n    /* \"#utility.yul\":2249:2378   */\n  pop\n    /* \"#utility.yul\":1565:2385   */\n  swap3\n  swap6\n  swap2\n  swap5\n  pop\n  swap3\n  pop\n  jump\t// out\n    /* \"main.sol\":135:2737  contract LuckyDraw is VRFConsumerBase {... */\ntag_8:\n  mload(0x80)\n  mload(0xa0)\n  codecopy(0x00, dataOffset(sub_0), dataSize(sub_0))\n  0x00\n  assignImmutable(\"0x6dbb33232cde86c8a04f90a8bed9fc1c5ef520188a14538d96eb100d69bc2a94\")\n  0x00\n  assignImmutable(\"0xb2219b801710730437d0358146c829b62297a059eceaa0b40b27aea2daecf595\")\n  return(0x00, dataSize(sub_0))\nstop\n\nsub_0: assembly {\n        /* \"main.sol\":135:2737  contract LuckyDraw is VRFConsumerBase {... */\n      mstore(0x40, 0x80)\n      callvalue\n      dup1\n      iszero\n      tag_1\n      jumpi\n      0x00\n      dup1\n      revert\n    tag_1:\n      pop\n      jumpi(tag_2, lt(calldatasize, 0x04))\n      shr(0xe0, calldataload(0x00))\n      dup1\n      0x9e658e91\n      gt\n      tag_16\n      jumpi\n      dup1\n      0xb1b20634\n      gt\n      tag_17\n      jumpi\n      dup1\n      0xb1b20634\n      eq\n      tag_12\n      jumpi\n      dup1\n      0xb8617725\n      eq\n      tag_13\n      jumpi\n      dup1\n      0xc26ecefa\n      eq\n      tag_14\n      jumpi\n      dup1\n      0xdbdff2c1\n      eq\n      tag_15\n      jumpi\n      jump(tag_2)\n    tag_17:\n      dup1\n      0x9e658e91\n      eq\n      tag_9\n      jumpi\n      dup1\n      0xa0eb5570\n      eq\n      tag_10\n      jumpi\n      dup1\n      0xa2fb1175\n      eq\n      tag_11\n      jumpi\n      jump(tag_2)\n    tag_16:\n      dup1\n      0x06a49fce\n      eq\n      tag_3\n      jumpi\n      dup1\n      0x3477ee2e\n      eq\n      tag_4\n      jumpi\n      dup1\n      0x8b7bcc86\n      eq\n      tag_5\n      jumpi\n      dup1\n      0x8da5cb5b\n      eq\n      tag_6\n      jumpi\n      dup1\n      0x8dc654a2\n      eq\n      tag_7\n      jumpi\n      dup1\n      0x94985ddd\n      eq\n      tag_8\n      jumpi\n    tag_2:\n      0x00\n      dup1\n      revert\n        /* \"main.sol\":1221:1319  function getCandidates() public view returns (address[] memory) {... */\n    tag_3:\n      tag_18\n      tag_19\n      jump\t// in\n    tag_18:\n      mload(0x40)\n      tag_20\n      swap2\n      swap1\n      tag_21\n      jump\t// in\n    tag_20:\n      mload(0x40)\n      dup1\n      swap2\n      sub\n      swap1\n      return\n        /* \"main.sol\":292:319  address[] public candidates */\n    tag_4:\n      tag_22\n      0x04\n      dup1\n      calldatasize\n      sub\n      dup2\n      add\n      swap1\n      tag_23\n      swap2\n      swap1\n      tag_24\n      jump\t// in\n    tag_23:\n      tag_25\n      jump\t// in\n    tag_22:\n      mload(0x40)\n      tag_26\n      swap2\n      swap1\n      tag_27\n      jump\t// in\n    tag_26:\n      mload(0x40)\n      dup1\n      swap2\n      sub\n      swap1\n      return\n        /* \"main.sol\":261:286  uint256 public numWinners */\n    tag_5:\n      tag_28\n      tag_29\n      jump\t// in\n    tag_28:\n      mload(0x40)\n      tag_30\n      swap2\n      swap1\n      tag_31\n      jump\t// in\n    tag_30:\n      mload(0x40)\n      dup1\n      swap2\n      sub\n      swap1\n      return\n        /* \"main.sol\":235:255  address public owner */\n    tag_6:\n      tag_32\n      tag_33\n      jump\t// in\n    tag_32:\n      mload(0x40)\n      tag_34\n      swap2\n      swap1\n      tag_27\n      jump\t// in\n    tag_34:\n      mload(0x40)\n      dup1\n      swap2\n      sub\n      swap1\n      return\n        /* \"main.sol\":717:975  function withdrawLink() public {... */\n    tag_7:\n      tag_35\n      tag_36\n      jump\t// in\n    tag_35:\n      stop\n        /* \".deps/npm/@chainlink/contracts/src/v0.8/VRFConsumerBase.sol\":9576:9783  function rawFulfillRandomness(bytes32 requestId, uint256 randomness) external {... */\n    tag_8:\n      tag_37\n      0x04\n      dup1\n      calldatasize\n      sub\n      dup2\n      add\n      swap1\n      tag_38\n      swap2\n      swap1\n      tag_39\n      jump\t// in\n    tag_38:\n      tag_40\n      jump\t// in\n    tag_37:\n      stop\n        /* \"main.sol\":981:1215  function setCandidates(address[] memory _candidates) public {... */\n    tag_9:\n      tag_41\n      0x04\n      dup1\n      calldatasize\n      sub\n      dup2\n      add\n      swap1\n      tag_42\n      swap2\n      swap1\n      tag_43\n      jump\t// in\n    tag_42:\n      tag_44\n      jump\t// in\n    tag_41:\n      stop\n        /* \"main.sol\":1563:1785  function closeDraw() public {... */\n    tag_10:\n      tag_45\n      tag_46\n      jump\t// in\n    tag_45:\n      stop\n        /* \"main.sol\":325:349  address[] public winners */\n    tag_11:\n      tag_47\n      0x04\n      dup1\n      calldatasize\n      sub\n      dup2\n      add\n      swap1\n      tag_48\n      swap2\n      swap1\n      tag_24\n      jump\t// in\n    tag_48:\n      tag_49\n      jump\t// in\n    tag_47:\n      mload(0x40)\n      tag_50\n      swap2\n      swap1\n      tag_27\n      jump\t// in\n    tag_50:\n      mload(0x40)\n      dup1\n      swap2\n      sub\n      swap1\n      return\n        /* \"main.sol\":1325:1557  function setNumWinners(uint256 _numWinners) public {... */\n    tag_12:\n      tag_51\n      0x04\n      dup1\n      calldatasize\n      sub\n      dup2\n      add\n      swap1\n      tag_52\n      swap2\n      swap1\n      tag_24\n      jump\t// in\n    tag_52:\n      tag_53\n      jump\t// in\n    tag_51:\n      stop\n        /* \"main.sol\":355:377  bool public drawClosed */\n    tag_13:\n      tag_54\n      tag_55\n      jump\t// in\n    tag_54:\n      mload(0x40)\n      tag_56\n      swap2\n      swap1\n      tag_57\n      jump\t// in\n    tag_56:\n      mload(0x40)\n      dup1\n      swap2\n      sub\n      swap1\n      return\n        /* \"main.sol\":383:409  uint256 public linkBalance */\n    tag_14:\n      tag_58\n      tag_59\n      jump\t// in\n    tag_58:\n      mload(0x40)\n      tag_60\n      swap2\n      swap1\n      tag_31\n      jump\t// in\n    tag_60:\n      mload(0x40)\n      dup1\n      swap2\n      sub\n      swap1\n      return\n        /* \"main.sol\":1791:2130  function getRandomNumber() public returns (bytes32 requestId) {... */\n    tag_15:\n      tag_61\n      tag_62\n      jump\t// in\n    tag_61:\n      mload(0x40)\n      tag_63\n      swap2\n      swap1\n      tag_64\n      jump\t// in\n    tag_63:\n      mload(0x40)\n      dup1\n      swap2\n      sub\n      swap1\n      return\n        /* \"main.sol\":1221:1319  function getCandidates() public view returns (address[] memory) {... */\n    tag_19:\n        /* \"main.sol\":1267:1283  address[] memory */\n      0x60\n        /* \"main.sol\":1302:1312  candidates */\n      0x05\n        /* \"main.sol\":1295:1312  return candidates */\n      dup1\n      sload\n      dup1\n      0x20\n      mul\n      0x20\n      add\n      mload(0x40)\n      swap1\n      dup2\n      add\n      0x40\n      mstore\n      dup1\n      swap3\n      swap2\n      swap1\n      dup2\n      dup2\n      mstore\n      0x20\n      add\n      dup3\n      dup1\n      sload\n      dup1\n      iszero\n      tag_66\n      jumpi\n      0x20\n      mul\n      dup3\n      add\n      swap2\n      swap1\n      0x00\n      mstore\n      keccak256(0x00, 0x20)\n      swap1\n    tag_67:\n      dup2\n      0x00\n      swap1\n      sload\n      swap1\n      0x0100\n      exp\n      swap1\n      div\n      0xffffffffffffffffffffffffffffffffffffffff\n      and\n      0xffffffffffffffffffffffffffffffffffffffff\n      and\n      dup2\n      mstore\n      0x20\n      add\n      swap1\n      0x01\n      add\n      swap1\n      dup1\n      dup4\n      gt\n      tag_67\n      jumpi\n    tag_66:\n      pop\n      pop\n      pop\n      pop\n      pop\n      swap1\n      pop\n        /* \"main.sol\":1221:1319  function getCandidates() public view returns (address[] memory) {... */\n      swap1\n      jump\t// out\n        /* \"main.sol\":292:319  address[] public candidates */\n    tag_25:\n      0x05\n      dup2\n      dup2\n      sload\n      dup2\n      lt\n      tag_68\n      jumpi\n      0x00\n      dup1\n      revert\n    tag_68:\n      swap1\n      0x00\n      mstore\n      keccak256(0x00, 0x20)\n      add\n      0x00\n      swap2\n      pop\n      sload\n      swap1\n      0x0100\n      exp\n      swap1\n      div\n      0xffffffffffffffffffffffffffffffffffffffff\n      and\n      dup2\n      jump\t// out\n        /* \"main.sol\":261:286  uint256 public numWinners */\n    tag_29:\n      sload(0x04)\n      dup2\n      jump\t// out\n        /* \"main.sol\":235:255  address public owner */\n    tag_33:\n      0x03\n      0x00\n      swap1\n      sload\n      swap1\n      0x0100\n      exp\n      swap1\n      div\n      0xffffffffffffffffffffffffffffffffffffffff\n      and\n      dup2\n      jump\t// out\n        /* \"main.sol\":717:975  function withdrawLink() public {... */\n    tag_36:\n        /* \"main.sol\":780:785  owner */\n      0x03\n      0x00\n      swap1\n      sload\n      swap1\n      0x0100\n      exp\n      swap1\n      div\n      0xffffffffffffffffffffffffffffffffffffffff\n      and\n        /* \"main.sol\":766:785  msg.sender == owner */\n      0xffffffffffffffffffffffffffffffffffffffff\n      and\n        /* \"main.sol\":766:776  msg.sender */\n      caller\n        /* \"main.sol\":766:785  msg.sender == owner */\n      0xffffffffffffffffffffffffffffffffffffffff\n      and\n      eq\n        /* \"main.sol\":758:818  require(msg.sender == owner, \"Only owner can withdraw LINK\") */\n      tag_71\n      jumpi\n      mload(0x40)\n      0x08c379a000000000000000000000000000000000000000000000000000000000\n      dup2\n      mstore\n      0x04\n      add\n      tag_72\n      swap1\n      tag_73\n      jump\t// in\n    tag_72:\n      mload(0x40)\n      dup1\n      swap2\n      sub\n      swap1\n      revert\n    tag_71:\n        /* \"main.sol\":836:840  LINK */\n      immutable(\"0xb2219b801710730437d0358146c829b62297a059eceaa0b40b27aea2daecf595\")\n        /* \"main.sol\":836:849  LINK.transfer */\n      0xffffffffffffffffffffffffffffffffffffffff\n      and\n      0xa9059cbb\n        /* \"main.sol\":850:860  msg.sender */\n      caller\n        /* \"main.sol\":862:866  LINK */\n      immutable(\"0xb2219b801710730437d0358146c829b62297a059eceaa0b40b27aea2daecf595\")\n        /* \"main.sol\":862:876  LINK.balanceOf */\n      0xffffffffffffffffffffffffffffffffffffffff\n      and\n      0x70a08231\n        /* \"main.sol\":885:889  this */\n      address\n        /* \"main.sol\":862:891  LINK.balanceOf(address(this)) */\n      mload(0x40)\n      dup3\n      0xffffffff\n      and\n      0xe0\n      shl\n      dup2\n      mstore\n      0x04\n      add\n      tag_74\n      swap2\n      swap1\n      tag_27\n      jump\t// in\n    tag_74:\n      0x20\n      mload(0x40)\n      dup1\n      dup4\n      sub\n      dup2\n      dup7\n      gas\n      staticcall\n      iszero\n      dup1\n      iszero\n      tag_76\n      jumpi\n      returndatasize\n      0x00\n      dup1\n      returndatacopy\n      revert(0x00, returndatasize)\n    tag_76:\n      pop\n      pop\n      pop\n      pop\n      mload(0x40)\n      returndatasize\n      not(0x1f)\n      0x1f\n      dup3\n      add\n      and\n      dup3\n      add\n      dup1\n      0x40\n      mstore\n      pop\n      dup2\n      add\n      swap1\n      tag_77\n      swap2\n      swap1\n      tag_78\n      jump\t// in\n    tag_77:\n        /* \"main.sol\":836:892  LINK.transfer(msg.sender, LINK.balanceOf(address(this))) */\n      mload(0x40)\n      dup4\n      0xffffffff\n      and\n      0xe0\n      shl\n      dup2\n      mstore\n      0x04\n      add\n      tag_79\n      swap3\n      swap2\n      swap1\n      tag_80\n      jump\t// in\n    tag_79:\n      0x20\n      mload(0x40)\n      dup1\n      dup4\n      sub\n      dup2\n      0x00\n      dup8\n      gas\n      call\n      iszero\n      dup1\n      iszero\n      tag_82\n      jumpi\n      returndatasize\n      0x00\n      dup1\n      returndatacopy\n      revert(0x00, returndatasize)\n    tag_82:\n      pop\n      pop\n      pop\n      pop\n      mload(0x40)\n      returndatasize\n      not(0x1f)\n      0x1f\n      dup3\n      add\n      and\n      dup3\n      add\n      dup1\n      0x40\n      mstore\n      pop\n      dup2\n      add\n      swap1\n      tag_83\n      swap2\n      swap1\n      tag_84\n      jump\t// in\n    tag_83:\n        /* \"main.sol\":828:915  require(LINK.transfer(msg.sender, LINK.balanceOf(address(this))), \"Unable to transfer\") */\n      tag_85\n      jumpi\n      mload(0x40)\n      0x08c379a000000000000000000000000000000000000000000000000000000000\n      dup2\n      mstore\n      0x04\n      add\n      tag_86\n      swap1\n      tag_87\n      jump\t// in\n    tag_86:\n      mload(0x40)\n      dup1\n      swap2\n      sub\n      swap1\n      revert\n    tag_85:\n        /* \"main.sol\":939:943  LINK */\n      immutable(\"0xb2219b801710730437d0358146c829b62297a059eceaa0b40b27aea2daecf595\")\n        /* \"main.sol\":939:953  LINK.balanceOf */\n      0xffffffffffffffffffffffffffffffffffffffff\n      and\n      0x70a08231\n        /* \"main.sol\":962:966  this */\n      address\n        /* \"main.sol\":939:968  LINK.balanceOf(address(this)) */\n      mload(0x40)\n      dup3\n      0xffffffff\n      and\n      0xe0\n      shl\n      dup2\n      mstore\n      0x04\n      add\n      tag_88\n      swap2\n      swap1\n      tag_27\n      jump\t// in\n    tag_88:\n      0x20\n      mload(0x40)\n      dup1\n      dup4\n      sub\n      dup2\n      dup7\n      gas\n      staticcall\n      iszero\n      dup1\n      iszero\n      tag_90\n      jumpi\n      returndatasize\n      0x00\n      dup1\n      returndatacopy\n      revert(0x00, returndatasize)\n    tag_90:\n      pop\n      pop\n      pop\n      pop\n      mload(0x40)\n      returndatasize\n      not(0x1f)\n      0x1f\n      dup3\n      add\n      and\n      dup3\n      add\n      dup1\n      0x40\n      mstore\n      pop\n      dup2\n      add\n      swap1\n      tag_91\n      swap2\n      swap1\n      tag_78\n      jump\t// in\n    tag_91:\n        /* \"main.sol\":925:936  linkBalance */\n      0x08\n        /* \"main.sol\":925:968  linkBalance = LINK.balanceOf(address(this)) */\n      dup2\n      swap1\n      sstore\n      pop\n        /* \"main.sol\":717:975  function withdrawLink() public {... */\n      jump\t// out\n        /* \".deps/npm/@chainlink/contracts/src/v0.8/VRFConsumerBase.sol\":9576:9783  function rawFulfillRandomness(bytes32 requestId, uint256 randomness) external {... */\n    tag_40:\n        /* \".deps/npm/@chainlink/contracts/src/v0.8/VRFConsumerBase.sol\":9682:9696  vrfCoordinator */\n      immutable(\"0x6dbb33232cde86c8a04f90a8bed9fc1c5ef520188a14538d96eb100d69bc2a94\")\n        /* \".deps/npm/@chainlink/contracts/src/v0.8/VRFConsumerBase.sol\":9668:9696  msg.sender == vrfCoordinator */\n      0xffffffffffffffffffffffffffffffffffffffff\n      and\n        /* \".deps/npm/@chainlink/contracts/src/v0.8/VRFConsumerBase.sol\":9668:9678  msg.sender */\n      caller\n        /* \".deps/npm/@chainlink/contracts/src/v0.8/VRFConsumerBase.sol\":9668:9696  msg.sender == vrfCoordinator */\n      0xffffffffffffffffffffffffffffffffffffffff\n      and\n      eq\n        /* \".deps/npm/@chainlink/contracts/src/v0.8/VRFConsumerBase.sol\":9660:9732  require(msg.sender == vrfCoordinator, \"Only VRFCoordinator can fulfill\") */\n      tag_93\n      jumpi\n      mload(0x40)\n      0x08c379a000000000000000000000000000000000000000000000000000000000\n      dup2\n      mstore\n      0x04\n      add\n      tag_94\n      swap1\n      tag_95\n      jump\t// in\n    tag_94:\n      mload(0x40)\n      dup1\n      swap2\n      sub\n      swap1\n      revert\n    tag_93:\n        /* \".deps/npm/@chainlink/contracts/src/v0.8/VRFConsumerBase.sol\":9738:9778  fulfillRandomness(requestId, randomness) */\n      tag_96\n        /* \".deps/npm/@chainlink/contracts/src/v0.8/VRFConsumerBase.sol\":9756:9765  requestId */\n      dup3\n        /* \".deps/npm/@chainlink/contracts/src/v0.8/VRFConsumerBase.sol\":9767:9777  randomness */\n      dup3\n        /* \".deps/npm/@chainlink/contracts/src/v0.8/VRFConsumerBase.sol\":9738:9755  fulfillRandomness */\n      tag_97\n        /* \".deps/npm/@chainlink/contracts/src/v0.8/VRFConsumerBase.sol\":9738:9778  fulfillRandomness(requestId, randomness) */\n      jump\t// in\n    tag_96:\n        /* \".deps/npm/@chainlink/contracts/src/v0.8/VRFConsumerBase.sol\":9576:9783  function rawFulfillRandomness(bytes32 requestId, uint256 randomness) external {... */\n      pop\n      pop\n      jump\t// out\n        /* \"main.sol\":981:1215  function setCandidates(address[] memory _candidates) public {... */\n    tag_44:\n        /* \"main.sol\":1073:1078  owner */\n      0x03\n      0x00\n      swap1\n      sload\n      swap1\n      0x0100\n      exp\n      swap1\n      div\n      0xffffffffffffffffffffffffffffffffffffffff\n      and\n        /* \"main.sol\":1059:1078  msg.sender == owner */\n      0xffffffffffffffffffffffffffffffffffffffff\n      and\n        /* \"main.sol\":1059:1069  msg.sender */\n      caller\n        /* \"main.sol\":1059:1078  msg.sender == owner */\n      0xffffffffffffffffffffffffffffffffffffffff\n      and\n      eq\n        /* \"main.sol\":1051:1112  require(msg.sender == owner, \"Only owner can set candidates\") */\n      tag_99\n      jumpi\n      mload(0x40)\n      0x08c379a000000000000000000000000000000000000000000000000000000000\n      dup2\n      mstore\n      0x04\n      add\n      tag_100\n      swap1\n      tag_101\n      jump\t// in\n    tag_100:\n      mload(0x40)\n      dup1\n      swap2\n      sub\n      swap1\n      revert\n    tag_99:\n        /* \"main.sol\":1131:1141  drawClosed */\n      0x07\n      0x00\n      swap1\n      sload\n      swap1\n      0x0100\n      exp\n      swap1\n      div\n      0xff\n      and\n        /* \"main.sol\":1130:1141  !drawClosed */\n      iszero\n        /* \"main.sol\":1122:1174  require(!drawClosed, \"Draw has already been closed\") */\n      tag_102\n      jumpi\n      mload(0x40)\n      0x08c379a000000000000000000000000000000000000000000000000000000000\n      dup2\n      mstore\n      0x04\n      add\n      tag_103\n      swap1\n      tag_104\n      jump\t// in\n    tag_103:\n      mload(0x40)\n      dup1\n      swap2\n      sub\n      swap1\n      revert\n    tag_102:\n        /* \"main.sol\":1197:1208  _candidates */\n      dup1\n        /* \"main.sol\":1184:1194  candidates */\n      0x05\n        /* \"main.sol\":1184:1208  candidates = _candidates */\n      swap1\n      dup1\n      mload\n      swap1\n      0x20\n      add\n      swap1\n      tag_105\n      swap3\n      swap2\n      swap1\n      tag_106\n      jump\t// in\n    tag_105:\n      pop\n        /* \"main.sol\":981:1215  function setCandidates(address[] memory _candidates) public {... */\n      pop\n      jump\t// out\n        /* \"main.sol\":1563:1785  function closeDraw() public {... */\n    tag_46:\n        /* \"main.sol\":1623:1628  owner */\n      0x03\n      0x00\n      swap1\n      sload\n      swap1\n      0x0100\n      exp\n      swap1\n      div\n      0xffffffffffffffffffffffffffffffffffffffff\n      and\n        /* \"main.sol\":1609:1628  msg.sender == owner */\n      0xffffffffffffffffffffffffffffffffffffffff\n      and\n        /* \"main.sol\":1609:1619  msg.sender */\n      caller\n        /* \"main.sol\":1609:1628  msg.sender == owner */\n      0xffffffffffffffffffffffffffffffffffffffff\n      and\n      eq\n        /* \"main.sol\":1601:1658  require(msg.sender == owner, \"Only owner can close draw\") */\n      tag_108\n      jumpi\n      mload(0x40)\n      0x08c379a000000000000000000000000000000000000000000000000000000000\n      dup2\n      mstore\n      0x04\n      add\n      tag_109\n      swap1\n      tag_110\n      jump\t// in\n    tag_109:\n      mload(0x40)\n      dup1\n      swap2\n      sub\n      swap1\n      revert\n    tag_108:\n        /* \"main.sol\":1697:1707  numWinners */\n      sload(0x04)\n        /* \"main.sol\":1676:1686  candidates */\n      0x05\n        /* \"main.sol\":1676:1693  candidates.length */\n      dup1\n      sload\n      swap1\n      pop\n        /* \"main.sol\":1676:1707  candidates.length >= numWinners */\n      lt\n      iszero\n        /* \"main.sol\":1668:1751  require(candidates.length >= numWinners, \"Not enough candidates to select winners\") */\n      tag_111\n      jumpi\n      mload(0x40)\n      0x08c379a000000000000000000000000000000000000000000000000000000000\n      dup2\n      mstore\n      0x04\n      add\n      tag_112\n      swap1\n      tag_113\n      jump\t// in\n    tag_112:\n      mload(0x40)\n      dup1\n      swap2\n      sub\n      swap1\n      revert\n    tag_111:\n        /* \"main.sol\":1774:1778  true */\n      0x01\n        /* \"main.sol\":1761:1771  drawClosed */\n      0x07\n      0x00\n        /* \"main.sol\":1761:1778  drawClosed = true */\n      0x0100\n      exp\n      dup2\n      sload\n      dup2\n      0xff\n      mul\n      not\n      and\n      swap1\n      dup4\n      iszero\n      iszero\n      mul\n      or\n      swap1\n      sstore\n      pop\n        /* \"main.sol\":1563:1785  function closeDraw() public {... */\n      jump\t// out\n        /* \"main.sol\":325:349  address[] public winners */\n    tag_49:\n      0x06\n      dup2\n      dup2\n      sload\n      dup2\n      lt\n      tag_114\n      jumpi\n      0x00\n      dup1\n      revert\n    tag_114:\n      swap1\n      0x00\n      mstore\n      keccak256(0x00, 0x20)\n      add\n      0x00\n      swap2\n      pop\n      sload\n      swap1\n      0x0100\n      exp\n      swap1\n      div\n      0xffffffffffffffffffffffffffffffffffffffff\n      and\n      dup2\n      jump\t// out\n        /* \"main.sol\":1325:1557  function setNumWinners(uint256 _numWinners) public {... */\n    tag_53:\n        /* \"main.sol\":1408:1413  owner */\n      0x03\n      0x00\n      swap1\n      sload\n      swap1\n      0x0100\n      exp\n      swap1\n      div\n      0xffffffffffffffffffffffffffffffffffffffff\n      and\n        /* \"main.sol\":1394:1413  msg.sender == owner */\n      0xffffffffffffffffffffffffffffffffffffffff\n      and\n        /* \"main.sol\":1394:1404  msg.sender */\n      caller\n        /* \"main.sol\":1394:1413  msg.sender == owner */\n      0xffffffffffffffffffffffffffffffffffffffff\n      and\n      eq\n        /* \"main.sol\":1386:1454  require(msg.sender == owner, \"Only owner can set number of winners\") */\n      tag_117\n      jumpi\n      mload(0x40)\n      0x08c379a000000000000000000000000000000000000000000000000000000000\n      dup2\n      mstore\n      0x04\n      add\n      tag_118\n      swap1\n      tag_119\n      jump\t// in\n    tag_118:\n      mload(0x40)\n      dup1\n      swap2\n      sub\n      swap1\n      revert\n    tag_117:\n        /* \"main.sol\":1473:1483  drawClosed */\n      0x07\n      0x00\n      swap1\n      sload\n      swap1\n      0x0100\n      exp\n      swap1\n      div\n      0xff\n      and\n        /* \"main.sol\":1472:1483  !drawClosed */\n      iszero\n        /* \"main.sol\":1464:1516  require(!drawClosed, \"Draw has already been closed\") */\n      tag_120\n      jumpi\n      mload(0x40)\n      0x08c379a000000000000000000000000000000000000000000000000000000000\n      dup2\n      mstore\n      0x04\n      add\n      tag_121\n      swap1\n      tag_104\n      jump\t// in\n    tag_121:\n      mload(0x40)\n      dup1\n      swap2\n      sub\n      swap1\n      revert\n    tag_120:\n        /* \"main.sol\":1539:1550  _numWinners */\n      dup1\n        /* \"main.sol\":1526:1536  numWinners */\n      0x04\n        /* \"main.sol\":1526:1550  numWinners = _numWinners */\n      dup2\n      swap1\n      sstore\n      pop\n        /* \"main.sol\":1325:1557  function setNumWinners(uint256 _numWinners) public {... */\n      pop\n      jump\t// out\n        /* \"main.sol\":355:377  bool public drawClosed */\n    tag_55:\n      0x07\n      0x00\n      swap1\n      sload\n      swap1\n      0x0100\n      exp\n      swap1\n      div\n      0xff\n      and\n      dup2\n      jump\t// out\n        /* \"main.sol\":383:409  uint256 public linkBalance */\n    tag_59:\n      sload(0x08)\n      dup2\n      jump\t// out\n        /* \"main.sol\":1791:2130  function getRandomNumber() public returns (bytes32 requestId) {... */\n    tag_62:\n        /* \"main.sol\":1834:1851  bytes32 requestId */\n      0x00\n        /* \"main.sol\":1885:1890  owner */\n      0x03\n      0x00\n      swap1\n      sload\n      swap1\n      0x0100\n      exp\n      swap1\n      div\n      0xffffffffffffffffffffffffffffffffffffffff\n      and\n        /* \"main.sol\":1871:1890  msg.sender == owner */\n      0xffffffffffffffffffffffffffffffffffffffff\n      and\n        /* \"main.sol\":1871:1881  msg.sender */\n      caller\n        /* \"main.sol\":1871:1890  msg.sender == owner */\n      0xffffffffffffffffffffffffffffffffffffffff\n      and\n      eq\n        /* \"main.sol\":1863:1931  require(msg.sender == owner, \"Only owner can request random number\") */\n      tag_123\n      jumpi\n      mload(0x40)\n      0x08c379a000000000000000000000000000000000000000000000000000000000\n      dup2\n      mstore\n      0x04\n      add\n      tag_124\n      swap1\n      tag_125\n      jump\t// in\n    tag_124:\n      mload(0x40)\n      dup1\n      swap2\n      sub\n      swap1\n      revert\n    tag_123:\n        /* \"main.sol\":1949:1959  drawClosed */\n      0x07\n      0x00\n      swap1\n      sload\n      swap1\n      0x0100\n      exp\n      swap1\n      div\n      0xff\n      and\n        /* \"main.sol\":1941:1982  require(drawClosed, \"Draw is still open\") */\n      tag_126\n      jumpi\n      mload(0x40)\n      0x08c379a000000000000000000000000000000000000000000000000000000000\n      dup2\n      mstore\n      0x04\n      add\n      tag_127\n      swap1\n      tag_128\n      jump\t// in\n    tag_127:\n      mload(0x40)\n      dup1\n      swap2\n      sub\n      swap1\n      revert\n    tag_126:\n        /* \"main.sol\":2033:2036  fee */\n      sload(0x02)\n        /* \"main.sol\":2000:2004  LINK */\n      immutable(\"0xb2219b801710730437d0358146c829b62297a059eceaa0b40b27aea2daecf595\")\n        /* \"main.sol\":2000:2014  LINK.balanceOf */\n      0xffffffffffffffffffffffffffffffffffffffff\n      and\n      0x70a08231\n        /* \"main.sol\":2023:2027  this */\n      address\n        /* \"main.sol\":2000:2029  LINK.balanceOf(address(this)) */\n      mload(0x40)\n      dup3\n      0xffffffff\n      and\n      0xe0\n      shl\n      dup2\n      mstore\n      0x04\n      add\n      tag_129\n      swap2\n      swap1\n      tag_27\n      jump\t// in\n    tag_129:\n      0x20\n      mload(0x40)\n      dup1\n      dup4\n      sub\n      dup2\n      dup7\n      gas\n      staticcall\n      iszero\n      dup1\n      iszero\n      tag_131\n      jumpi\n      returndatasize\n      0x00\n      dup1\n      returndatacopy\n      revert(0x00, returndatasize)\n    tag_131:\n      pop\n      pop\n      pop\n      pop\n      mload(0x40)\n      returndatasize\n      not(0x1f)\n      0x1f\n      dup3\n      add\n      and\n      dup3\n      add\n      dup1\n      0x40\n      mstore\n      pop\n      dup2\n      add\n      swap1\n      tag_132\n      swap2\n      swap1\n      tag_78\n      jump\t// in\n    tag_132:\n        /* \"main.sol\":2000:2036  LINK.balanceOf(address(this)) >= fee */\n      lt\n      iszero\n        /* \"main.sol\":1992:2075  require(LINK.balanceOf(address(this)) >= fee, \"Not enough LINK to fulfill request\") */\n      tag_133\n      jumpi\n      mload(0x40)\n      0x08c379a000000000000000000000000000000000000000000000000000000000\n      dup2\n      mstore\n      0x04\n      add\n      tag_134\n      swap1\n      tag_135\n      jump\t// in\n    tag_134:\n      mload(0x40)\n      dup1\n      swap2\n      sub\n      swap1\n      revert\n    tag_133:\n        /* \"main.sol\":2092:2123  requestRandomness(keyHash, fee) */\n      tag_136\n        /* \"main.sol\":2110:2117  keyHash */\n      sload(0x01)\n        /* \"main.sol\":2119:2122  fee */\n      sload(0x02)\n        /* \"main.sol\":2092:2109  requestRandomness */\n      tag_137\n        /* \"main.sol\":2092:2123  requestRandomness(keyHash, fee) */\n      jump\t// in\n    tag_136:\n        /* \"main.sol\":2085:2123  return requestRandomness(keyHash, fee) */\n      swap1\n      pop\n        /* \"main.sol\":1791:2130  function getRandomNumber() public returns (bytes32 requestId) {... */\n      swap1\n      jump\t// out\n        /* \"main.sol\":2136:2735  function fulfillRandomness(bytes32 /* requestId */, uint256 randomness) internal override {... */\n    tag_97:\n        /* \"main.sol\":2258:2272  vrfCoordinator */\n      0x09\n      0x00\n      swap1\n      sload\n      swap1\n      0x0100\n      exp\n      swap1\n      div\n      0xffffffffffffffffffffffffffffffffffffffff\n      and\n        /* \"main.sol\":2244:2272  msg.sender == vrfCoordinator */\n      0xffffffffffffffffffffffffffffffffffffffff\n      and\n        /* \"main.sol\":2244:2254  msg.sender */\n      caller\n        /* \"main.sol\":2244:2272  msg.sender == vrfCoordinator */\n      0xffffffffffffffffffffffffffffffffffffffff\n      and\n      eq\n        /* \"main.sol\":2236:2320  require(msg.sender == vrfCoordinator, \"Only VRF coordinator can fulfill randomness\") */\n      tag_139\n      jumpi\n      mload(0x40)\n      0x08c379a000000000000000000000000000000000000000000000000000000000\n      dup2\n      mstore\n      0x04\n      add\n      tag_140\n      swap1\n      tag_141\n      jump\t// in\n    tag_140:\n      mload(0x40)\n      dup1\n      swap2\n      sub\n      swap1\n      revert\n    tag_139:\n        /* \"main.sol\":2356:2357  0 */\n      0x00\n        /* \"main.sol\":2338:2345  winners */\n      0x06\n        /* \"main.sol\":2338:2352  winners.length */\n      dup1\n      sload\n      swap1\n      pop\n        /* \"main.sol\":2338:2357  winners.length == 0 */\n      eq\n        /* \"main.sol\":2330:2396  require(winners.length == 0, \"Winners have already been selected\") */\n      tag_142\n      jumpi\n      mload(0x40)\n      0x08c379a000000000000000000000000000000000000000000000000000000000\n      dup2\n      mstore\n      0x04\n      add\n      tag_143\n      swap1\n      tag_144\n      jump\t// in\n    tag_143:\n      mload(0x40)\n      dup1\n      swap2\n      sub\n      swap1\n      revert\n    tag_142:\n        /* \"main.sol\":2411:2417  uint i */\n      0x00\n        /* \"main.sol\":2406:2729  for (uint i = 0; i < numWinners; i++) {... */\n    tag_145:\n        /* \"main.sol\":2427:2437  numWinners */\n      sload(0x04)\n        /* \"main.sol\":2423:2424  i */\n      dup2\n        /* \"main.sol\":2423:2437  i < numWinners */\n      lt\n        /* \"main.sol\":2406:2729  for (uint i = 0; i < numWinners; i++) {... */\n      iszero\n      tag_146\n      jumpi\n        /* \"main.sol\":2458:2471  uint256 index */\n      0x00\n        /* \"main.sol\":2522:2532  candidates */\n      0x05\n        /* \"main.sol\":2522:2539  candidates.length */\n      dup1\n      sload\n      swap1\n      pop\n        /* \"main.sol\":2503:2513  randomness */\n      dup4\n        /* \"main.sol\":2515:2516  i */\n      dup4\n        /* \"main.sol\":2492:2517  abi.encode(randomness, i) */\n      add(0x20, mload(0x40))\n      tag_148\n      swap3\n      swap2\n      swap1\n      tag_149\n      jump\t// in\n    tag_148:\n      mload(0x40)\n      0x20\n      dup2\n      dup4\n      sub\n      sub\n      dup2\n      mstore\n      swap1\n      0x40\n      mstore\n        /* \"main.sol\":2482:2518  keccak256(abi.encode(randomness, i)) */\n      dup1\n      mload\n      swap1\n      0x20\n      add\n      keccak256\n        /* \"main.sol\":2474:2519  uint256(keccak256(abi.encode(randomness, i))) */\n      0x00\n      shr\n        /* \"main.sol\":2474:2539  uint256(keccak256(abi.encode(randomness, i))) % candidates.length */\n      tag_150\n      swap2\n      swap1\n      tag_151\n      jump\t// in\n    tag_150:\n        /* \"main.sol\":2458:2539  uint256 index = uint256(keccak256(abi.encode(randomness, i))) % candidates.length */\n      swap1\n      pop\n        /* \"main.sol\":2553:2567  address winner */\n      0x00\n        /* \"main.sol\":2570:2580  candidates */\n      0x05\n        /* \"main.sol\":2581:2586  index */\n      dup3\n        /* \"main.sol\":2570:2587  candidates[index] */\n      dup2\n      sload\n      dup2\n      lt\n      tag_152\n      jumpi\n      tag_153\n      tag_154\n      jump\t// in\n    tag_153:\n    tag_152:\n      swap1\n      0x00\n      mstore\n      keccak256(0x00, 0x20)\n      add\n      0x00\n      swap1\n      sload\n      swap1\n      0x0100\n      exp\n      swap1\n      div\n      0xffffffffffffffffffffffffffffffffffffffff\n      and\n        /* \"main.sol\":2553:2587  address winner = candidates[index] */\n      swap1\n      pop\n        /* \"main.sol\":2601:2608  winners */\n      0x06\n        /* \"main.sol\":2614:2620  winner */\n      dup2\n        /* \"main.sol\":2601:2621  winners.push(winner) */\n      swap1\n      dup1\n      0x01\n      dup2\n      sload\n      add\n      dup1\n      dup3\n      sstore\n      dup1\n      swap2\n      pop\n      pop\n      0x01\n      swap1\n      sub\n      swap1\n      0x00\n      mstore\n      keccak256(0x00, 0x20)\n      add\n      0x00\n      swap1\n      swap2\n      swap1\n      swap2\n      swap1\n      swap2\n      0x0100\n      exp\n      dup2\n      sload\n      dup2\n      0xffffffffffffffffffffffffffffffffffffffff\n      mul\n      not\n      and\n      swap1\n      dup4\n      0xffffffffffffffffffffffffffffffffffffffff\n      and\n      mul\n      or\n      swap1\n      sstore\n      pop\n        /* \"main.sol\":2655:2665  candidates */\n      0x05\n        /* \"main.sol\":2686:2687  1 */\n      0x01\n        /* \"main.sol\":2666:2676  candidates */\n      0x05\n        /* \"main.sol\":2666:2683  candidates.length */\n      dup1\n      sload\n      swap1\n      pop\n        /* \"main.sol\":2666:2687  candidates.length - 1 */\n      tag_157\n      swap2\n      swap1\n      tag_158\n      jump\t// in\n    tag_157:\n        /* \"main.sol\":2655:2688  candidates[candidates.length - 1] */\n      dup2\n      sload\n      dup2\n      lt\n      tag_159\n      jumpi\n      tag_160\n      tag_154\n      jump\t// in\n    tag_160:\n    tag_159:\n      swap1\n      0x00\n      mstore\n      keccak256(0x00, 0x20)\n      add\n      0x00\n      swap1\n      sload\n      swap1\n      0x0100\n      exp\n      swap1\n      div\n      0xffffffffffffffffffffffffffffffffffffffff\n      and\n        /* \"main.sol\":2635:2645  candidates */\n      0x05\n        /* \"main.sol\":2646:2651  index */\n      dup4\n        /* \"main.sol\":2635:2652  candidates[index] */\n      dup2\n      sload\n      dup2\n      lt\n      tag_162\n      jumpi\n      tag_163\n      tag_154\n      jump\t// in\n    tag_163:\n    tag_162:\n      swap1\n      0x00\n      mstore\n      keccak256(0x00, 0x20)\n      add\n      0x00\n        /* \"main.sol\":2635:2688  candidates[index] = candidates[candidates.length - 1] */\n      0x0100\n      exp\n      dup2\n      sload\n      dup2\n      0xffffffffffffffffffffffffffffffffffffffff\n      mul\n      not\n      and\n      swap1\n      dup4\n      0xffffffffffffffffffffffffffffffffffffffff\n      and\n      mul\n      or\n      swap1\n      sstore\n      pop\n        /* \"main.sol\":2702:2712  candidates */\n      0x05\n        /* \"main.sol\":2702:2718  candidates.pop() */\n      dup1\n      sload\n      dup1\n      tag_165\n      jumpi\n      tag_166\n      tag_167\n      jump\t// in\n    tag_166:\n    tag_165:\n      0x01\n      swap1\n      sub\n      dup2\n      dup2\n      swap1\n      0x00\n      mstore\n      keccak256(0x00, 0x20)\n      add\n      exp(0x0100, 0x00)\n      dup2\n      sload\n      swap1\n      0xffffffffffffffffffffffffffffffffffffffff\n      mul\n      not\n      and\n      swap1\n      sstore\n      swap1\n      sstore\n        /* \"main.sol\":2444:2729  {... */\n      pop\n      pop\n        /* \"main.sol\":2439:2442  i++ */\n      dup1\n      dup1\n      tag_169\n      swap1\n      tag_170\n      jump\t// in\n    tag_169:\n      swap2\n      pop\n      pop\n        /* \"main.sol\":2406:2729  for (uint i = 0; i < numWinners; i++) {... */\n      jump(tag_145)\n    tag_146:\n      pop\n        /* \"main.sol\":2136:2735  function fulfillRandomness(bytes32 /* requestId */, uint256 randomness) internal override {... */\n      pop\n      pop\n      jump\t// out\n        /* \".deps/npm/@chainlink/contracts/src/v0.8/VRFConsumerBase.sol\":7732:8752  function requestRandomness(bytes32 _keyHash, uint256 _fee) internal returns (bytes32 requestId) {... */\n    tag_137:\n        /* \".deps/npm/@chainlink/contracts/src/v0.8/VRFConsumerBase.sol\":7809:7826  bytes32 requestId */\n      0x00\n        /* \".deps/npm/@chainlink/contracts/src/v0.8/VRFConsumerBase.sol\":7834:7838  LINK */\n      immutable(\"0xb2219b801710730437d0358146c829b62297a059eceaa0b40b27aea2daecf595\")\n        /* \".deps/npm/@chainlink/contracts/src/v0.8/VRFConsumerBase.sol\":7834:7854  LINK.transferAndCall */\n      0xffffffffffffffffffffffffffffffffffffffff\n      and\n      0x4000aea0\n        /* \".deps/npm/@chainlink/contracts/src/v0.8/VRFConsumerBase.sol\":7855:7869  vrfCoordinator */\n      immutable(\"0x6dbb33232cde86c8a04f90a8bed9fc1c5ef520188a14538d96eb100d69bc2a94\")\n        /* \".deps/npm/@chainlink/contracts/src/v0.8/VRFConsumerBase.sol\":7871:7875  _fee */\n      dup5\n        /* \".deps/npm/@chainlink/contracts/src/v0.8/VRFConsumerBase.sol\":7888:7896  _keyHash */\n      dup7\n        /* \".deps/npm/@chainlink/contracts/src/v0.8/VRFConsumerBase.sol\":6589:6590  0 */\n      0x00\n        /* \".deps/npm/@chainlink/contracts/src/v0.8/VRFConsumerBase.sol\":7877:7920  abi.encode(_keyHash, USER_SEED_PLACEHOLDER) */\n      add(0x20, mload(0x40))\n      tag_172\n      swap3\n      swap2\n      swap1\n      tag_173\n      jump\t// in\n    tag_172:\n      mload(0x40)\n      0x20\n      dup2\n      dup4\n      sub\n      sub\n      dup2\n      mstore\n      swap1\n      0x40\n      mstore\n        /* \".deps/npm/@chainlink/contracts/src/v0.8/VRFConsumerBase.sol\":7834:7921  LINK.transferAndCall(vrfCoordinator, _fee, abi.encode(_keyHash, USER_SEED_PLACEHOLDER)) */\n      mload(0x40)\n      dup5\n      0xffffffff\n      and\n      0xe0\n      shl\n      dup2\n      mstore\n      0x04\n      add\n      tag_174\n      swap4\n      swap3\n      swap2\n      swap1\n      tag_175\n      jump\t// in\n    tag_174:\n      0x20\n      mload(0x40)\n      dup1\n      dup4\n      sub\n      dup2\n      0x00\n      dup8\n      gas\n      call\n      iszero\n      dup1\n      iszero\n      tag_177\n      jumpi\n      returndatasize\n      0x00\n      dup1\n      returndatacopy\n      revert(0x00, returndatasize)\n    tag_177:\n      pop\n      pop\n      pop\n      pop\n      mload(0x40)\n      returndatasize\n      not(0x1f)\n      0x1f\n      dup3\n      add\n      and\n      dup3\n      add\n      dup1\n      0x40\n      mstore\n      pop\n      dup2\n      add\n      swap1\n      tag_178\n      swap2\n      swap1\n      tag_84\n      jump\t// in\n    tag_178:\n      pop\n        /* \".deps/npm/@chainlink/contracts/src/v0.8/VRFConsumerBase.sol\":8152:8167  uint256 vRFSeed */\n      0x00\n        /* \".deps/npm/@chainlink/contracts/src/v0.8/VRFConsumerBase.sol\":8170:8252  makeVRFInputSeed(_keyHash, USER_SEED_PLACEHOLDER, address(this), nonces[_keyHash]) */\n      tag_179\n        /* \".deps/npm/@chainlink/contracts/src/v0.8/VRFConsumerBase.sol\":8187:8195  _keyHash */\n      dup5\n        /* \".deps/npm/@chainlink/contracts/src/v0.8/VRFConsumerBase.sol\":6589:6590  0 */\n      0x00\n        /* \".deps/npm/@chainlink/contracts/src/v0.8/VRFConsumerBase.sol\":8228:8232  this */\n      address\n        /* \".deps/npm/@chainlink/contracts/src/v0.8/VRFConsumerBase.sol\":8235:8241  nonces */\n      0x00\n        /* \".deps/npm/@chainlink/contracts/src/v0.8/VRFConsumerBase.sol\":8235:8251  nonces[_keyHash] */\n      dup1\n        /* \".deps/npm/@chainlink/contracts/src/v0.8/VRFConsumerBase.sol\":8242:8250  _keyHash */\n      dup10\n        /* \".deps/npm/@chainlink/contracts/src/v0.8/VRFConsumerBase.sol\":8235:8251  nonces[_keyHash] */\n      dup2\n      mstore\n      0x20\n      add\n      swap1\n      dup2\n      mstore\n      0x20\n      add\n      0x00\n      keccak256\n      sload\n        /* \".deps/npm/@chainlink/contracts/src/v0.8/VRFConsumerBase.sol\":8170:8186  makeVRFInputSeed */\n      tag_180\n        /* \".deps/npm/@chainlink/contracts/src/v0.8/VRFConsumerBase.sol\":8170:8252  makeVRFInputSeed(_keyHash, USER_SEED_PLACEHOLDER, address(this), nonces[_keyHash]) */\n      jump\t// in\n    tag_179:\n        /* \".deps/npm/@chainlink/contracts/src/v0.8/VRFConsumerBase.sol\":8152:8252  uint256 vRFSeed = makeVRFInputSeed(_keyHash, USER_SEED_PLACEHOLDER, address(this), nonces[_keyHash]) */\n      swap1\n      pop\n        /* \".deps/npm/@chainlink/contracts/src/v0.8/VRFConsumerBase.sol\":8701:8702  1 */\n      0x01\n        /* \".deps/npm/@chainlink/contracts/src/v0.8/VRFConsumerBase.sol\":8682:8688  nonces */\n      0x00\n        /* \".deps/npm/@chainlink/contracts/src/v0.8/VRFConsumerBase.sol\":8682:8698  nonces[_keyHash] */\n      dup1\n        /* \".deps/npm/@chainlink/contracts/src/v0.8/VRFConsumerBase.sol\":8689:8697  _keyHash */\n      dup7\n        /* \".deps/npm/@chainlink/contracts/src/v0.8/VRFConsumerBase.sol\":8682:8698  nonces[_keyHash] */\n      dup2\n      mstore\n      0x20\n      add\n      swap1\n      dup2\n      mstore\n      0x20\n      add\n      0x00\n      keccak256\n      sload\n        /* \".deps/npm/@chainlink/contracts/src/v0.8/VRFConsumerBase.sol\":8682:8702  nonces[_keyHash] + 1 */\n      tag_181\n      swap2\n      swap1\n      tag_182\n      jump\t// in\n    tag_181:\n        /* \".deps/npm/@chainlink/contracts/src/v0.8/VRFConsumerBase.sol\":8663:8669  nonces */\n      0x00\n        /* \".deps/npm/@chainlink/contracts/src/v0.8/VRFConsumerBase.sol\":8663:8679  nonces[_keyHash] */\n      dup1\n        /* \".deps/npm/@chainlink/contracts/src/v0.8/VRFConsumerBase.sol\":8670:8678  _keyHash */\n      dup7\n        /* \".deps/npm/@chainlink/contracts/src/v0.8/VRFConsumerBase.sol\":8663:8679  nonces[_keyHash] */\n      dup2\n      mstore\n      0x20\n      add\n      swap1\n      dup2\n      mstore\n      0x20\n      add\n      0x00\n      keccak256\n        /* \".deps/npm/@chainlink/contracts/src/v0.8/VRFConsumerBase.sol\":8663:8702  nonces[_keyHash] = nonces[_keyHash] + 1 */\n      dup2\n      swap1\n      sstore\n      pop\n        /* \".deps/npm/@chainlink/contracts/src/v0.8/VRFConsumerBase.sol\":8715:8747  makeRequestId(_keyHash, vRFSeed) */\n      tag_183\n        /* \".deps/npm/@chainlink/contracts/src/v0.8/VRFConsumerBase.sol\":8729:8737  _keyHash */\n      dup5\n        /* \".deps/npm/@chainlink/contracts/src/v0.8/VRFConsumerBase.sol\":8739:8746  vRFSeed */\n      dup3\n        /* \".deps/npm/@chainlink/contracts/src/v0.8/VRFConsumerBase.sol\":8715:8728  makeRequestId */\n      tag_184\n        /* \".deps/npm/@chainlink/contracts/src/v0.8/VRFConsumerBase.sol\":8715:8747  makeRequestId(_keyHash, vRFSeed) */\n      jump\t// in\n    tag_183:\n        /* \".deps/npm/@chainlink/contracts/src/v0.8/VRFConsumerBase.sol\":8708:8747  return makeRequestId(_keyHash, vRFSeed) */\n      swap2\n      pop\n      pop\n        /* \".deps/npm/@chainlink/contracts/src/v0.8/VRFConsumerBase.sol\":7732:8752  function requestRandomness(bytes32 _keyHash, uint256 _fee) internal returns (bytes32 requestId) {... */\n      swap3\n      swap2\n      pop\n      pop\n      jump\t// out\n        /* \".deps/npm/@chainlink/contracts/src/v0.8/VRFRequestIDBase.sol\":796:1036  function makeVRFInputSeed(... */\n    tag_180:\n        /* \".deps/npm/@chainlink/contracts/src/v0.8/VRFRequestIDBase.sol\":938:945  uint256 */\n      0x00\n        /* \".deps/npm/@chainlink/contracts/src/v0.8/VRFRequestIDBase.sol\":989:997  _keyHash */\n      dup5\n        /* \".deps/npm/@chainlink/contracts/src/v0.8/VRFRequestIDBase.sol\":999:1008  _userSeed */\n      dup5\n        /* \".deps/npm/@chainlink/contracts/src/v0.8/VRFRequestIDBase.sol\":1010:1020  _requester */\n      dup5\n        /* \".deps/npm/@chainlink/contracts/src/v0.8/VRFRequestIDBase.sol\":1022:1028  _nonce */\n      dup5\n        /* \".deps/npm/@chainlink/contracts/src/v0.8/VRFRequestIDBase.sol\":978:1029  abi.encode(_keyHash, _userSeed, _requester, _nonce) */\n      add(0x20, mload(0x40))\n      tag_186\n      swap5\n      swap4\n      swap3\n      swap2\n      swap1\n      tag_187\n      jump\t// in\n    tag_186:\n      mload(0x40)\n      0x20\n      dup2\n      dup4\n      sub\n      sub\n      dup2\n      mstore\n      swap1\n      0x40\n      mstore\n        /* \".deps/npm/@chainlink/contracts/src/v0.8/VRFRequestIDBase.sol\":968:1030  keccak256(abi.encode(_keyHash, _userSeed, _requester, _nonce)) */\n      dup1\n      mload\n      swap1\n      0x20\n      add\n      keccak256\n        /* \".deps/npm/@chainlink/contracts/src/v0.8/VRFRequestIDBase.sol\":960:1031  uint256(keccak256(abi.encode(_keyHash, _userSeed, _requester, _nonce))) */\n      0x00\n      shr\n        /* \".deps/npm/@chainlink/contracts/src/v0.8/VRFRequestIDBase.sol\":953:1031  return uint256(keccak256(abi.encode(_keyHash, _userSeed, _requester, _nonce))) */\n      swap1\n      pop\n        /* \".deps/npm/@chainlink/contracts/src/v0.8/VRFRequestIDBase.sol\":796:1036  function makeVRFInputSeed(... */\n      swap5\n      swap4\n      pop\n      pop\n      pop\n      pop\n      jump\t// out\n        /* \".deps/npm/@chainlink/contracts/src/v0.8/VRFRequestIDBase.sol\":1416:1582  function makeRequestId(bytes32 _keyHash, uint256 _vRFInputSeed) internal pure returns (bytes32) {... */\n    tag_184:\n        /* \".deps/npm/@chainlink/contracts/src/v0.8/VRFRequestIDBase.sol\":1503:1510  bytes32 */\n      0x00\n        /* \".deps/npm/@chainlink/contracts/src/v0.8/VRFRequestIDBase.sol\":1552:1560  _keyHash */\n      dup3\n        /* \".deps/npm/@chainlink/contracts/src/v0.8/VRFRequestIDBase.sol\":1562:1575  _vRFInputSeed */\n      dup3\n        /* \".deps/npm/@chainlink/contracts/src/v0.8/VRFRequestIDBase.sol\":1535:1576  abi.encodePacked(_keyHash, _vRFInputSeed) */\n      add(0x20, mload(0x40))\n      tag_189\n      swap3\n      swap2\n      swap1\n      tag_190\n      jump\t// in\n    tag_189:\n      mload(0x40)\n      0x20\n      dup2\n      dup4\n      sub\n      sub\n      dup2\n      mstore\n      swap1\n      0x40\n      mstore\n        /* \".deps/npm/@chainlink/contracts/src/v0.8/VRFRequestIDBase.sol\":1525:1577  keccak256(abi.encodePacked(_keyHash, _vRFInputSeed)) */\n      dup1\n      mload\n      swap1\n      0x20\n      add\n      keccak256\n        /* \".deps/npm/@chainlink/contracts/src/v0.8/VRFRequestIDBase.sol\":1518:1577  return keccak256(abi.encodePacked(_keyHash, _vRFInputSeed)) */\n      swap1\n      pop\n        /* \".deps/npm/@chainlink/contracts/src/v0.8/VRFRequestIDBase.sol\":1416:1582  function makeRequestId(bytes32 _keyHash, uint256 _vRFInputSeed) internal pure returns (bytes32) {... */\n      swap3\n      swap2\n      pop\n      pop\n      jump\t// out\n    tag_106:\n      dup3\n      dup1\n      sload\n      dup3\n      dup3\n      sstore\n      swap1\n      0x00\n      mstore\n      keccak256(0x00, 0x20)\n      swap1\n      dup2\n      add\n      swap3\n      dup3\n      iszero\n      tag_191\n      jumpi\n      swap2\n      0x20\n      mul\n      dup3\n      add\n    tag_192:\n      dup3\n      dup2\n      gt\n      iszero\n      tag_193\n      jumpi\n      dup3\n      mload\n      dup3\n      exp(0x0100, 0x00)\n      dup2\n      sload\n      dup2\n      0xffffffffffffffffffffffffffffffffffffffff\n      mul\n      not\n      and\n      swap1\n      dup4\n      0xffffffffffffffffffffffffffffffffffffffff\n      and\n      mul\n      or\n      swap1\n      sstore\n      pop\n      swap2\n      0x20\n      add\n      swap2\n      swap1\n      0x01\n      add\n      swap1\n      jump(tag_192)\n    tag_193:\n    tag_191:\n      pop\n      swap1\n      pop\n      tag_194\n      swap2\n      swap1\n      tag_195\n      jump\t// in\n    tag_194:\n      pop\n      swap1\n      jump\t// out\n    tag_195:\n    tag_196:\n      dup1\n      dup3\n      gt\n      iszero\n      tag_197\n      jumpi\n      0x00\n      dup2\n      0x00\n      swap1\n      sstore\n      pop\n      0x01\n      add\n      jump(tag_196)\n    tag_197:\n      pop\n      swap1\n      jump\t// out\n        /* \"#utility.yul\":7:121   */\n    tag_198:\n        /* \"#utility.yul\":74:80   */\n      0x00\n        /* \"#utility.yul\":108:113   */\n      dup2\n        /* \"#utility.yul\":102:114   */\n      mload\n        /* \"#utility.yul\":92:114   */\n      swap1\n      pop\n        /* \"#utility.yul\":7:121   */\n      swap2\n      swap1\n      pop\n      jump\t// out\n        /* \"#utility.yul\":127:311   */\n    tag_199:\n        /* \"#utility.yul\":226:237   */\n      0x00\n        /* \"#utility.yul\":260:266   */\n      dup3\n        /* \"#utility.yul\":255:258   */\n      dup3\n        /* \"#utility.yul\":248:267   */\n      mstore\n        /* \"#utility.yul\":300:304   */\n      0x20\n        /* \"#utility.yul\":295:298   */\n      dup3\n        /* \"#utility.yul\":291:305   */\n      add\n        /* \"#utility.yul\":276:305   */\n      swap1\n      pop\n        /* \"#utility.yul\":127:311   */\n      swap3\n      swap2\n      pop\n      pop\n      jump\t// out\n        /* \"#utility.yul\":317:449   */\n    tag_200:\n        /* \"#utility.yul\":384:388   */\n      0x00\n        /* \"#utility.yul\":407:410   */\n      dup2\n        /* \"#utility.yul\":399:410   */\n      swap1\n      pop\n        /* \"#utility.yul\":437:441   */\n      0x20\n        /* \"#utility.yul\":432:435   */\n      dup3\n        /* \"#utility.yul\":428:442   */\n      add\n        /* \"#utility.yul\":420:442   */\n      swap1\n      pop\n        /* \"#utility.yul\":317:449   */\n      swap2\n      swap1\n      pop\n      jump\t// out\n        /* \"#utility.yul\":455:581   */\n    tag_201:\n        /* \"#utility.yul\":492:499   */\n      0x00\n        /* \"#utility.yul\":532:574   */\n      0xffffffffffffffffffffffffffffffffffffffff\n        /* \"#utility.yul\":525:530   */\n      dup3\n        /* \"#utility.yul\":521:575   */\n      and\n        /* \"#utility.yul\":510:575   */\n      swap1\n      pop\n        /* \"#utility.yul\":455:581   */\n      swap2\n      swap1\n      pop\n      jump\t// out\n        /* \"#utility.yul\":587:683   */\n    tag_202:\n        /* \"#utility.yul\":624:631   */\n      0x00\n        /* \"#utility.yul\":653:677   */\n      tag_278\n        /* \"#utility.yul\":671:676   */\n      dup3\n        /* \"#utility.yul\":653:677   */\n      tag_201\n      jump\t// in\n    tag_278:\n        /* \"#utility.yul\":642:677   */\n      swap1\n      pop\n        /* \"#utility.yul\":587:683   */\n      swap2\n      swap1\n      pop\n      jump\t// out\n        /* \"#utility.yul\":689:797   */\n    tag_203:\n        /* \"#utility.yul\":766:790   */\n      tag_280\n        /* \"#utility.yul\":784:789   */\n      dup2\n        /* \"#utility.yul\":766:790   */\n      tag_202\n      jump\t// in\n    tag_280:\n        /* \"#utility.yul\":761:764   */\n      dup3\n        /* \"#utility.yul\":754:791   */\n      mstore\n        /* \"#utility.yul\":689:797   */\n      pop\n      pop\n      jump\t// out\n        /* \"#utility.yul\":803:982   */\n    tag_204:\n        /* \"#utility.yul\":872:882   */\n      0x00\n        /* \"#utility.yul\":893:939   */\n      tag_282\n        /* \"#utility.yul\":935:938   */\n      dup4\n        /* \"#utility.yul\":927:933   */\n      dup4\n        /* \"#utility.yul\":893:939   */\n      tag_203\n      jump\t// in\n    tag_282:\n        /* \"#utility.yul\":971:975   */\n      0x20\n        /* \"#utility.yul\":966:969   */\n      dup4\n        /* \"#utility.yul\":962:976   */\n      add\n        /* \"#utility.yul\":948:976   */\n      swap1\n      pop\n        /* \"#utility.yul\":803:982   */\n      swap3\n      swap2\n      pop\n      pop\n      jump\t// out\n        /* \"#utility.yul\":988:1101   */\n    tag_205:\n        /* \"#utility.yul\":1058:1062   */\n      0x00\n        /* \"#utility.yul\":1090:1094   */\n      0x20\n        /* \"#utility.yul\":1085:1088   */\n      dup3\n        /* \"#utility.yul\":1081:1095   */\n      add\n        /* \"#utility.yul\":1073:1095   */\n      swap1\n      pop\n        /* \"#utility.yul\":988:1101   */\n      swap2\n      swap1\n      pop\n      jump\t// out\n        /* \"#utility.yul\":1137:1869   */\n    tag_206:\n        /* \"#utility.yul\":1256:1259   */\n      0x00\n        /* \"#utility.yul\":1285:1339   */\n      tag_285\n        /* \"#utility.yul\":1333:1338   */\n      dup3\n        /* \"#utility.yul\":1285:1339   */\n      tag_198\n      jump\t// in\n    tag_285:\n        /* \"#utility.yul\":1355:1441   */\n      tag_286\n        /* \"#utility.yul\":1434:1440   */\n      dup2\n        /* \"#utility.yul\":1429:1432   */\n      dup6\n        /* \"#utility.yul\":1355:1441   */\n      tag_199\n      jump\t// in\n    tag_286:\n        /* \"#utility.yul\":1348:1441   */\n      swap4\n      pop\n        /* \"#utility.yul\":1465:1521   */\n      tag_287\n        /* \"#utility.yul\":1515:1520   */\n      dup4\n        /* \"#utility.yul\":1465:1521   */\n      tag_200\n      jump\t// in\n    tag_287:\n        /* \"#utility.yul\":1544:1551   */\n      dup1\n        /* \"#utility.yul\":1575:1576   */\n      0x00\n        /* \"#utility.yul\":1560:1844   */\n    tag_288:\n        /* \"#utility.yul\":1585:1591   */\n      dup4\n        /* \"#utility.yul\":1582:1583   */\n      dup2\n        /* \"#utility.yul\":1579:1592   */\n      lt\n        /* \"#utility.yul\":1560:1844   */\n      iszero\n      tag_290\n      jumpi\n        /* \"#utility.yul\":1661:1667   */\n      dup2\n        /* \"#utility.yul\":1655:1668   */\n      mload\n        /* \"#utility.yul\":1688:1751   */\n      tag_291\n        /* \"#utility.yul\":1747:1750   */\n      dup9\n        /* \"#utility.yul\":1732:1745   */\n      dup3\n        /* \"#utility.yul\":1688:1751   */\n      tag_204\n      jump\t// in\n    tag_291:\n        /* \"#utility.yul\":1681:1751   */\n      swap8\n      pop\n        /* \"#utility.yul\":1774:1834   */\n      tag_292\n        /* \"#utility.yul\":1827:1833   */\n      dup4\n        /* \"#utility.yul\":1774:1834   */\n      tag_205\n      jump\t// in\n    tag_292:\n        /* \"#utility.yul\":1764:1834   */\n      swap3\n      pop\n        /* \"#utility.yul\":1620:1844   */\n      pop\n        /* \"#utility.yul\":1607:1608   */\n      0x01\n        /* \"#utility.yul\":1604:1605   */\n      dup2\n        /* \"#utility.yul\":1600:1609   */\n      add\n        /* \"#utility.yul\":1595:1609   */\n      swap1\n      pop\n        /* \"#utility.yul\":1560:1844   */\n      jump(tag_288)\n    tag_290:\n        /* \"#utility.yul\":1564:1578   */\n      pop\n        /* \"#utility.yul\":1860:1863   */\n      dup6\n        /* \"#utility.yul\":1853:1863   */\n      swap4\n      pop\n        /* \"#utility.yul\":1261:1869   */\n      pop\n      pop\n      pop\n        /* \"#utility.yul\":1137:1869   */\n      swap3\n      swap2\n      pop\n      pop\n      jump\t// out\n        /* \"#utility.yul\":1875:2248   */\n    tag_21:\n        /* \"#utility.yul\":2018:2022   */\n      0x00\n        /* \"#utility.yul\":2056:2058   */\n      0x20\n        /* \"#utility.yul\":2045:2054   */\n      dup3\n        /* \"#utility.yul\":2041:2059   */\n      add\n        /* \"#utility.yul\":2033:2059   */\n      swap1\n      pop\n        /* \"#utility.yul\":2105:2114   */\n      dup2\n        /* \"#utility.yul\":2099:2103   */\n      dup2\n        /* \"#utility.yul\":2095:2115   */\n      sub\n        /* \"#utility.yul\":2091:2092   */\n      0x00\n        /* \"#utility.yul\":2080:2089   */\n      dup4\n        /* \"#utility.yul\":2076:2093   */\n      add\n        /* \"#utility.yul\":2069:2116   */\n      mstore\n        /* \"#utility.yul\":2133:2241   */\n      tag_294\n        /* \"#utility.yul\":2236:2240   */\n      dup2\n        /* \"#utility.yul\":2227:2233   */\n      dup5\n        /* \"#utility.yul\":2133:2241   */\n      tag_206\n      jump\t// in\n    tag_294:\n        /* \"#utility.yul\":2125:2241   */\n      swap1\n      pop\n        /* \"#utility.yul\":1875:2248   */\n      swap3\n      swap2\n      pop\n      pop\n      jump\t// out\n        /* \"#utility.yul\":2254:2329   */\n    tag_207:\n        /* \"#utility.yul\":2287:2293   */\n      0x00\n        /* \"#utility.yul\":2320:2322   */\n      0x40\n        /* \"#utility.yul\":2314:2323   */\n      mload\n        /* \"#utility.yul\":2304:2323   */\n      swap1\n      pop\n        /* \"#utility.yul\":2254:2329   */\n      swap1\n      jump\t// out\n        /* \"#utility.yul\":2335:2452   */\n    tag_208:\n        /* \"#utility.yul\":2444:2445   */\n      0x00\n        /* \"#utility.yul\":2441:2442   */\n      dup1\n        /* \"#utility.yul\":2434:2446   */\n      revert\n        /* \"#utility.yul\":2458:2575   */\n    tag_209:\n        /* \"#utility.yul\":2567:2568   */\n      0x00\n        /* \"#utility.yul\":2564:2565   */\n      dup1\n        /* \"#utility.yul\":2557:2569   */\n      revert\n        /* \"#utility.yul\":2581:2658   */\n    tag_210:\n        /* \"#utility.yul\":2618:2625   */\n      0x00\n        /* \"#utility.yul\":2647:2652   */\n      dup2\n        /* \"#utility.yul\":2636:2652   */\n      swap1\n      pop\n        /* \"#utility.yul\":2581:2658   */\n      swap2\n      swap1\n      pop\n      jump\t// out\n        /* \"#utility.yul\":2664:2786   */\n    tag_211:\n        /* \"#utility.yul\":2737:2761   */\n      tag_300\n        /* \"#utility.yul\":2755:2760   */\n      dup2\n        /* \"#utility.yul\":2737:2761   */\n      tag_210\n      jump\t// in\n    tag_300:\n        /* \"#utility.yul\":2730:2735   */\n      dup2\n        /* \"#utility.yul\":2727:2762   */\n      eq\n        /* \"#utility.yul\":2717:2780   */\n      tag_301\n      jumpi\n        /* \"#utility.yul\":2776:2777   */\n      0x00\n        /* \"#utility.yul\":2773:2774   */\n      dup1\n        /* \"#utility.yul\":2766:2778   */\n      revert\n        /* \"#utility.yul\":2717:2780   */\n    tag_301:\n        /* \"#utility.yul\":2664:2786   */\n      pop\n      jump\t// out\n        /* \"#utility.yul\":2792:2931   */\n    tag_212:\n        /* \"#utility.yul\":2838:2843   */\n      0x00\n        /* \"#utility.yul\":2876:2882   */\n      dup2\n        /* \"#utility.yul\":2863:2883   */\n      calldataload\n        /* \"#utility.yul\":2854:2883   */\n      swap1\n      pop\n        /* \"#utility.yul\":2892:2925   */\n      tag_303\n        /* \"#utility.yul\":2919:2924   */\n      dup2\n        /* \"#utility.yul\":2892:2925   */\n      tag_211\n      jump\t// in\n    tag_303:\n        /* \"#utility.yul\":2792:2931   */\n      swap3\n      swap2\n      pop\n      pop\n      jump\t// out\n        /* \"#utility.yul\":2937:3266   */\n    tag_24:\n        /* \"#utility.yul\":2996:3002   */\n      0x00\n        /* \"#utility.yul\":3045:3047   */\n      0x20\n        /* \"#utility.yul\":3033:3042   */\n      dup3\n        /* \"#utility.yul\":3024:3031   */\n      dup5\n        /* \"#utility.yul\":3020:3043   */\n      sub\n        /* \"#utility.yul\":3016:3048   */\n      slt\n        /* \"#utility.yul\":3013:3132   */\n      iszero\n      tag_305\n      jumpi\n        /* \"#utility.yul\":3051:3130   */\n      tag_306\n      tag_208\n      jump\t// in\n    tag_306:\n        /* \"#utility.yul\":3013:3132   */\n    tag_305:\n        /* \"#utility.yul\":3171:3172   */\n      0x00\n        /* \"#utility.yul\":3196:3249   */\n      tag_307\n        /* \"#utility.yul\":3241:3248   */\n      dup5\n        /* \"#utility.yul\":3232:3238   */\n      dup3\n        /* \"#utility.yul\":3221:3230   */\n      dup6\n        /* \"#utility.yul\":3217:3239   */\n      add\n        /* \"#utility.yul\":3196:3249   */\n      tag_212\n      jump\t// in\n    tag_307:\n        /* \"#utility.yul\":3186:3249   */\n      swap2\n      pop\n        /* \"#utility.yul\":3142:3259   */\n      pop\n        /* \"#utility.yul\":2937:3266   */\n      swap3\n      swap2\n      pop\n      pop\n      jump\t// out\n        /* \"#utility.yul\":3272:3390   */\n    tag_213:\n        /* \"#utility.yul\":3359:3383   */\n      tag_309\n        /* \"#utility.yul\":3377:3382   */\n      dup2\n        /* \"#utility.yul\":3359:3383   */\n      tag_202\n      jump\t// in\n    tag_309:\n        /* \"#utility.yul\":3354:3357   */\n      dup3\n        /* \"#utility.yul\":3347:3384   */\n      mstore\n        /* \"#utility.yul\":3272:3390   */\n      pop\n      pop\n      jump\t// out\n        /* \"#utility.yul\":3396:3618   */\n    tag_27:\n        /* \"#utility.yul\":3489:3493   */\n      0x00\n        /* \"#utility.yul\":3527:3529   */\n      0x20\n        /* \"#utility.yul\":3516:3525   */\n      dup3\n        /* \"#utility.yul\":3512:3530   */\n      add\n        /* \"#utility.yul\":3504:3530   */\n      swap1\n      pop\n        /* \"#utility.yul\":3540:3611   */\n      tag_311\n        /* \"#utility.yul\":3608:3609   */\n      0x00\n        /* \"#utility.yul\":3597:3606   */\n      dup4\n        /* \"#utility.yul\":3593:3610   */\n      add\n        /* \"#utility.yul\":3584:3590   */\n      dup5\n        /* \"#utility.yul\":3540:3611   */\n      tag_213\n      jump\t// in\n    tag_311:\n        /* \"#utility.yul\":3396:3618   */\n      swap3\n      swap2\n      pop\n      pop\n      jump\t// out\n        /* \"#utility.yul\":3624:3742   */\n    tag_214:\n        /* \"#utility.yul\":3711:3735   */\n      tag_313\n        /* \"#utility.yul\":3729:3734   */\n      dup2\n        /* \"#utility.yul\":3711:3735   */\n      tag_210\n      jump\t// in\n    tag_313:\n        /* \"#utility.yul\":3706:3709   */\n      dup3\n        /* \"#utility.yul\":3699:3736   */\n      mstore\n        /* \"#utility.yul\":3624:3742   */\n      pop\n      pop\n      jump\t// out\n        /* \"#utility.yul\":3748:3970   */\n    tag_31:\n        /* \"#utility.yul\":3841:3845   */\n      0x00\n        /* \"#utility.yul\":3879:3881   */\n      0x20\n        /* \"#utility.yul\":3868:3877   */\n      dup3\n        /* \"#utility.yul\":3864:3882   */\n      add\n        /* \"#utility.yul\":3856:3882   */\n      swap1\n      pop\n        /* \"#utility.yul\":3892:3963   */\n      tag_315\n        /* \"#utility.yul\":3960:3961   */\n      0x00\n        /* \"#utility.yul\":3949:3958   */\n      dup4\n        /* \"#utility.yul\":3945:3962   */\n      add\n        /* \"#utility.yul\":3936:3942   */\n      dup5\n        /* \"#utility.yul\":3892:3963   */\n      tag_214\n      jump\t// in\n    tag_315:\n        /* \"#utility.yul\":3748:3970   */\n      swap3\n      swap2\n      pop\n      pop\n      jump\t// out\n        /* \"#utility.yul\":3976:4053   */\n    tag_215:\n        /* \"#utility.yul\":4013:4020   */\n      0x00\n        /* \"#utility.yul\":4042:4047   */\n      dup2\n        /* \"#utility.yul\":4031:4047   */\n      swap1\n      pop\n        /* \"#utility.yul\":3976:4053   */\n      swap2\n      swap1\n      pop\n      jump\t// out\n        /* \"#utility.yul\":4059:4181   */\n    tag_216:\n        /* \"#utility.yul\":4132:4156   */\n      tag_318\n        /* \"#utility.yul\":4150:4155   */\n      dup2\n        /* \"#utility.yul\":4132:4156   */\n      tag_215\n      jump\t// in\n    tag_318:\n        /* \"#utility.yul\":4125:4130   */\n      dup2\n        /* \"#utility.yul\":4122:4157   */\n      eq\n        /* \"#utility.yul\":4112:4175   */\n      tag_319\n      jumpi\n        /* \"#utility.yul\":4171:4172   */\n      0x00\n        /* \"#utility.yul\":4168:4169   */\n      dup1\n        /* \"#utility.yul\":4161:4173   */\n      revert\n        /* \"#utility.yul\":4112:4175   */\n    tag_319:\n        /* \"#utility.yul\":4059:4181   */\n      pop\n      jump\t// out\n        /* \"#utility.yul\":4187:4326   */\n    tag_217:\n        /* \"#utility.yul\":4233:4238   */\n      0x00\n        /* \"#utility.yul\":4271:4277   */\n      dup2\n        /* \"#utility.yul\":4258:4278   */\n      calldataload\n        /* \"#utility.yul\":4249:4278   */\n      swap1\n      pop\n        /* \"#utility.yul\":4287:4320   */\n      tag_321\n        /* \"#utility.yul\":4314:4319   */\n      dup2\n        /* \"#utility.yul\":4287:4320   */\n      tag_216\n      jump\t// in\n    tag_321:\n        /* \"#utility.yul\":4187:4326   */\n      swap3\n      swap2\n      pop\n      pop\n      jump\t// out\n        /* \"#utility.yul\":4332:4806   */\n    tag_39:\n        /* \"#utility.yul\":4400:4406   */\n      0x00\n        /* \"#utility.yul\":4408:4414   */\n      dup1\n        /* \"#utility.yul\":4457:4459   */\n      0x40\n        /* \"#utility.yul\":4445:4454   */\n      dup4\n        /* \"#utility.yul\":4436:4443   */\n      dup6\n        /* \"#utility.yul\":4432:4455   */\n      sub\n        /* \"#utility.yul\":4428:4460   */\n      slt\n        /* \"#utility.yul\":4425:4544   */\n      iszero\n      tag_323\n      jumpi\n        /* \"#utility.yul\":4463:4542   */\n      tag_324\n      tag_208\n      jump\t// in\n    tag_324:\n        /* \"#utility.yul\":4425:4544   */\n    tag_323:\n        /* \"#utility.yul\":4583:4584   */\n      0x00\n        /* \"#utility.yul\":4608:4661   */\n      tag_325\n        /* \"#utility.yul\":4653:4660   */\n      dup6\n        /* \"#utility.yul\":4644:4650   */\n      dup3\n        /* \"#utility.yul\":4633:4642   */\n      dup7\n        /* \"#utility.yul\":4629:4651   */\n      add\n        /* \"#utility.yul\":4608:4661   */\n      tag_217\n      jump\t// in\n    tag_325:\n        /* \"#utility.yul\":4598:4661   */\n      swap3\n      pop\n        /* \"#utility.yul\":4554:4671   */\n      pop\n        /* \"#utility.yul\":4710:4712   */\n      0x20\n        /* \"#utility.yul\":4736:4789   */\n      tag_326\n        /* \"#utility.yul\":4781:4788   */\n      dup6\n        /* \"#utility.yul\":4772:4778   */\n      dup3\n        /* \"#utility.yul\":4761:4770   */\n      dup7\n        /* \"#utility.yul\":4757:4779   */\n      add\n        /* \"#utility.yul\":4736:4789   */\n      tag_212\n      jump\t// in\n    tag_326:\n        /* \"#utility.yul\":4726:4789   */\n      swap2\n      pop\n        /* \"#utility.yul\":4681:4799   */\n      pop\n        /* \"#utility.yul\":4332:4806   */\n      swap3\n      pop\n      swap3\n      swap1\n      pop\n      jump\t// out\n        /* \"#utility.yul\":4812:4929   */\n    tag_218:\n        /* \"#utility.yul\":4921:4922   */\n      0x00\n        /* \"#utility.yul\":4918:4919   */\n      dup1\n        /* \"#utility.yul\":4911:4923   */\n      revert\n        /* \"#utility.yul\":4935:5037   */\n    tag_219:\n        /* \"#utility.yul\":4976:4982   */\n      0x00\n        /* \"#utility.yul\":5027:5029   */\n      0x1f\n        /* \"#utility.yul\":5023:5030   */\n      not\n        /* \"#utility.yul\":5018:5020   */\n      0x1f\n        /* \"#utility.yul\":5011:5016   */\n      dup4\n        /* \"#utility.yul\":5007:5021   */\n      add\n        /* \"#utility.yul\":5003:5031   */\n      and\n        /* \"#utility.yul\":4993:5031   */\n      swap1\n      pop\n        /* \"#utility.yul\":4935:5037   */\n      swap2\n      swap1\n      pop\n      jump\t// out\n        /* \"#utility.yul\":5043:5223   */\n    tag_220:\n        /* \"#utility.yul\":5091:5168   */\n      0x4e487b7100000000000000000000000000000000000000000000000000000000\n        /* \"#utility.yul\":5088:5089   */\n      0x00\n        /* \"#utility.yul\":5081:5169   */\n      mstore\n        /* \"#utility.yul\":5188:5192   */\n      0x41\n        /* \"#utility.yul\":5185:5186   */\n      0x04\n        /* \"#utility.yul\":5178:5193   */\n      mstore\n        /* \"#utility.yul\":5212:5216   */\n      0x24\n        /* \"#utility.yul\":5209:5210   */\n      0x00\n        /* \"#utility.yul\":5202:5217   */\n      revert\n        /* \"#utility.yul\":5229:5510   */\n    tag_221:\n        /* \"#utility.yul\":5312:5339   */\n      tag_331\n        /* \"#utility.yul\":5334:5338   */\n      dup3\n        /* \"#utility.yul\":5312:5339   */\n      tag_219\n      jump\t// in\n    tag_331:\n        /* \"#utility.yul\":5304:5310   */\n      dup2\n        /* \"#utility.yul\":5300:5340   */\n      add\n        /* \"#utility.yul\":5442:5448   */\n      dup2\n        /* \"#utility.yul\":5430:5440   */\n      dup2\n        /* \"#utility.yul\":5427:5449   */\n      lt\n        /* \"#utility.yul\":5406:5424   */\n      0xffffffffffffffff\n        /* \"#utility.yul\":5394:5404   */\n      dup3\n        /* \"#utility.yul\":5391:5425   */\n      gt\n        /* \"#utility.yul\":5388:5450   */\n      or\n        /* \"#utility.yul\":5385:5473   */\n      iszero\n      tag_332\n      jumpi\n        /* \"#utility.yul\":5453:5471   */\n      tag_333\n      tag_220\n      jump\t// in\n    tag_333:\n        /* \"#utility.yul\":5385:5473   */\n    tag_332:\n        /* \"#utility.yul\":5493:5503   */\n      dup1\n        /* \"#utility.yul\":5489:5491   */\n      0x40\n        /* \"#utility.yul\":5482:5504   */\n      mstore\n        /* \"#utility.yul\":5272:5510   */\n      pop\n        /* \"#utility.yul\":5229:5510   */\n      pop\n      pop\n      jump\t// out\n        /* \"#utility.yul\":5516:5645   */\n    tag_222:\n        /* \"#utility.yul\":5550:5556   */\n      0x00\n        /* \"#utility.yul\":5577:5597   */\n      tag_335\n      tag_207\n      jump\t// in\n    tag_335:\n        /* \"#utility.yul\":5567:5597   */\n      swap1\n      pop\n        /* \"#utility.yul\":5606:5639   */\n      tag_336\n        /* \"#utility.yul\":5634:5638   */\n      dup3\n        /* \"#utility.yul\":5626:5632   */\n      dup3\n        /* \"#utility.yul\":5606:5639   */\n      tag_221\n      jump\t// in\n    tag_336:\n        /* \"#utility.yul\":5516:5645   */\n      swap2\n      swap1\n      pop\n      jump\t// out\n        /* \"#utility.yul\":5651:5962   */\n    tag_223:\n        /* \"#utility.yul\":5728:5732   */\n      0x00\n        /* \"#utility.yul\":5818:5836   */\n      0xffffffffffffffff\n        /* \"#utility.yul\":5810:5816   */\n      dup3\n        /* \"#utility.yul\":5807:5837   */\n      gt\n        /* \"#utility.yul\":5804:5860   */\n      iszero\n      tag_338\n      jumpi\n        /* \"#utility.yul\":5840:5858   */\n      tag_339\n      tag_220\n      jump\t// in\n    tag_339:\n        /* \"#utility.yul\":5804:5860   */\n    tag_338:\n        /* \"#utility.yul\":5890:5894   */\n      0x20\n        /* \"#utility.yul\":5882:5888   */\n      dup3\n        /* \"#utility.yul\":5878:5895   */\n      mul\n        /* \"#utility.yul\":5870:5895   */\n      swap1\n      pop\n        /* \"#utility.yul\":5950:5954   */\n      0x20\n        /* \"#utility.yul\":5944:5948   */\n      dup2\n        /* \"#utility.yul\":5940:5955   */\n      add\n        /* \"#utility.yul\":5932:5955   */\n      swap1\n      pop\n        /* \"#utility.yul\":5651:5962   */\n      swap2\n      swap1\n      pop\n      jump\t// out\n        /* \"#utility.yul\":5968:6085   */\n    tag_224:\n        /* \"#utility.yul\":6077:6078   */\n      0x00\n        /* \"#utility.yul\":6074:6075   */\n      dup1\n        /* \"#utility.yul\":6067:6079   */\n      revert\n        /* \"#utility.yul\":6091:6213   */\n    tag_225:\n        /* \"#utility.yul\":6164:6188   */\n      tag_342\n        /* \"#utility.yul\":6182:6187   */\n      dup2\n        /* \"#utility.yul\":6164:6188   */\n      tag_202\n      jump\t// in\n    tag_342:\n        /* \"#utility.yul\":6157:6162   */\n      dup2\n        /* \"#utility.yul\":6154:6189   */\n      eq\n        /* \"#utility.yul\":6144:6207   */\n      tag_343\n      jumpi\n        /* \"#utility.yul\":6203:6204   */\n      0x00\n        /* \"#utility.yul\":6200:6201   */\n      dup1\n        /* \"#utility.yul\":6193:6205   */\n      revert\n        /* \"#utility.yul\":6144:6207   */\n    tag_343:\n        /* \"#utility.yul\":6091:6213   */\n      pop\n      jump\t// out\n        /* \"#utility.yul\":6219:6358   */\n    tag_226:\n        /* \"#utility.yul\":6265:6270   */\n      0x00\n        /* \"#utility.yul\":6303:6309   */\n      dup2\n        /* \"#utility.yul\":6290:6310   */\n      calldataload\n        /* \"#utility.yul\":6281:6310   */\n      swap1\n      pop\n        /* \"#utility.yul\":6319:6352   */\n      tag_345\n        /* \"#utility.yul\":6346:6351   */\n      dup2\n        /* \"#utility.yul\":6319:6352   */\n      tag_225\n      jump\t// in\n    tag_345:\n        /* \"#utility.yul\":6219:6358   */\n      swap3\n      swap2\n      pop\n      pop\n      jump\t// out\n        /* \"#utility.yul\":6381:7091   */\n    tag_227:\n        /* \"#utility.yul\":6477:6482   */\n      0x00\n        /* \"#utility.yul\":6502:6583   */\n      tag_347\n        /* \"#utility.yul\":6518:6582   */\n      tag_348\n        /* \"#utility.yul\":6575:6581   */\n      dup5\n        /* \"#utility.yul\":6518:6582   */\n      tag_223\n      jump\t// in\n    tag_348:\n        /* \"#utility.yul\":6502:6583   */\n      tag_222\n      jump\t// in\n    tag_347:\n        /* \"#utility.yul\":6493:6583   */\n      swap1\n      pop\n        /* \"#utility.yul\":6603:6608   */\n      dup1\n        /* \"#utility.yul\":6632:6638   */\n      dup4\n        /* \"#utility.yul\":6625:6630   */\n      dup3\n        /* \"#utility.yul\":6618:6639   */\n      mstore\n        /* \"#utility.yul\":6666:6670   */\n      0x20\n        /* \"#utility.yul\":6659:6664   */\n      dup3\n        /* \"#utility.yul\":6655:6671   */\n      add\n        /* \"#utility.yul\":6648:6671   */\n      swap1\n      pop\n        /* \"#utility.yul\":6719:6723   */\n      0x20\n        /* \"#utility.yul\":6711:6717   */\n      dup5\n        /* \"#utility.yul\":6707:6724   */\n      mul\n        /* \"#utility.yul\":6699:6705   */\n      dup4\n        /* \"#utility.yul\":6695:6725   */\n      add\n        /* \"#utility.yul\":6748:6751   */\n      dup6\n        /* \"#utility.yul\":6740:6746   */\n      dup2\n        /* \"#utility.yul\":6737:6752   */\n      gt\n        /* \"#utility.yul\":6734:6856   */\n      iszero\n      tag_349\n      jumpi\n        /* \"#utility.yul\":6767:6846   */\n      tag_350\n      tag_224\n      jump\t// in\n    tag_350:\n        /* \"#utility.yul\":6734:6856   */\n    tag_349:\n        /* \"#utility.yul\":6882:6888   */\n      dup4\n        /* \"#utility.yul\":6865:7085   */\n    tag_351:\n        /* \"#utility.yul\":6899:6905   */\n      dup2\n        /* \"#utility.yul\":6894:6897   */\n      dup2\n        /* \"#utility.yul\":6891:6906   */\n      lt\n        /* \"#utility.yul\":6865:7085   */\n      iszero\n      tag_353\n      jumpi\n        /* \"#utility.yul\":6974:6977   */\n      dup1\n        /* \"#utility.yul\":7003:7040   */\n      tag_354\n        /* \"#utility.yul\":7036:7039   */\n      dup9\n        /* \"#utility.yul\":7024:7034   */\n      dup3\n        /* \"#utility.yul\":7003:7040   */\n      tag_226\n      jump\t// in\n    tag_354:\n        /* \"#utility.yul\":6998:7001   */\n      dup5\n        /* \"#utility.yul\":6991:7041   */\n      mstore\n        /* \"#utility.yul\":7070:7074   */\n      0x20\n        /* \"#utility.yul\":7065:7068   */\n      dup5\n        /* \"#utility.yul\":7061:7075   */\n      add\n        /* \"#utility.yul\":7054:7075   */\n      swap4\n      pop\n        /* \"#utility.yul\":6941:7085   */\n      pop\n        /* \"#utility.yul\":6925:6929   */\n      0x20\n        /* \"#utility.yul\":6920:6923   */\n      dup2\n        /* \"#utility.yul\":6916:6930   */\n      add\n        /* \"#utility.yul\":6909:6930   */\n      swap1\n      pop\n        /* \"#utility.yul\":6865:7085   */\n      jump(tag_351)\n    tag_353:\n        /* \"#utility.yul\":6869:6890   */\n      pop\n        /* \"#utility.yul\":6483:7091   */\n      pop\n      pop\n        /* \"#utility.yul\":6381:7091   */\n      swap4\n      swap3\n      pop\n      pop\n      pop\n      jump\t// out\n        /* \"#utility.yul\":7114:7484   */\n    tag_228:\n        /* \"#utility.yul\":7185:7190   */\n      0x00\n        /* \"#utility.yul\":7234:7237   */\n      dup3\n        /* \"#utility.yul\":7227:7231   */\n      0x1f\n        /* \"#utility.yul\":7219:7225   */\n      dup4\n        /* \"#utility.yul\":7215:7232   */\n      add\n        /* \"#utility.yul\":7211:7238   */\n      slt\n        /* \"#utility.yul\":7201:7323   */\n      tag_356\n      jumpi\n        /* \"#utility.yul\":7242:7321   */\n      tag_357\n      tag_218\n      jump\t// in\n    tag_357:\n        /* \"#utility.yul\":7201:7323   */\n    tag_356:\n        /* \"#utility.yul\":7359:7365   */\n      dup2\n        /* \"#utility.yul\":7346:7366   */\n      calldataload\n        /* \"#utility.yul\":7384:7478   */\n      tag_358\n        /* \"#utility.yul\":7474:7477   */\n      dup5\n        /* \"#utility.yul\":7466:7472   */\n      dup3\n        /* \"#utility.yul\":7459:7463   */\n      0x20\n        /* \"#utility.yul\":7451:7457   */\n      dup7\n        /* \"#utility.yul\":7447:7464   */\n      add\n        /* \"#utility.yul\":7384:7478   */\n      tag_227\n      jump\t// in\n    tag_358:\n        /* \"#utility.yul\":7375:7478   */\n      swap2\n      pop\n        /* \"#utility.yul\":7191:7484   */\n      pop\n        /* \"#utility.yul\":7114:7484   */\n      swap3\n      swap2\n      pop\n      pop\n      jump\t// out\n        /* \"#utility.yul\":7490:8029   */\n    tag_43:\n        /* \"#utility.yul\":7574:7580   */\n      0x00\n        /* \"#utility.yul\":7623:7625   */\n      0x20\n        /* \"#utility.yul\":7611:7620   */\n      dup3\n        /* \"#utility.yul\":7602:7609   */\n      dup5\n        /* \"#utility.yul\":7598:7621   */\n      sub\n        /* \"#utility.yul\":7594:7626   */\n      slt\n        /* \"#utility.yul\":7591:7710   */\n      iszero\n      tag_360\n      jumpi\n        /* \"#utility.yul\":7629:7708   */\n      tag_361\n      tag_208\n      jump\t// in\n    tag_361:\n        /* \"#utility.yul\":7591:7710   */\n    tag_360:\n        /* \"#utility.yul\":7777:7778   */\n      0x00\n        /* \"#utility.yul\":7766:7775   */\n      dup3\n        /* \"#utility.yul\":7762:7779   */\n      add\n        /* \"#utility.yul\":7749:7780   */\n      calldataload\n        /* \"#utility.yul\":7807:7825   */\n      0xffffffffffffffff\n        /* \"#utility.yul\":7799:7805   */\n      dup2\n        /* \"#utility.yul\":7796:7826   */\n      gt\n        /* \"#utility.yul\":7793:7910   */\n      iszero\n      tag_362\n      jumpi\n        /* \"#utility.yul\":7829:7908   */\n      tag_363\n      tag_209\n      jump\t// in\n    tag_363:\n        /* \"#utility.yul\":7793:7910   */\n    tag_362:\n        /* \"#utility.yul\":7934:8012   */\n      tag_364\n        /* \"#utility.yul\":8004:8011   */\n      dup5\n        /* \"#utility.yul\":7995:8001   */\n      dup3\n        /* \"#utility.yul\":7984:7993   */\n      dup6\n        /* \"#utility.yul\":7980:8002   */\n      add\n        /* \"#utility.yul\":7934:8012   */\n      tag_228\n      jump\t// in\n    tag_364:\n        /* \"#utility.yul\":7924:8012   */\n      swap2\n      pop\n        /* \"#utility.yul\":7720:8022   */\n      pop\n        /* \"#utility.yul\":7490:8029   */\n      swap3\n      swap2\n      pop\n      pop\n      jump\t// out\n        /* \"#utility.yul\":8035:8125   */\n    tag_229:\n        /* \"#utility.yul\":8069:8076   */\n      0x00\n        /* \"#utility.yul\":8112:8117   */\n      dup2\n        /* \"#utility.yul\":8105:8118   */\n      iszero\n        /* \"#utility.yul\":8098:8119   */\n      iszero\n        /* \"#utility.yul\":8087:8119   */\n      swap1\n      pop\n        /* \"#utility.yul\":8035:8125   */\n      swap2\n      swap1\n      pop\n      jump\t// out\n        /* \"#utility.yul\":8131:8240   */\n    tag_230:\n        /* \"#utility.yul\":8212:8233   */\n      tag_367\n        /* \"#utility.yul\":8227:8232   */\n      dup2\n        /* \"#utility.yul\":8212:8233   */\n      tag_229\n      jump\t// in\n    tag_367:\n        /* \"#utility.yul\":8207:8210   */\n      dup3\n        /* \"#utility.yul\":8200:8234   */\n      mstore\n        /* \"#utility.yul\":8131:8240   */\n      pop\n      pop\n      jump\t// out\n        /* \"#utility.yul\":8246:8456   */\n    tag_57:\n        /* \"#utility.yul\":8333:8337   */\n      0x00\n        /* \"#utility.yul\":8371:8373   */\n      0x20\n        /* \"#utility.yul\":8360:8369   */\n      dup3\n        /* \"#utility.yul\":8356:8374   */\n      add\n        /* \"#utility.yul\":8348:8374   */\n      swap1\n      pop\n        /* \"#utility.yul\":8384:8449   */\n      tag_369\n        /* \"#utility.yul\":8446:8447   */\n      0x00\n        /* \"#utility.yul\":8435:8444   */\n      dup4\n        /* \"#utility.yul\":8431:8448   */\n      add\n        /* \"#utility.yul\":8422:8428   */\n      dup5\n        /* \"#utility.yul\":8384:8449   */\n      tag_230\n      jump\t// in\n    tag_369:\n        /* \"#utility.yul\":8246:8456   */\n      swap3\n      swap2\n      pop\n      pop\n      jump\t// out\n        /* \"#utility.yul\":8462:8580   */\n    tag_231:\n        /* \"#utility.yul\":8549:8573   */\n      tag_371\n        /* \"#utility.yul\":8567:8572   */\n      dup2\n        /* \"#utility.yul\":8549:8573   */\n      tag_215\n      jump\t// in\n    tag_371:\n        /* \"#utility.yul\":8544:8547   */\n      dup3\n        /* \"#utility.yul\":8537:8574   */\n      mstore\n        /* \"#utility.yul\":8462:8580   */\n      pop\n      pop\n      jump\t// out\n        /* \"#utility.yul\":8586:8808   */\n    tag_64:\n        /* \"#utility.yul\":8679:8683   */\n      0x00\n        /* \"#utility.yul\":8717:8719   */\n      0x20\n        /* \"#utility.yul\":8706:8715   */\n      dup3\n        /* \"#utility.yul\":8702:8720   */\n      add\n        /* \"#utility.yul\":8694:8720   */\n      swap1\n      pop\n        /* \"#utility.yul\":8730:8801   */\n      tag_373\n        /* \"#utility.yul\":8798:8799   */\n      0x00\n        /* \"#utility.yul\":8787:8796   */\n      dup4\n        /* \"#utility.yul\":8783:8800   */\n      add\n        /* \"#utility.yul\":8774:8780   */\n      dup5\n        /* \"#utility.yul\":8730:8801   */\n      tag_231\n      jump\t// in\n    tag_373:\n        /* \"#utility.yul\":8586:8808   */\n      swap3\n      swap2\n      pop\n      pop\n      jump\t// out\n        /* \"#utility.yul\":8814:8983   */\n    tag_232:\n        /* \"#utility.yul\":8898:8909   */\n      0x00\n        /* \"#utility.yul\":8932:8938   */\n      dup3\n        /* \"#utility.yul\":8927:8930   */\n      dup3\n        /* \"#utility.yul\":8920:8939   */\n      mstore\n        /* \"#utility.yul\":8972:8976   */\n      0x20\n        /* \"#utility.yul\":8967:8970   */\n      dup3\n        /* \"#utility.yul\":8963:8977   */\n      add\n        /* \"#utility.yul\":8948:8977   */\n      swap1\n      pop\n        /* \"#utility.yul\":8814:8983   */\n      swap3\n      swap2\n      pop\n      pop\n      jump\t// out\n        /* \"#utility.yul\":8989:9167   */\n    tag_233:\n        /* \"#utility.yul\":9129:9159   */\n      0x4f6e6c79206f776e65722063616e207769746864726177204c494e4b00000000\n        /* \"#utility.yul\":9125:9126   */\n      0x00\n        /* \"#utility.yul\":9117:9123   */\n      dup3\n        /* \"#utility.yul\":9113:9127   */\n      add\n        /* \"#utility.yul\":9106:9160   */\n      mstore\n        /* \"#utility.yul\":8989:9167   */\n      pop\n      jump\t// out\n        /* \"#utility.yul\":9173:9539   */\n    tag_234:\n        /* \"#utility.yul\":9315:9318   */\n      0x00\n        /* \"#utility.yul\":9336:9403   */\n      tag_377\n        /* \"#utility.yul\":9400:9402   */\n      0x1c\n        /* \"#utility.yul\":9395:9398   */\n      dup4\n        /* \"#utility.yul\":9336:9403   */\n      tag_232\n      jump\t// in\n    tag_377:\n        /* \"#utility.yul\":9329:9403   */\n      swap2\n      pop\n        /* \"#utility.yul\":9412:9505   */\n      tag_378\n        /* \"#utility.yul\":9501:9504   */\n      dup3\n        /* \"#utility.yul\":9412:9505   */\n      tag_233\n      jump\t// in\n    tag_378:\n        /* \"#utility.yul\":9530:9532   */\n      0x20\n        /* \"#utility.yul\":9525:9528   */\n      dup3\n        /* \"#utility.yul\":9521:9533   */\n      add\n        /* \"#utility.yul\":9514:9533   */\n      swap1\n      pop\n        /* \"#utility.yul\":9173:9539   */\n      swap2\n      swap1\n      pop\n      jump\t// out\n        /* \"#utility.yul\":9545:9964   */\n    tag_73:\n        /* \"#utility.yul\":9711:9715   */\n      0x00\n        /* \"#utility.yul\":9749:9751   */\n      0x20\n        /* \"#utility.yul\":9738:9747   */\n      dup3\n        /* \"#utility.yul\":9734:9752   */\n      add\n        /* \"#utility.yul\":9726:9752   */\n      swap1\n      pop\n        /* \"#utility.yul\":9798:9807   */\n      dup2\n        /* \"#utility.yul\":9792:9796   */\n      dup2\n        /* \"#utility.yul\":9788:9808   */\n      sub\n        /* \"#utility.yul\":9784:9785   */\n      0x00\n        /* \"#utility.yul\":9773:9782   */\n      dup4\n        /* \"#utility.yul\":9769:9786   */\n      add\n        /* \"#utility.yul\":9762:9809   */\n      mstore\n        /* \"#utility.yul\":9826:9957   */\n      tag_380\n        /* \"#utility.yul\":9952:9956   */\n      dup2\n        /* \"#utility.yul\":9826:9957   */\n      tag_234\n      jump\t// in\n    tag_380:\n        /* \"#utility.yul\":9818:9957   */\n      swap1\n      pop\n        /* \"#utility.yul\":9545:9964   */\n      swap2\n      swap1\n      pop\n      jump\t// out\n        /* \"#utility.yul\":9970:10113   */\n    tag_235:\n        /* \"#utility.yul\":10027:10032   */\n      0x00\n        /* \"#utility.yul\":10058:10064   */\n      dup2\n        /* \"#utility.yul\":10052:10065   */\n      mload\n        /* \"#utility.yul\":10043:10065   */\n      swap1\n      pop\n        /* \"#utility.yul\":10074:10107   */\n      tag_382\n        /* \"#utility.yul\":10101:10106   */\n      dup2\n        /* \"#utility.yul\":10074:10107   */\n      tag_211\n      jump\t// in\n    tag_382:\n        /* \"#utility.yul\":9970:10113   */\n      swap3\n      swap2\n      pop\n      pop\n      jump\t// out\n        /* \"#utility.yul\":10119:10470   */\n    tag_78:\n        /* \"#utility.yul\":10189:10195   */\n      0x00\n        /* \"#utility.yul\":10238:10240   */\n      0x20\n        /* \"#utility.yul\":10226:10235   */\n      dup3\n        /* \"#utility.yul\":10217:10224   */\n      dup5\n        /* \"#utility.yul\":10213:10236   */\n      sub\n        /* \"#utility.yul\":10209:10241   */\n      slt\n        /* \"#utility.yul\":10206:10325   */\n      iszero\n      tag_384\n      jumpi\n        /* \"#utility.yul\":10244:10323   */\n      tag_385\n      tag_208\n      jump\t// in\n    tag_385:\n        /* \"#utility.yul\":10206:10325   */\n    tag_384:\n        /* \"#utility.yul\":10364:10365   */\n      0x00\n        /* \"#utility.yul\":10389:10453   */\n      tag_386\n        /* \"#utility.yul\":10445:10452   */\n      dup5\n        /* \"#utility.yul\":10436:10442   */\n      dup3\n        /* \"#utility.yul\":10425:10434   */\n      dup6\n        /* \"#utility.yul\":10421:10443   */\n      add\n        /* \"#utility.yul\":10389:10453   */\n      tag_235\n      jump\t// in\n    tag_386:\n        /* \"#utility.yul\":10379:10453   */\n      swap2\n      pop\n        /* \"#utility.yul\":10335:10463   */\n      pop\n        /* \"#utility.yul\":10119:10470   */\n      swap3\n      swap2\n      pop\n      pop\n      jump\t// out\n        /* \"#utility.yul\":10476:10808   */\n    tag_80:\n        /* \"#utility.yul\":10597:10601   */\n      0x00\n        /* \"#utility.yul\":10635:10637   */\n      0x40\n        /* \"#utility.yul\":10624:10633   */\n      dup3\n        /* \"#utility.yul\":10620:10638   */\n      add\n        /* \"#utility.yul\":10612:10638   */\n      swap1\n      pop\n        /* \"#utility.yul\":10648:10719   */\n      tag_388\n        /* \"#utility.yul\":10716:10717   */\n      0x00\n        /* \"#utility.yul\":10705:10714   */\n      dup4\n        /* \"#utility.yul\":10701:10718   */\n      add\n        /* \"#utility.yul\":10692:10698   */\n      dup6\n        /* \"#utility.yul\":10648:10719   */\n      tag_213\n      jump\t// in\n    tag_388:\n        /* \"#utility.yul\":10729:10801   */\n      tag_389\n        /* \"#utility.yul\":10797:10799   */\n      0x20\n        /* \"#utility.yul\":10786:10795   */\n      dup4\n        /* \"#utility.yul\":10782:10800   */\n      add\n        /* \"#utility.yul\":10773:10779   */\n      dup5\n        /* \"#utility.yul\":10729:10801   */\n      tag_214\n      jump\t// in\n    tag_389:\n        /* \"#utility.yul\":10476:10808   */\n      swap4\n      swap3\n      pop\n      pop\n      pop\n      jump\t// out\n        /* \"#utility.yul\":10814:10930   */\n    tag_236:\n        /* \"#utility.yul\":10884:10905   */\n      tag_391\n        /* \"#utility.yul\":10899:10904   */\n      dup2\n        /* \"#utility.yul\":10884:10905   */\n      tag_229\n      jump\t// in\n    tag_391:\n        /* \"#utility.yul\":10877:10882   */\n      dup2\n        /* \"#utility.yul\":10874:10906   */\n      eq\n        /* \"#utility.yul\":10864:10924   */\n      tag_392\n      jumpi\n        /* \"#utility.yul\":10920:10921   */\n      0x00\n        /* \"#utility.yul\":10917:10918   */\n      dup1\n        /* \"#utility.yul\":10910:10922   */\n      revert\n        /* \"#utility.yul\":10864:10924   */\n    tag_392:\n        /* \"#utility.yul\":10814:10930   */\n      pop\n      jump\t// out\n        /* \"#utility.yul\":10936:11073   */\n    tag_237:\n        /* \"#utility.yul\":10990:10995   */\n      0x00\n        /* \"#utility.yul\":11021:11027   */\n      dup2\n        /* \"#utility.yul\":11015:11028   */\n      mload\n        /* \"#utility.yul\":11006:11028   */\n      swap1\n      pop\n        /* \"#utility.yul\":11037:11067   */\n      tag_394\n        /* \"#utility.yul\":11061:11066   */\n      dup2\n        /* \"#utility.yul\":11037:11067   */\n      tag_236\n      jump\t// in\n    tag_394:\n        /* \"#utility.yul\":10936:11073   */\n      swap3\n      swap2\n      pop\n      pop\n      jump\t// out\n        /* \"#utility.yul\":11079:11424   */\n    tag_84:\n        /* \"#utility.yul\":11146:11152   */\n      0x00\n        /* \"#utility.yul\":11195:11197   */\n      0x20\n        /* \"#utility.yul\":11183:11192   */\n      dup3\n        /* \"#utility.yul\":11174:11181   */\n      dup5\n        /* \"#utility.yul\":11170:11193   */\n      sub\n        /* \"#utility.yul\":11166:11198   */\n      slt\n        /* \"#utility.yul\":11163:11282   */\n      iszero\n      tag_396\n      jumpi\n        /* \"#utility.yul\":11201:11280   */\n      tag_397\n      tag_208\n      jump\t// in\n    tag_397:\n        /* \"#utility.yul\":11163:11282   */\n    tag_396:\n        /* \"#utility.yul\":11321:11322   */\n      0x00\n        /* \"#utility.yul\":11346:11407   */\n      tag_398\n        /* \"#utility.yul\":11399:11406   */\n      dup5\n        /* \"#utility.yul\":11390:11396   */\n      dup3\n        /* \"#utility.yul\":11379:11388   */\n      dup6\n        /* \"#utility.yul\":11375:11397   */\n      add\n        /* \"#utility.yul\":11346:11407   */\n      tag_237\n      jump\t// in\n    tag_398:\n        /* \"#utility.yul\":11336:11407   */\n      swap2\n      pop\n        /* \"#utility.yul\":11292:11417   */\n      pop\n        /* \"#utility.yul\":11079:11424   */\n      swap3\n      swap2\n      pop\n      pop\n      jump\t// out\n        /* \"#utility.yul\":11430:11598   */\n    tag_238:\n        /* \"#utility.yul\":11570:11590   */\n      0x556e61626c6520746f207472616e736665720000000000000000000000000000\n        /* \"#utility.yul\":11566:11567   */\n      0x00\n        /* \"#utility.yul\":11558:11564   */\n      dup3\n        /* \"#utility.yul\":11554:11568   */\n      add\n        /* \"#utility.yul\":11547:11591   */\n      mstore\n        /* \"#utility.yul\":11430:11598   */\n      pop\n      jump\t// out\n        /* \"#utility.yul\":11604:11970   */\n    tag_239:\n        /* \"#utility.yul\":11746:11749   */\n      0x00\n        /* \"#utility.yul\":11767:11834   */\n      tag_401\n        /* \"#utility.yul\":11831:11833   */\n      0x12\n        /* \"#utility.yul\":11826:11829   */\n      dup4\n        /* \"#utility.yul\":11767:11834   */\n      tag_232\n      jump\t// in\n    tag_401:\n        /* \"#utility.yul\":11760:11834   */\n      swap2\n      pop\n        /* \"#utility.yul\":11843:11936   */\n      tag_402\n        /* \"#utility.yul\":11932:11935   */\n      dup3\n        /* \"#utility.yul\":11843:11936   */\n      tag_238\n      jump\t// in\n    tag_402:\n        /* \"#utility.yul\":11961:11963   */\n      0x20\n        /* \"#utility.yul\":11956:11959   */\n      dup3\n        /* \"#utility.yul\":11952:11964   */\n      add\n        /* \"#utility.yul\":11945:11964   */\n      swap1\n      pop\n        /* \"#utility.yul\":11604:11970   */\n      swap2\n      swap1\n      pop\n      jump\t// out\n        /* \"#utility.yul\":11976:12395   */\n    tag_87:\n        /* \"#utility.yul\":12142:12146   */\n      0x00\n        /* \"#utility.yul\":12180:12182   */\n      0x20\n        /* \"#utility.yul\":12169:12178   */\n      dup3\n        /* \"#utility.yul\":12165:12183   */\n      add\n        /* \"#utility.yul\":12157:12183   */\n      swap1\n      pop\n        /* \"#utility.yul\":12229:12238   */\n      dup2\n        /* \"#utility.yul\":12223:12227   */\n      dup2\n        /* \"#utility.yul\":12219:12239   */\n      sub\n        /* \"#utility.yul\":12215:12216   */\n      0x00\n        /* \"#utility.yul\":12204:12213   */\n      dup4\n        /* \"#utility.yul\":12200:12217   */\n      add\n        /* \"#utility.yul\":12193:12240   */\n      mstore\n        /* \"#utility.yul\":12257:12388   */\n      tag_404\n        /* \"#utility.yul\":12383:12387   */\n      dup2\n        /* \"#utility.yul\":12257:12388   */\n      tag_239\n      jump\t// in\n    tag_404:\n        /* \"#utility.yul\":12249:12388   */\n      swap1\n      pop\n        /* \"#utility.yul\":11976:12395   */\n      swap2\n      swap1\n      pop\n      jump\t// out\n        /* \"#utility.yul\":12401:12582   */\n    tag_240:\n        /* \"#utility.yul\":12541:12574   */\n      0x4f6e6c7920565246436f6f7264696e61746f722063616e2066756c66696c6c00\n        /* \"#utility.yul\":12537:12538   */\n      0x00\n        /* \"#utility.yul\":12529:12535   */\n      dup3\n        /* \"#utility.yul\":12525:12539   */\n      add\n        /* \"#utility.yul\":12518:12575   */\n      mstore\n        /* \"#utility.yul\":12401:12582   */\n      pop\n      jump\t// out\n        /* \"#utility.yul\":12588:12954   */\n    tag_241:\n        /* \"#utility.yul\":12730:12733   */\n      0x00\n        /* \"#utility.yul\":12751:12818   */\n      tag_407\n        /* \"#utility.yul\":12815:12817   */\n      0x1f\n        /* \"#utility.yul\":12810:12813   */\n      dup4\n        /* \"#utility.yul\":12751:12818   */\n      tag_232\n      jump\t// in\n    tag_407:\n        /* \"#utility.yul\":12744:12818   */\n      swap2\n      pop\n        /* \"#utility.yul\":12827:12920   */\n      tag_408\n        /* \"#utility.yul\":12916:12919   */\n      dup3\n        /* \"#utility.yul\":12827:12920   */\n      tag_240\n      jump\t// in\n    tag_408:\n        /* \"#utility.yul\":12945:12947   */\n      0x20\n        /* \"#utility.yul\":12940:12943   */\n      dup3\n        /* \"#utility.yul\":12936:12948   */\n      add\n        /* \"#utility.yul\":12929:12948   */\n      swap1\n      pop\n        /* \"#utility.yul\":12588:12954   */\n      swap2\n      swap1\n      pop\n      jump\t// out\n        /* \"#utility.yul\":12960:13379   */\n    tag_95:\n        /* \"#utility.yul\":13126:13130   */\n      0x00\n        /* \"#utility.yul\":13164:13166   */\n      0x20\n        /* \"#utility.yul\":13153:13162   */\n      dup3\n        /* \"#utility.yul\":13149:13167   */\n      add\n        /* \"#utility.yul\":13141:13167   */\n      swap1\n      pop\n        /* \"#utility.yul\":13213:13222   */\n      dup2\n        /* \"#utility.yul\":13207:13211   */\n      dup2\n        /* \"#utility.yul\":13203:13223   */\n      sub\n        /* \"#utility.yul\":13199:13200   */\n      0x00\n        /* \"#utility.yul\":13188:13197   */\n      dup4\n        /* \"#utility.yul\":13184:13201   */\n      add\n        /* \"#utility.yul\":13177:13224   */\n      mstore\n        /* \"#utility.yul\":13241:13372   */\n      tag_410\n        /* \"#utility.yul\":13367:13371   */\n      dup2\n        /* \"#utility.yul\":13241:13372   */\n      tag_241\n      jump\t// in\n    tag_410:\n        /* \"#utility.yul\":13233:13372   */\n      swap1\n      pop\n        /* \"#utility.yul\":12960:13379   */\n      swap2\n      swap1\n      pop\n      jump\t// out\n        /* \"#utility.yul\":13385:13564   */\n    tag_242:\n        /* \"#utility.yul\":13525:13556   */\n      0x4f6e6c79206f776e65722063616e207365742063616e64696461746573000000\n        /* \"#utility.yul\":13521:13522   */\n      0x00\n        /* \"#utility.yul\":13513:13519   */\n      dup3\n        /* \"#utility.yul\":13509:13523   */\n      add\n        /* \"#utility.yul\":13502:13557   */\n      mstore\n        /* \"#utility.yul\":13385:13564   */\n      pop\n      jump\t// out\n        /* \"#utility.yul\":13570:13936   */\n    tag_243:\n        /* \"#utility.yul\":13712:13715   */\n      0x00\n        /* \"#utility.yul\":13733:13800   */\n      tag_413\n        /* \"#utility.yul\":13797:13799   */\n      0x1d\n        /* \"#utility.yul\":13792:13795   */\n      dup4\n        /* \"#utility.yul\":13733:13800   */\n      tag_232\n      jump\t// in\n    tag_413:\n        /* \"#utility.yul\":13726:13800   */\n      swap2\n      pop\n        /* \"#utility.yul\":13809:13902   */\n      tag_414\n        /* \"#utility.yul\":13898:13901   */\n      dup3\n        /* \"#utility.yul\":13809:13902   */\n      tag_242\n      jump\t// in\n    tag_414:\n        /* \"#utility.yul\":13927:13929   */\n      0x20\n        /* \"#utility.yul\":13922:13925   */\n      dup3\n        /* \"#utility.yul\":13918:13930   */\n      add\n        /* \"#utility.yul\":13911:13930   */\n      swap1\n      pop\n        /* \"#utility.yul\":13570:13936   */\n      swap2\n      swap1\n      pop\n      jump\t// out\n        /* \"#utility.yul\":13942:14361   */\n    tag_101:\n        /* \"#utility.yul\":14108:14112   */\n      0x00\n        /* \"#utility.yul\":14146:14148   */\n      0x20\n        /* \"#utility.yul\":14135:14144   */\n      dup3\n        /* \"#utility.yul\":14131:14149   */\n      add\n        /* \"#utility.yul\":14123:14149   */\n      swap1\n      pop\n        /* \"#utility.yul\":14195:14204   */\n      dup2\n        /* \"#utility.yul\":14189:14193   */\n      dup2\n        /* \"#utility.yul\":14185:14205   */\n      sub\n        /* \"#utility.yul\":14181:14182   */\n      0x00\n        /* \"#utility.yul\":14170:14179   */\n      dup4\n        /* \"#utility.yul\":14166:14183   */\n      add\n        /* \"#utility.yul\":14159:14206   */\n      mstore\n        /* \"#utility.yul\":14223:14354   */\n      tag_416\n        /* \"#utility.yul\":14349:14353   */\n      dup2\n        /* \"#utility.yul\":14223:14354   */\n      tag_243\n      jump\t// in\n    tag_416:\n        /* \"#utility.yul\":14215:14354   */\n      swap1\n      pop\n        /* \"#utility.yul\":13942:14361   */\n      swap2\n      swap1\n      pop\n      jump\t// out\n        /* \"#utility.yul\":14367:14545   */\n    tag_244:\n        /* \"#utility.yul\":14507:14537   */\n      0x447261772068617320616c7265616479206265656e20636c6f73656400000000\n        /* \"#utility.yul\":14503:14504   */\n      0x00\n        /* \"#utility.yul\":14495:14501   */\n      dup3\n        /* \"#utility.yul\":14491:14505   */\n      add\n        /* \"#utility.yul\":14484:14538   */\n      mstore\n        /* \"#utility.yul\":14367:14545   */\n      pop\n      jump\t// out\n        /* \"#utility.yul\":14551:14917   */\n    tag_245:\n        /* \"#utility.yul\":14693:14696   */\n      0x00\n        /* \"#utility.yul\":14714:14781   */\n      tag_419\n        /* \"#utility.yul\":14778:14780   */\n      0x1c\n        /* \"#utility.yul\":14773:14776   */\n      dup4\n        /* \"#utility.yul\":14714:14781   */\n      tag_232\n      jump\t// in\n    tag_419:\n        /* \"#utility.yul\":14707:14781   */\n      swap2\n      pop\n        /* \"#utility.yul\":14790:14883   */\n      tag_420\n        /* \"#utility.yul\":14879:14882   */\n      dup3\n        /* \"#utility.yul\":14790:14883   */\n      tag_244\n      jump\t// in\n    tag_420:\n        /* \"#utility.yul\":14908:14910   */\n      0x20\n        /* \"#utility.yul\":14903:14906   */\n      dup3\n        /* \"#utility.yul\":14899:14911   */\n      add\n        /* \"#utility.yul\":14892:14911   */\n      swap1\n      pop\n        /* \"#utility.yul\":14551:14917   */\n      swap2\n      swap1\n      pop\n      jump\t// out\n        /* \"#utility.yul\":14923:15342   */\n    tag_104:\n        /* \"#utility.yul\":15089:15093   */\n      0x00\n        /* \"#utility.yul\":15127:15129   */\n      0x20\n        /* \"#utility.yul\":15116:15125   */\n      dup3\n        /* \"#utility.yul\":15112:15130   */\n      add\n        /* \"#utility.yul\":15104:15130   */\n      swap1\n      pop\n        /* \"#utility.yul\":15176:15185   */\n      dup2\n        /* \"#utility.yul\":15170:15174   */\n      dup2\n        /* \"#utility.yul\":15166:15186   */\n      sub\n        /* \"#utility.yul\":15162:15163   */\n      0x00\n        /* \"#utility.yul\":15151:15160   */\n      dup4\n        /* \"#utility.yul\":15147:15164   */\n      add\n        /* \"#utility.yul\":15140:15187   */\n      mstore\n        /* \"#utility.yul\":15204:15335   */\n      tag_422\n        /* \"#utility.yul\":15330:15334   */\n      dup2\n        /* \"#utility.yul\":15204:15335   */\n      tag_245\n      jump\t// in\n    tag_422:\n        /* \"#utility.yul\":15196:15335   */\n      swap1\n      pop\n        /* \"#utility.yul\":14923:15342   */\n      swap2\n      swap1\n      pop\n      jump\t// out\n        /* \"#utility.yul\":15348:15523   */\n    tag_246:\n        /* \"#utility.yul\":15488:15515   */\n      0x4f6e6c79206f776e65722063616e20636c6f7365206472617700000000000000\n        /* \"#utility.yul\":15484:15485   */\n      0x00\n        /* \"#utility.yul\":15476:15482   */\n      dup3\n        /* \"#utility.yul\":15472:15486   */\n      add\n        /* \"#utility.yul\":15465:15516   */\n      mstore\n        /* \"#utility.yul\":15348:15523   */\n      pop\n      jump\t// out\n        /* \"#utility.yul\":15529:15895   */\n    tag_247:\n        /* \"#utility.yul\":15671:15674   */\n      0x00\n        /* \"#utility.yul\":15692:15759   */\n      tag_425\n        /* \"#utility.yul\":15756:15758   */\n      0x19\n        /* \"#utility.yul\":15751:15754   */\n      dup4\n        /* \"#utility.yul\":15692:15759   */\n      tag_232\n      jump\t// in\n    tag_425:\n        /* \"#utility.yul\":15685:15759   */\n      swap2\n      pop\n        /* \"#utility.yul\":15768:15861   */\n      tag_426\n        /* \"#utility.yul\":15857:15860   */\n      dup3\n        /* \"#utility.yul\":15768:15861   */\n      tag_246\n      jump\t// in\n    tag_426:\n        /* \"#utility.yul\":15886:15888   */\n      0x20\n        /* \"#utility.yul\":15881:15884   */\n      dup3\n        /* \"#utility.yul\":15877:15889   */\n      add\n        /* \"#utility.yul\":15870:15889   */\n      swap1\n      pop\n        /* \"#utility.yul\":15529:15895   */\n      swap2\n      swap1\n      pop\n      jump\t// out\n        /* \"#utility.yul\":15901:16320   */\n    tag_110:\n        /* \"#utility.yul\":16067:16071   */\n      0x00\n        /* \"#utility.yul\":16105:16107   */\n      0x20\n        /* \"#utility.yul\":16094:16103   */\n      dup3\n        /* \"#utility.yul\":16090:16108   */\n      add\n        /* \"#utility.yul\":16082:16108   */\n      swap1\n      pop\n        /* \"#utility.yul\":16154:16163   */\n      dup2\n        /* \"#utility.yul\":16148:16152   */\n      dup2\n        /* \"#utility.yul\":16144:16164   */\n      sub\n        /* \"#utility.yul\":16140:16141   */\n      0x00\n        /* \"#utility.yul\":16129:16138   */\n      dup4\n        /* \"#utility.yul\":16125:16142   */\n      add\n        /* \"#utility.yul\":16118:16165   */\n      mstore\n        /* \"#utility.yul\":16182:16313   */\n      tag_428\n        /* \"#utility.yul\":16308:16312   */\n      dup2\n        /* \"#utility.yul\":16182:16313   */\n      tag_247\n      jump\t// in\n    tag_428:\n        /* \"#utility.yul\":16174:16313   */\n      swap1\n      pop\n        /* \"#utility.yul\":15901:16320   */\n      swap2\n      swap1\n      pop\n      jump\t// out\n        /* \"#utility.yul\":16326:16552   */\n    tag_248:\n        /* \"#utility.yul\":16466:16500   */\n      0x4e6f7420656e6f7567682063616e6469646174657320746f2073656c65637420\n        /* \"#utility.yul\":16462:16463   */\n      0x00\n        /* \"#utility.yul\":16454:16460   */\n      dup3\n        /* \"#utility.yul\":16450:16464   */\n      add\n        /* \"#utility.yul\":16443:16501   */\n      mstore\n        /* \"#utility.yul\":16535:16544   */\n      0x77696e6e65727300000000000000000000000000000000000000000000000000\n        /* \"#utility.yul\":16530:16532   */\n      0x20\n        /* \"#utility.yul\":16522:16528   */\n      dup3\n        /* \"#utility.yul\":16518:16533   */\n      add\n        /* \"#utility.yul\":16511:16545   */\n      mstore\n        /* \"#utility.yul\":16326:16552   */\n      pop\n      jump\t// out\n        /* \"#utility.yul\":16558:16924   */\n    tag_249:\n        /* \"#utility.yul\":16700:16703   */\n      0x00\n        /* \"#utility.yul\":16721:16788   */\n      tag_431\n        /* \"#utility.yul\":16785:16787   */\n      0x27\n        /* \"#utility.yul\":16780:16783   */\n      dup4\n        /* \"#utility.yul\":16721:16788   */\n      tag_232\n      jump\t// in\n    tag_431:\n        /* \"#utility.yul\":16714:16788   */\n      swap2\n      pop\n        /* \"#utility.yul\":16797:16890   */\n      tag_432\n        /* \"#utility.yul\":16886:16889   */\n      dup3\n        /* \"#utility.yul\":16797:16890   */\n      tag_248\n      jump\t// in\n    tag_432:\n        /* \"#utility.yul\":16915:16917   */\n      0x40\n        /* \"#utility.yul\":16910:16913   */\n      dup3\n        /* \"#utility.yul\":16906:16918   */\n      add\n        /* \"#utility.yul\":16899:16918   */\n      swap1\n      pop\n        /* \"#utility.yul\":16558:16924   */\n      swap2\n      swap1\n      pop\n      jump\t// out\n        /* \"#utility.yul\":16930:17349   */\n    tag_113:\n        /* \"#utility.yul\":17096:17100   */\n      0x00\n        /* \"#utility.yul\":17134:17136   */\n      0x20\n        /* \"#utility.yul\":17123:17132   */\n      dup3\n        /* \"#utility.yul\":17119:17137   */\n      add\n        /* \"#utility.yul\":17111:17137   */\n      swap1\n      pop\n        /* \"#utility.yul\":17183:17192   */\n      dup2\n        /* \"#utility.yul\":17177:17181   */\n      dup2\n        /* \"#utility.yul\":17173:17193   */\n      sub\n        /* \"#utility.yul\":17169:17170   */\n      0x00\n        /* \"#utility.yul\":17158:17167   */\n      dup4\n        /* \"#utility.yul\":17154:17171   */\n      add\n        /* \"#utility.yul\":17147:17194   */\n      mstore\n        /* \"#utility.yul\":17211:17342   */\n      tag_434\n        /* \"#utility.yul\":17337:17341   */\n      dup2\n        /* \"#utility.yul\":17211:17342   */\n      tag_249\n      jump\t// in\n    tag_434:\n        /* \"#utility.yul\":17203:17342   */\n      swap1\n      pop\n        /* \"#utility.yul\":16930:17349   */\n      swap2\n      swap1\n      pop\n      jump\t// out\n        /* \"#utility.yul\":17355:17578   */\n    tag_250:\n        /* \"#utility.yul\":17495:17529   */\n      0x4f6e6c79206f776e65722063616e20736574206e756d626572206f662077696e\n        /* \"#utility.yul\":17491:17492   */\n      0x00\n        /* \"#utility.yul\":17483:17489   */\n      dup3\n        /* \"#utility.yul\":17479:17493   */\n      add\n        /* \"#utility.yul\":17472:17530   */\n      mstore\n        /* \"#utility.yul\":17564:17570   */\n      0x6e65727300000000000000000000000000000000000000000000000000000000\n        /* \"#utility.yul\":17559:17561   */\n      0x20\n        /* \"#utility.yul\":17551:17557   */\n      dup3\n        /* \"#utility.yul\":17547:17562   */\n      add\n        /* \"#utility.yul\":17540:17571   */\n      mstore\n        /* \"#utility.yul\":17355:17578   */\n      pop\n      jump\t// out\n        /* \"#utility.yul\":17584:17950   */\n    tag_251:\n        /* \"#utility.yul\":17726:17729   */\n      0x00\n        /* \"#utility.yul\":17747:17814   */\n      tag_437\n        /* \"#utility.yul\":17811:17813   */\n      0x24\n        /* \"#utility.yul\":17806:17809   */\n      dup4\n        /* \"#utility.yul\":17747:17814   */\n      tag_232\n      jump\t// in\n    tag_437:\n        /* \"#utility.yul\":17740:17814   */\n      swap2\n      pop\n        /* \"#utility.yul\":17823:17916   */\n      tag_438\n        /* \"#utility.yul\":17912:17915   */\n      dup3\n        /* \"#utility.yul\":17823:17916   */\n      tag_250\n      jump\t// in\n    tag_438:\n        /* \"#utility.yul\":17941:17943   */\n      0x40\n        /* \"#utility.yul\":17936:17939   */\n      dup3\n        /* \"#utility.yul\":17932:17944   */\n      add\n        /* \"#utility.yul\":17925:17944   */\n      swap1\n      pop\n        /* \"#utility.yul\":17584:17950   */\n      swap2\n      swap1\n      pop\n      jump\t// out\n        /* \"#utility.yul\":17956:18375   */\n    tag_119:\n        /* \"#utility.yul\":18122:18126   */\n      0x00\n        /* \"#utility.yul\":18160:18162   */\n      0x20\n        /* \"#utility.yul\":18149:18158   */\n      dup3\n        /* \"#utility.yul\":18145:18163   */\n      add\n        /* \"#utility.yul\":18137:18163   */\n      swap1\n      pop\n        /* \"#utility.yul\":18209:18218   */\n      dup2\n        /* \"#utility.yul\":18203:18207   */\n      dup2\n        /* \"#utility.yul\":18199:18219   */\n      sub\n        /* \"#utility.yul\":18195:18196   */\n      0x00\n        /* \"#utility.yul\":18184:18193   */\n      dup4\n        /* \"#utility.yul\":18180:18197   */\n      add\n        /* \"#utility.yul\":18173:18220   */\n      mstore\n        /* \"#utility.yul\":18237:18368   */\n      tag_440\n        /* \"#utility.yul\":18363:18367   */\n      dup2\n        /* \"#utility.yul\":18237:18368   */\n      tag_251\n      jump\t// in\n    tag_440:\n        /* \"#utility.yul\":18229:18368   */\n      swap1\n      pop\n        /* \"#utility.yul\":17956:18375   */\n      swap2\n      swap1\n      pop\n      jump\t// out\n        /* \"#utility.yul\":18381:18604   */\n    tag_252:\n        /* \"#utility.yul\":18521:18555   */\n      0x4f6e6c79206f776e65722063616e20726571756573742072616e646f6d206e75\n        /* \"#utility.yul\":18517:18518   */\n      0x00\n        /* \"#utility.yul\":18509:18515   */\n      dup3\n        /* \"#utility.yul\":18505:18519   */\n      add\n        /* \"#utility.yul\":18498:18556   */\n      mstore\n        /* \"#utility.yul\":18590:18596   */\n      0x6d62657200000000000000000000000000000000000000000000000000000000\n        /* \"#utility.yul\":18585:18587   */\n      0x20\n        /* \"#utility.yul\":18577:18583   */\n      dup3\n        /* \"#utility.yul\":18573:18588   */\n      add\n        /* \"#utility.yul\":18566:18597   */\n      mstore\n        /* \"#utility.yul\":18381:18604   */\n      pop\n      jump\t// out\n        /* \"#utility.yul\":18610:18976   */\n    tag_253:\n        /* \"#utility.yul\":18752:18755   */\n      0x00\n        /* \"#utility.yul\":18773:18840   */\n      tag_443\n        /* \"#utility.yul\":18837:18839   */\n      0x24\n        /* \"#utility.yul\":18832:18835   */\n      dup4\n        /* \"#utility.yul\":18773:18840   */\n      tag_232\n      jump\t// in\n    tag_443:\n        /* \"#utility.yul\":18766:18840   */\n      swap2\n      pop\n        /* \"#utility.yul\":18849:18942   */\n      tag_444\n        /* \"#utility.yul\":18938:18941   */\n      dup3\n        /* \"#utility.yul\":18849:18942   */\n      tag_252\n      jump\t// in\n    tag_444:\n        /* \"#utility.yul\":18967:18969   */\n      0x40\n        /* \"#utility.yul\":18962:18965   */\n      dup3\n        /* \"#utility.yul\":18958:18970   */\n      add\n        /* \"#utility.yul\":18951:18970   */\n      swap1\n      pop\n        /* \"#utility.yul\":18610:18976   */\n      swap2\n      swap1\n      pop\n      jump\t// out\n        /* \"#utility.yul\":18982:19401   */\n    tag_125:\n        /* \"#utility.yul\":19148:19152   */\n      0x00\n        /* \"#utility.yul\":19186:19188   */\n      0x20\n        /* \"#utility.yul\":19175:19184   */\n      dup3\n        /* \"#utility.yul\":19171:19189   */\n      add\n        /* \"#utility.yul\":19163:19189   */\n      swap1\n      pop\n        /* \"#utility.yul\":19235:19244   */\n      dup2\n        /* \"#utility.yul\":19229:19233   */\n      dup2\n        /* \"#utility.yul\":19225:19245   */\n      sub\n        /* \"#utility.yul\":19221:19222   */\n      0x00\n        /* \"#utility.yul\":19210:19219   */\n      dup4\n        /* \"#utility.yul\":19206:19223   */\n      add\n        /* \"#utility.yul\":19199:19246   */\n      mstore\n        /* \"#utility.yul\":19263:19394   */\n      tag_446\n        /* \"#utility.yul\":19389:19393   */\n      dup2\n        /* \"#utility.yul\":19263:19394   */\n      tag_253\n      jump\t// in\n    tag_446:\n        /* \"#utility.yul\":19255:19394   */\n      swap1\n      pop\n        /* \"#utility.yul\":18982:19401   */\n      swap2\n      swap1\n      pop\n      jump\t// out\n        /* \"#utility.yul\":19407:19575   */\n    tag_254:\n        /* \"#utility.yul\":19547:19567   */\n      0x44726177206973207374696c6c206f70656e0000000000000000000000000000\n        /* \"#utility.yul\":19543:19544   */\n      0x00\n        /* \"#utility.yul\":19535:19541   */\n      dup3\n        /* \"#utility.yul\":19531:19545   */\n      add\n        /* \"#utility.yul\":19524:19568   */\n      mstore\n        /* \"#utility.yul\":19407:19575   */\n      pop\n      jump\t// out\n        /* \"#utility.yul\":19581:19947   */\n    tag_255:\n        /* \"#utility.yul\":19723:19726   */\n      0x00\n        /* \"#utility.yul\":19744:19811   */\n      tag_449\n        /* \"#utility.yul\":19808:19810   */\n      0x12\n        /* \"#utility.yul\":19803:19806   */\n      dup4\n        /* \"#utility.yul\":19744:19811   */\n      tag_232\n      jump\t// in\n    tag_449:\n        /* \"#utility.yul\":19737:19811   */\n      swap2\n      pop\n        /* \"#utility.yul\":19820:19913   */\n      tag_450\n        /* \"#utility.yul\":19909:19912   */\n      dup3\n        /* \"#utility.yul\":19820:19913   */\n      tag_254\n      jump\t// in\n    tag_450:\n        /* \"#utility.yul\":19938:19940   */\n      0x20\n        /* \"#utility.yul\":19933:19936   */\n      dup3\n        /* \"#utility.yul\":19929:19941   */\n      add\n        /* \"#utility.yul\":19922:19941   */\n      swap1\n      pop\n        /* \"#utility.yul\":19581:19947   */\n      swap2\n      swap1\n      pop\n      jump\t// out\n        /* \"#utility.yul\":19953:20372   */\n    tag_128:\n        /* \"#utility.yul\":20119:20123   */\n      0x00\n        /* \"#utility.yul\":20157:20159   */\n      0x20\n        /* \"#utility.yul\":20146:20155   */\n      dup3\n        /* \"#utility.yul\":20142:20160   */\n      add\n        /* \"#utility.yul\":20134:20160   */\n      swap1\n      pop\n        /* \"#utility.yul\":20206:20215   */\n      dup2\n        /* \"#utility.yul\":20200:20204   */\n      dup2\n        /* \"#utility.yul\":20196:20216   */\n      sub\n        /* \"#utility.yul\":20192:20193   */\n      0x00\n        /* \"#utility.yul\":20181:20190   */\n      dup4\n        /* \"#utility.yul\":20177:20194   */\n      add\n        /* \"#utility.yul\":20170:20217   */\n      mstore\n        /* \"#utility.yul\":20234:20365   */\n      tag_452\n        /* \"#utility.yul\":20360:20364   */\n      dup2\n        /* \"#utility.yul\":20234:20365   */\n      tag_255\n      jump\t// in\n    tag_452:\n        /* \"#utility.yul\":20226:20365   */\n      swap1\n      pop\n        /* \"#utility.yul\":19953:20372   */\n      swap2\n      swap1\n      pop\n      jump\t// out\n        /* \"#utility.yul\":20378:20599   */\n    tag_256:\n        /* \"#utility.yul\":20518:20552   */\n      0x4e6f7420656e6f756768204c494e4b20746f2066756c66696c6c207265717565\n        /* \"#utility.yul\":20514:20515   */\n      0x00\n        /* \"#utility.yul\":20506:20512   */\n      dup3\n        /* \"#utility.yul\":20502:20516   */\n      add\n        /* \"#utility.yul\":20495:20553   */\n      mstore\n        /* \"#utility.yul\":20587:20591   */\n      0x7374000000000000000000000000000000000000000000000000000000000000\n        /* \"#utility.yul\":20582:20584   */\n      0x20\n        /* \"#utility.yul\":20574:20580   */\n      dup3\n        /* \"#utility.yul\":20570:20585   */\n      add\n        /* \"#utility.yul\":20563:20592   */\n      mstore\n        /* \"#utility.yul\":20378:20599   */\n      pop\n      jump\t// out\n        /* \"#utility.yul\":20605:20971   */\n    tag_257:\n        /* \"#utility.yul\":20747:20750   */\n      0x00\n        /* \"#utility.yul\":20768:20835   */\n      tag_455\n        /* \"#utility.yul\":20832:20834   */\n      0x22\n        /* \"#utility.yul\":20827:20830   */\n      dup4\n        /* \"#utility.yul\":20768:20835   */\n      tag_232\n      jump\t// in\n    tag_455:\n        /* \"#utility.yul\":20761:20835   */\n      swap2\n      pop\n        /* \"#utility.yul\":20844:20937   */\n      tag_456\n        /* \"#utility.yul\":20933:20936   */\n      dup3\n        /* \"#utility.yul\":20844:20937   */\n      tag_256\n      jump\t// in\n    tag_456:\n        /* \"#utility.yul\":20962:20964   */\n      0x40\n        /* \"#utility.yul\":20957:20960   */\n      dup3\n        /* \"#utility.yul\":20953:20965   */\n      add\n        /* \"#utility.yul\":20946:20965   */\n      swap1\n      pop\n        /* \"#utility.yul\":20605:20971   */\n      swap2\n      swap1\n      pop\n      jump\t// out\n        /* \"#utility.yul\":20977:21396   */\n    tag_135:\n        /* \"#utility.yul\":21143:21147   */\n      0x00\n        /* \"#utility.yul\":21181:21183   */\n      0x20\n        /* \"#utility.yul\":21170:21179   */\n      dup3\n        /* \"#utility.yul\":21166:21184   */\n      add\n        /* \"#utility.yul\":21158:21184   */\n      swap1\n      pop\n        /* \"#utility.yul\":21230:21239   */\n      dup2\n        /* \"#utility.yul\":21224:21228   */\n      dup2\n        /* \"#utility.yul\":21220:21240   */\n      sub\n        /* \"#utility.yul\":21216:21217   */\n      0x00\n        /* \"#utility.yul\":21205:21214   */\n      dup4\n        /* \"#utility.yul\":21201:21218   */\n      add\n        /* \"#utility.yul\":21194:21241   */\n      mstore\n        /* \"#utility.yul\":21258:21389   */\n      tag_458\n        /* \"#utility.yul\":21384:21388   */\n      dup2\n        /* \"#utility.yul\":21258:21389   */\n      tag_257\n      jump\t// in\n    tag_458:\n        /* \"#utility.yul\":21250:21389   */\n      swap1\n      pop\n        /* \"#utility.yul\":20977:21396   */\n      swap2\n      swap1\n      pop\n      jump\t// out\n        /* \"#utility.yul\":21402:21632   */\n    tag_258:\n        /* \"#utility.yul\":21542:21576   */\n      0x4f6e6c792056524620636f6f7264696e61746f722063616e2066756c66696c6c\n        /* \"#utility.yul\":21538:21539   */\n      0x00\n        /* \"#utility.yul\":21530:21536   */\n      dup3\n        /* \"#utility.yul\":21526:21540   */\n      add\n        /* \"#utility.yul\":21519:21577   */\n      mstore\n        /* \"#utility.yul\":21611:21624   */\n      0x2072616e646f6d6e657373000000000000000000000000000000000000000000\n        /* \"#utility.yul\":21606:21608   */\n      0x20\n        /* \"#utility.yul\":21598:21604   */\n      dup3\n        /* \"#utility.yul\":21594:21609   */\n      add\n        /* \"#utility.yul\":21587:21625   */\n      mstore\n        /* \"#utility.yul\":21402:21632   */\n      pop\n      jump\t// out\n        /* \"#utility.yul\":21638:22004   */\n    tag_259:\n        /* \"#utility.yul\":21780:21783   */\n      0x00\n        /* \"#utility.yul\":21801:21868   */\n      tag_461\n        /* \"#utility.yul\":21865:21867   */\n      0x2b\n        /* \"#utility.yul\":21860:21863   */\n      dup4\n        /* \"#utility.yul\":21801:21868   */\n      tag_232\n      jump\t// in\n    tag_461:\n        /* \"#utility.yul\":21794:21868   */\n      swap2\n      pop\n        /* \"#utility.yul\":21877:21970   */\n      tag_462\n        /* \"#utility.yul\":21966:21969   */\n      dup3\n        /* \"#utility.yul\":21877:21970   */\n      tag_258\n      jump\t// in\n    tag_462:\n        /* \"#utility.yul\":21995:21997   */\n      0x40\n        /* \"#utility.yul\":21990:21993   */\n      dup3\n        /* \"#utility.yul\":21986:21998   */\n      add\n        /* \"#utility.yul\":21979:21998   */\n      swap1\n      pop\n        /* \"#utility.yul\":21638:22004   */\n      swap2\n      swap1\n      pop\n      jump\t// out\n        /* \"#utility.yul\":22010:22429   */\n    tag_141:\n        /* \"#utility.yul\":22176:22180   */\n      0x00\n        /* \"#utility.yul\":22214:22216   */\n      0x20\n        /* \"#utility.yul\":22203:22212   */\n      dup3\n        /* \"#utility.yul\":22199:22217   */\n      add\n        /* \"#utility.yul\":22191:22217   */\n      swap1\n      pop\n        /* \"#utility.yul\":22263:22272   */\n      dup2\n        /* \"#utility.yul\":22257:22261   */\n      dup2\n        /* \"#utility.yul\":22253:22273   */\n      sub\n        /* \"#utility.yul\":22249:22250   */\n      0x00\n        /* \"#utility.yul\":22238:22247   */\n      dup4\n        /* \"#utility.yul\":22234:22251   */\n      add\n        /* \"#utility.yul\":22227:22274   */\n      mstore\n        /* \"#utility.yul\":22291:22422   */\n      tag_464\n        /* \"#utility.yul\":22417:22421   */\n      dup2\n        /* \"#utility.yul\":22291:22422   */\n      tag_259\n      jump\t// in\n    tag_464:\n        /* \"#utility.yul\":22283:22422   */\n      swap1\n      pop\n        /* \"#utility.yul\":22010:22429   */\n      swap2\n      swap1\n      pop\n      jump\t// out\n        /* \"#utility.yul\":22435:22656   */\n    tag_260:\n        /* \"#utility.yul\":22575:22609   */\n      0x57696e6e657273206861766520616c7265616479206265656e2073656c656374\n        /* \"#utility.yul\":22571:22572   */\n      0x00\n        /* \"#utility.yul\":22563:22569   */\n      dup3\n        /* \"#utility.yul\":22559:22573   */\n      add\n        /* \"#utility.yul\":22552:22610   */\n      mstore\n        /* \"#utility.yul\":22644:22648   */\n      0x6564000000000000000000000000000000000000000000000000000000000000\n        /* \"#utility.yul\":22639:22641   */\n      0x20\n        /* \"#utility.yul\":22631:22637   */\n      dup3\n        /* \"#utility.yul\":22627:22642   */\n      add\n        /* \"#utility.yul\":22620:22649   */\n      mstore\n        /* \"#utility.yul\":22435:22656   */\n      pop\n      jump\t// out\n        /* \"#utility.yul\":22662:23028   */\n    tag_261:\n        /* \"#utility.yul\":22804:22807   */\n      0x00\n        /* \"#utility.yul\":22825:22892   */\n      tag_467\n        /* \"#utility.yul\":22889:22891   */\n      0x22\n        /* \"#utility.yul\":22884:22887   */\n      dup4\n        /* \"#utility.yul\":22825:22892   */\n      tag_232\n      jump\t// in\n    tag_467:\n        /* \"#utility.yul\":22818:22892   */\n      swap2\n      pop\n        /* \"#utility.yul\":22901:22994   */\n      tag_468\n        /* \"#utility.yul\":22990:22993   */\n      dup3\n        /* \"#utility.yul\":22901:22994   */\n      tag_260\n      jump\t// in\n    tag_468:\n        /* \"#utility.yul\":23019:23021   */\n      0x40\n        /* \"#utility.yul\":23014:23017   */\n      dup3\n        /* \"#utility.yul\":23010:23022   */\n      add\n        /* \"#utility.yul\":23003:23022   */\n      swap1\n      pop\n        /* \"#utility.yul\":22662:23028   */\n      swap2\n      swap1\n      pop\n      jump\t// out\n        /* \"#utility.yul\":23034:23453   */\n    tag_144:\n        /* \"#utility.yul\":23200:23204   */\n      0x00\n        /* \"#utility.yul\":23238:23240   */\n      0x20\n        /* \"#utility.yul\":23227:23236   */\n      dup3\n        /* \"#utility.yul\":23223:23241   */\n      add\n        /* \"#utility.yul\":23215:23241   */\n      swap1\n      pop\n        /* \"#utility.yul\":23287:23296   */\n      dup2\n        /* \"#utility.yul\":23281:23285   */\n      dup2\n        /* \"#utility.yul\":23277:23297   */\n      sub\n        /* \"#utility.yul\":23273:23274   */\n      0x00\n        /* \"#utility.yul\":23262:23271   */\n      dup4\n        /* \"#utility.yul\":23258:23275   */\n      add\n        /* \"#utility.yul\":23251:23298   */\n      mstore\n        /* \"#utility.yul\":23315:23446   */\n      tag_470\n        /* \"#utility.yul\":23441:23445   */\n      dup2\n        /* \"#utility.yul\":23315:23446   */\n      tag_261\n      jump\t// in\n    tag_470:\n        /* \"#utility.yul\":23307:23446   */\n      swap1\n      pop\n        /* \"#utility.yul\":23034:23453   */\n      swap2\n      swap1\n      pop\n      jump\t// out\n        /* \"#utility.yul\":23459:23791   */\n    tag_149:\n        /* \"#utility.yul\":23580:23584   */\n      0x00\n        /* \"#utility.yul\":23618:23620   */\n      0x40\n        /* \"#utility.yul\":23607:23616   */\n      dup3\n        /* \"#utility.yul\":23603:23621   */\n      add\n        /* \"#utility.yul\":23595:23621   */\n      swap1\n      pop\n        /* \"#utility.yul\":23631:23702   */\n      tag_472\n        /* \"#utility.yul\":23699:23700   */\n      0x00\n        /* \"#utility.yul\":23688:23697   */\n      dup4\n        /* \"#utility.yul\":23684:23701   */\n      add\n        /* \"#utility.yul\":23675:23681   */\n      dup6\n        /* \"#utility.yul\":23631:23702   */\n      tag_214\n      jump\t// in\n    tag_472:\n        /* \"#utility.yul\":23712:23784   */\n      tag_473\n        /* \"#utility.yul\":23780:23782   */\n      0x20\n        /* \"#utility.yul\":23769:23778   */\n      dup4\n        /* \"#utility.yul\":23765:23783   */\n      add\n        /* \"#utility.yul\":23756:23762   */\n      dup5\n        /* \"#utility.yul\":23712:23784   */\n      tag_214\n      jump\t// in\n    tag_473:\n        /* \"#utility.yul\":23459:23791   */\n      swap4\n      swap3\n      pop\n      pop\n      pop\n      jump\t// out\n        /* \"#utility.yul\":23797:23977   */\n    tag_262:\n        /* \"#utility.yul\":23845:23922   */\n      0x4e487b7100000000000000000000000000000000000000000000000000000000\n        /* \"#utility.yul\":23842:23843   */\n      0x00\n        /* \"#utility.yul\":23835:23923   */\n      mstore\n        /* \"#utility.yul\":23942:23946   */\n      0x12\n        /* \"#utility.yul\":23939:23940   */\n      0x04\n        /* \"#utility.yul\":23932:23947   */\n      mstore\n        /* \"#utility.yul\":23966:23970   */\n      0x24\n        /* \"#utility.yul\":23963:23964   */\n      0x00\n        /* \"#utility.yul\":23956:23971   */\n      revert\n        /* \"#utility.yul\":23983:24159   */\n    tag_151:\n        /* \"#utility.yul\":24015:24016   */\n      0x00\n        /* \"#utility.yul\":24032:24052   */\n      tag_476\n        /* \"#utility.yul\":24050:24051   */\n      dup3\n        /* \"#utility.yul\":24032:24052   */\n      tag_210\n      jump\t// in\n    tag_476:\n        /* \"#utility.yul\":24027:24052   */\n      swap2\n      pop\n        /* \"#utility.yul\":24066:24086   */\n      tag_477\n        /* \"#utility.yul\":24084:24085   */\n      dup4\n        /* \"#utility.yul\":24066:24086   */\n      tag_210\n      jump\t// in\n    tag_477:\n        /* \"#utility.yul\":24061:24086   */\n      swap3\n      pop\n        /* \"#utility.yul\":24105:24106   */\n      dup3\n        /* \"#utility.yul\":24095:24130   */\n      tag_478\n      jumpi\n        /* \"#utility.yul\":24110:24128   */\n      tag_479\n      tag_262\n      jump\t// in\n    tag_479:\n        /* \"#utility.yul\":24095:24130   */\n    tag_478:\n        /* \"#utility.yul\":24151:24152   */\n      dup3\n        /* \"#utility.yul\":24148:24149   */\n      dup3\n        /* \"#utility.yul\":24144:24153   */\n      mod\n        /* \"#utility.yul\":24139:24153   */\n      swap1\n      pop\n        /* \"#utility.yul\":23983:24159   */\n      swap3\n      swap2\n      pop\n      pop\n      jump\t// out\n        /* \"#utility.yul\":24165:24345   */\n    tag_154:\n        /* \"#utility.yul\":24213:24290   */\n      0x4e487b7100000000000000000000000000000000000000000000000000000000\n        /* \"#utility.yul\":24210:24211   */\n      0x00\n        /* \"#utility.yul\":24203:24291   */\n      mstore\n        /* \"#utility.yul\":24310:24314   */\n      0x32\n        /* \"#utility.yul\":24307:24308   */\n      0x04\n        /* \"#utility.yul\":24300:24315   */\n      mstore\n        /* \"#utility.yul\":24334:24338   */\n      0x24\n        /* \"#utility.yul\":24331:24332   */\n      0x00\n        /* \"#utility.yul\":24324:24339   */\n      revert\n        /* \"#utility.yul\":24351:24531   */\n    tag_263:\n        /* \"#utility.yul\":24399:24476   */\n      0x4e487b7100000000000000000000000000000000000000000000000000000000\n        /* \"#utility.yul\":24396:24397   */\n      0x00\n        /* \"#utility.yul\":24389:24477   */\n      mstore\n        /* \"#utility.yul\":24496:24500   */\n      0x11\n        /* \"#utility.yul\":24493:24494   */\n      0x04\n        /* \"#utility.yul\":24486:24501   */\n      mstore\n        /* \"#utility.yul\":24520:24524   */\n      0x24\n        /* \"#utility.yul\":24517:24518   */\n      0x00\n        /* \"#utility.yul\":24510:24525   */\n      revert\n        /* \"#utility.yul\":24537:24731   */\n    tag_158:\n        /* \"#utility.yul\":24577:24581   */\n      0x00\n        /* \"#utility.yul\":24597:24617   */\n      tag_483\n        /* \"#utility.yul\":24615:24616   */\n      dup3\n        /* \"#utility.yul\":24597:24617   */\n      tag_210\n      jump\t// in\n    tag_483:\n        /* \"#utility.yul\":24592:24617   */\n      swap2\n      pop\n        /* \"#utility.yul\":24631:24651   */\n      tag_484\n        /* \"#utility.yul\":24649:24650   */\n      dup4\n        /* \"#utility.yul\":24631:24651   */\n      tag_210\n      jump\t// in\n    tag_484:\n        /* \"#utility.yul\":24626:24651   */\n      swap3\n      pop\n        /* \"#utility.yul\":24675:24676   */\n      dup3\n        /* \"#utility.yul\":24672:24673   */\n      dup3\n        /* \"#utility.yul\":24668:24677   */\n      sub\n        /* \"#utility.yul\":24660:24677   */\n      swap1\n      pop\n        /* \"#utility.yul\":24699:24700   */\n      dup2\n        /* \"#utility.yul\":24693:24697   */\n      dup2\n        /* \"#utility.yul\":24690:24701   */\n      gt\n        /* \"#utility.yul\":24687:24724   */\n      iszero\n      tag_485\n      jumpi\n        /* \"#utility.yul\":24704:24722   */\n      tag_486\n      tag_263\n      jump\t// in\n    tag_486:\n        /* \"#utility.yul\":24687:24724   */\n    tag_485:\n        /* \"#utility.yul\":24537:24731   */\n      swap3\n      swap2\n      pop\n      pop\n      jump\t// out\n        /* \"#utility.yul\":24737:24917   */\n    tag_167:\n        /* \"#utility.yul\":24785:24862   */\n      0x4e487b7100000000000000000000000000000000000000000000000000000000\n        /* \"#utility.yul\":24782:24783   */\n      0x00\n        /* \"#utility.yul\":24775:24863   */\n      mstore\n        /* \"#utility.yul\":24882:24886   */\n      0x31\n        /* \"#utility.yul\":24879:24880   */\n      0x04\n        /* \"#utility.yul\":24872:24887   */\n      mstore\n        /* \"#utility.yul\":24906:24910   */\n      0x24\n        /* \"#utility.yul\":24903:24904   */\n      0x00\n        /* \"#utility.yul\":24896:24911   */\n      revert\n        /* \"#utility.yul\":24923:25156   */\n    tag_170:\n        /* \"#utility.yul\":24962:24965   */\n      0x00\n        /* \"#utility.yul\":24985:25009   */\n      tag_489\n        /* \"#utility.yul\":25003:25008   */\n      dup3\n        /* \"#utility.yul\":24985:25009   */\n      tag_210\n      jump\t// in\n    tag_489:\n        /* \"#utility.yul\":24976:25009   */\n      swap2\n      pop\n        /* \"#utility.yul\":25031:25097   */\n      0xffffffffffffffffffffffffffffffffffffffffffffffffffffffffffffffff\n        /* \"#utility.yul\":25024:25029   */\n      dup3\n        /* \"#utility.yul\":25021:25098   */\n      sub\n        /* \"#utility.yul\":25018:25121   */\n      tag_490\n      jumpi\n        /* \"#utility.yul\":25101:25119   */\n      tag_491\n      tag_263\n      jump\t// in\n    tag_491:\n        /* \"#utility.yul\":25018:25121   */\n    tag_490:\n        /* \"#utility.yul\":25148:25149   */\n      0x01\n        /* \"#utility.yul\":25141:25146   */\n      dup3\n        /* \"#utility.yul\":25137:25150   */\n      add\n        /* \"#utility.yul\":25130:25150   */\n      swap1\n      pop\n        /* \"#utility.yul\":24923:25156   */\n      swap2\n      swap1\n      pop\n      jump\t// out\n        /* \"#utility.yul\":25162:25494   */\n    tag_173:\n        /* \"#utility.yul\":25283:25287   */\n      0x00\n        /* \"#utility.yul\":25321:25323   */\n      0x40\n        /* \"#utility.yul\":25310:25319   */\n      dup3\n        /* \"#utility.yul\":25306:25324   */\n      add\n        /* \"#utility.yul\":25298:25324   */\n      swap1\n      pop\n        /* \"#utility.yul\":25334:25405   */\n      tag_493\n        /* \"#utility.yul\":25402:25403   */\n      0x00\n        /* \"#utility.yul\":25391:25400   */\n      dup4\n        /* \"#utility.yul\":25387:25404   */\n      add\n        /* \"#utility.yul\":25378:25384   */\n      dup6\n        /* \"#utility.yul\":25334:25405   */\n      tag_231\n      jump\t// in\n    tag_493:\n        /* \"#utility.yul\":25415:25487   */\n      tag_494\n        /* \"#utility.yul\":25483:25485   */\n      0x20\n        /* \"#utility.yul\":25472:25481   */\n      dup4\n        /* \"#utility.yul\":25468:25486   */\n      add\n        /* \"#utility.yul\":25459:25465   */\n      dup5\n        /* \"#utility.yul\":25415:25487   */\n      tag_214\n      jump\t// in\n    tag_494:\n        /* \"#utility.yul\":25162:25494   */\n      swap4\n      swap3\n      pop\n      pop\n      pop\n      jump\t// out\n        /* \"#utility.yul\":25500:25598   */\n    tag_264:\n        /* \"#utility.yul\":25551:25557   */\n      0x00\n        /* \"#utility.yul\":25585:25590   */\n      dup2\n        /* \"#utility.yul\":25579:25591   */\n      mload\n        /* \"#utility.yul\":25569:25591   */\n      swap1\n      pop\n        /* \"#utility.yul\":25500:25598   */\n      swap2\n      swap1\n      pop\n      jump\t// out\n        /* \"#utility.yul\":25604:25772   */\n    tag_265:\n        /* \"#utility.yul\":25687:25698   */\n      0x00\n        /* \"#utility.yul\":25721:25727   */\n      dup3\n        /* \"#utility.yul\":25716:25719   */\n      dup3\n        /* \"#utility.yul\":25709:25728   */\n      mstore\n        /* \"#utility.yul\":25761:25765   */\n      0x20\n        /* \"#utility.yul\":25756:25759   */\n      dup3\n        /* \"#utility.yul\":25752:25766   */\n      add\n        /* \"#utility.yul\":25737:25766   */\n      swap1\n      pop\n        /* \"#utility.yul\":25604:25772   */\n      swap3\n      swap2\n      pop\n      pop\n      jump\t// out\n        /* \"#utility.yul\":25778:26024   */\n    tag_266:\n        /* \"#utility.yul\":25859:25860   */\n      0x00\n        /* \"#utility.yul\":25869:25982   */\n    tag_498:\n        /* \"#utility.yul\":25883:25889   */\n      dup4\n        /* \"#utility.yul\":25880:25881   */\n      dup2\n        /* \"#utility.yul\":25877:25890   */\n      lt\n        /* \"#utility.yul\":25869:25982   */\n      iszero\n      tag_500\n      jumpi\n        /* \"#utility.yul\":25968:25969   */\n      dup1\n        /* \"#utility.yul\":25963:25966   */\n      dup3\n        /* \"#utility.yul\":25959:25970   */\n      add\n        /* \"#utility.yul\":25953:25971   */\n      mload\n        /* \"#utility.yul\":25949:25950   */\n      dup2\n        /* \"#utility.yul\":25944:25947   */\n      dup5\n        /* \"#utility.yul\":25940:25951   */\n      add\n        /* \"#utility.yul\":25933:25972   */\n      mstore\n        /* \"#utility.yul\":25905:25907   */\n      0x20\n        /* \"#utility.yul\":25902:25903   */\n      dup2\n        /* \"#utility.yul\":25898:25908   */\n      add\n        /* \"#utility.yul\":25893:25908   */\n      swap1\n      pop\n        /* \"#utility.yul\":25869:25982   */\n      jump(tag_498)\n    tag_500:\n        /* \"#utility.yul\":26016:26017   */\n      0x00\n        /* \"#utility.yul\":26007:26013   */\n      dup5\n        /* \"#utility.yul\":26002:26005   */\n      dup5\n        /* \"#utility.yul\":25998:26014   */\n      add\n        /* \"#utility.yul\":25991:26018   */\n      mstore\n        /* \"#utility.yul\":25840:26024   */\n      pop\n        /* \"#utility.yul\":25778:26024   */\n      pop\n      pop\n      pop\n      jump\t// out\n        /* \"#utility.yul\":26030:26403   */\n    tag_267:\n        /* \"#utility.yul\":26116:26119   */\n      0x00\n        /* \"#utility.yul\":26144:26182   */\n      tag_502\n        /* \"#utility.yul\":26176:26181   */\n      dup3\n        /* \"#utility.yul\":26144:26182   */\n      tag_264\n      jump\t// in\n    tag_502:\n        /* \"#utility.yul\":26198:26268   */\n      tag_503\n        /* \"#utility.yul\":26261:26267   */\n      dup2\n        /* \"#utility.yul\":26256:26259   */\n      dup6\n        /* \"#utility.yul\":26198:26268   */\n      tag_265\n      jump\t// in\n    tag_503:\n        /* \"#utility.yul\":26191:26268   */\n      swap4\n      pop\n        /* \"#utility.yul\":26277:26342   */\n      tag_504\n        /* \"#utility.yul\":26335:26341   */\n      dup2\n        /* \"#utility.yul\":26330:26333   */\n      dup6\n        /* \"#utility.yul\":26323:26327   */\n      0x20\n        /* \"#utility.yul\":26316:26321   */\n      dup7\n        /* \"#utility.yul\":26312:26328   */\n      add\n        /* \"#utility.yul\":26277:26342   */\n      tag_266\n      jump\t// in\n    tag_504:\n        /* \"#utility.yul\":26367:26396   */\n      tag_505\n        /* \"#utility.yul\":26389:26395   */\n      dup2\n        /* \"#utility.yul\":26367:26396   */\n      tag_219\n      jump\t// in\n    tag_505:\n        /* \"#utility.yul\":26362:26365   */\n      dup5\n        /* \"#utility.yul\":26358:26397   */\n      add\n        /* \"#utility.yul\":26351:26397   */\n      swap2\n      pop\n        /* \"#utility.yul\":26120:26403   */\n      pop\n        /* \"#utility.yul\":26030:26403   */\n      swap3\n      swap2\n      pop\n      pop\n      jump\t// out\n        /* \"#utility.yul\":26409:26938   */\n    tag_175:\n        /* \"#utility.yul\":26576:26580   */\n      0x00\n        /* \"#utility.yul\":26614:26616   */\n      0x60\n        /* \"#utility.yul\":26603:26612   */\n      dup3\n        /* \"#utility.yul\":26599:26617   */\n      add\n        /* \"#utility.yul\":26591:26617   */\n      swap1\n      pop\n        /* \"#utility.yul\":26627:26698   */\n      tag_507\n        /* \"#utility.yul\":26695:26696   */\n      0x00\n        /* \"#utility.yul\":26684:26693   */\n      dup4\n        /* \"#utility.yul\":26680:26697   */\n      add\n        /* \"#utility.yul\":26671:26677   */\n      dup7\n        /* \"#utility.yul\":26627:26698   */\n      tag_213\n      jump\t// in\n    tag_507:\n        /* \"#utility.yul\":26708:26780   */\n      tag_508\n        /* \"#utility.yul\":26776:26778   */\n      0x20\n        /* \"#utility.yul\":26765:26774   */\n      dup4\n        /* \"#utility.yul\":26761:26779   */\n      add\n        /* \"#utility.yul\":26752:26758   */\n      dup6\n        /* \"#utility.yul\":26708:26780   */\n      tag_214\n      jump\t// in\n    tag_508:\n        /* \"#utility.yul\":26827:26836   */\n      dup2\n        /* \"#utility.yul\":26821:26825   */\n      dup2\n        /* \"#utility.yul\":26817:26837   */\n      sub\n        /* \"#utility.yul\":26812:26814   */\n      0x40\n        /* \"#utility.yul\":26801:26810   */\n      dup4\n        /* \"#utility.yul\":26797:26815   */\n      add\n        /* \"#utility.yul\":26790:26838   */\n      mstore\n        /* \"#utility.yul\":26855:26931   */\n      tag_509\n        /* \"#utility.yul\":26926:26930   */\n      dup2\n        /* \"#utility.yul\":26917:26923   */\n      dup5\n        /* \"#utility.yul\":26855:26931   */\n      tag_267\n      jump\t// in\n    tag_509:\n        /* \"#utility.yul\":26847:26931   */\n      swap1\n      pop\n        /* \"#utility.yul\":26409:26938   */\n      swap5\n      swap4\n      pop\n      pop\n      pop\n      pop\n      jump\t// out\n        /* \"#utility.yul\":26944:27135   */\n    tag_182:\n        /* \"#utility.yul\":26984:26987   */\n      0x00\n        /* \"#utility.yul\":27003:27023   */\n      tag_511\n        /* \"#utility.yul\":27021:27022   */\n      dup3\n        /* \"#utility.yul\":27003:27023   */\n      tag_210\n      jump\t// in\n    tag_511:\n        /* \"#utility.yul\":26998:27023   */\n      swap2\n      pop\n        /* \"#utility.yul\":27037:27057   */\n      tag_512\n        /* \"#utility.yul\":27055:27056   */\n      dup4\n        /* \"#utility.yul\":27037:27057   */\n      tag_210\n      jump\t// in\n    tag_512:\n        /* \"#utility.yul\":27032:27057   */\n      swap3\n      pop\n        /* \"#utility.yul\":27080:27081   */\n      dup3\n        /* \"#utility.yul\":27077:27078   */\n      dup3\n        /* \"#utility.yul\":27073:27082   */\n      add\n        /* \"#utility.yul\":27066:27082   */\n      swap1\n      pop\n        /* \"#utility.yul\":27101:27104   */\n      dup1\n        /* \"#utility.yul\":27098:27099   */\n      dup3\n        /* \"#utility.yul\":27095:27105   */\n      gt\n        /* \"#utility.yul\":27092:27128   */\n      iszero\n      tag_513\n      jumpi\n        /* \"#utility.yul\":27108:27126   */\n      tag_514\n      tag_263\n      jump\t// in\n    tag_514:\n        /* \"#utility.yul\":27092:27128   */\n    tag_513:\n        /* \"#utility.yul\":26944:27135   */\n      swap3\n      swap2\n      pop\n      pop\n      jump\t// out\n        /* \"#utility.yul\":27141:27694   */\n    tag_187:\n        /* \"#utility.yul\":27318:27322   */\n      0x00\n        /* \"#utility.yul\":27356:27359   */\n      0x80\n        /* \"#utility.yul\":27345:27354   */\n      dup3\n        /* \"#utility.yul\":27341:27360   */\n      add\n        /* \"#utility.yul\":27333:27360   */\n      swap1\n      pop\n        /* \"#utility.yul\":27370:27441   */\n      tag_516\n        /* \"#utility.yul\":27438:27439   */\n      0x00\n        /* \"#utility.yul\":27427:27436   */\n      dup4\n        /* \"#utility.yul\":27423:27440   */\n      add\n        /* \"#utility.yul\":27414:27420   */\n      dup8\n        /* \"#utility.yul\":27370:27441   */\n      tag_231\n      jump\t// in\n    tag_516:\n        /* \"#utility.yul\":27451:27523   */\n      tag_517\n        /* \"#utility.yul\":27519:27521   */\n      0x20\n        /* \"#utility.yul\":27508:27517   */\n      dup4\n        /* \"#utility.yul\":27504:27522   */\n      add\n        /* \"#utility.yul\":27495:27501   */\n      dup7\n        /* \"#utility.yul\":27451:27523   */\n      tag_214\n      jump\t// in\n    tag_517:\n        /* \"#utility.yul\":27533:27605   */\n      tag_518\n        /* \"#utility.yul\":27601:27603   */\n      0x40\n        /* \"#utility.yul\":27590:27599   */\n      dup4\n        /* \"#utility.yul\":27586:27604   */\n      add\n        /* \"#utility.yul\":27577:27583   */\n      dup6\n        /* \"#utility.yul\":27533:27605   */\n      tag_213\n      jump\t// in\n    tag_518:\n        /* \"#utility.yul\":27615:27687   */\n      tag_519\n        /* \"#utility.yul\":27683:27685   */\n      0x60\n        /* \"#utility.yul\":27672:27681   */\n      dup4\n        /* \"#utility.yul\":27668:27686   */\n      add\n        /* \"#utility.yul\":27659:27665   */\n      dup5\n        /* \"#utility.yul\":27615:27687   */\n      tag_214\n      jump\t// in\n    tag_519:\n        /* \"#utility.yul\":27141:27694   */\n      swap6\n      swap5\n      pop\n      pop\n      pop\n      pop\n      pop\n      jump\t// out\n        /* \"#utility.yul\":27700:27779   */\n    tag_268:\n        /* \"#utility.yul\":27739:27746   */\n      0x00\n        /* \"#utility.yul\":27768:27773   */\n      dup2\n        /* \"#utility.yul\":27757:27773   */\n      swap1\n      pop\n        /* \"#utility.yul\":27700:27779   */\n      swap2\n      swap1\n      pop\n      jump\t// out\n        /* \"#utility.yul\":27785:27942   */\n    tag_269:\n        /* \"#utility.yul\":27890:27935   */\n      tag_522\n        /* \"#utility.yul\":27910:27934   */\n      tag_523\n        /* \"#utility.yul\":27928:27933   */\n      dup3\n        /* \"#utility.yul\":27910:27934   */\n      tag_215\n      jump\t// in\n    tag_523:\n        /* \"#utility.yul\":27890:27935   */\n      tag_268\n      jump\t// in\n    tag_522:\n        /* \"#utility.yul\":27885:27888   */\n      dup3\n        /* \"#utility.yul\":27878:27936   */\n      mstore\n        /* \"#utility.yul\":27785:27942   */\n      pop\n      pop\n      jump\t// out\n        /* \"#utility.yul\":27948:28027   */\n    tag_270:\n        /* \"#utility.yul\":27987:27994   */\n      0x00\n        /* \"#utility.yul\":28016:28021   */\n      dup2\n        /* \"#utility.yul\":28005:28021   */\n      swap1\n      pop\n        /* \"#utility.yul\":27948:28027   */\n      swap2\n      swap1\n      pop\n      jump\t// out\n        /* \"#utility.yul\":28033:28190   */\n    tag_271:\n        /* \"#utility.yul\":28138:28183   */\n      tag_526\n        /* \"#utility.yul\":28158:28182   */\n      tag_527\n        /* \"#utility.yul\":28176:28181   */\n      dup3\n        /* \"#utility.yul\":28158:28182   */\n      tag_210\n      jump\t// in\n    tag_527:\n        /* \"#utility.yul\":28138:28183   */\n      tag_270\n      jump\t// in\n    tag_526:\n        /* \"#utility.yul\":28133:28136   */\n      dup3\n        /* \"#utility.yul\":28126:28184   */\n      mstore\n        /* \"#utility.yul\":28033:28190   */\n      pop\n      pop\n      jump\t// out\n        /* \"#utility.yul\":28196:28593   */\n    tag_190:\n        /* \"#utility.yul\":28336:28339   */\n      0x00\n        /* \"#utility.yul\":28351:28426   */\n      tag_529\n        /* \"#utility.yul\":28422:28425   */\n      dup3\n        /* \"#utility.yul\":28413:28419   */\n      dup6\n        /* \"#utility.yul\":28351:28426   */\n      tag_269\n      jump\t// in\n    tag_529:\n        /* \"#utility.yul\":28451:28453   */\n      0x20\n        /* \"#utility.yul\":28446:28449   */\n      dup3\n        /* \"#utility.yul\":28442:28454   */\n      add\n        /* \"#utility.yul\":28435:28454   */\n      swap2\n      pop\n        /* \"#utility.yul\":28464:28539   */\n      tag_530\n        /* \"#utility.yul\":28535:28538   */\n      dup3\n        /* \"#utility.yul\":28526:28532   */\n      dup5\n        /* \"#utility.yul\":28464:28539   */\n      tag_271\n      jump\t// in\n    tag_530:\n        /* \"#utility.yul\":28564:28566   */\n      0x20\n        /* \"#utility.yul\":28559:28562   */\n      dup3\n        /* \"#utility.yul\":28555:28567   */\n      add\n        /* \"#utility.yul\":28548:28567   */\n      swap2\n      pop\n        /* \"#utility.yul\":28584:28587   */\n      dup2\n        /* \"#utility.yul\":28577:28587   */\n      swap1\n      pop\n        /* \"#utility.yul\":28196:28593   */\n      swap4\n      swap3\n      pop\n      pop\n      pop\n      jump\t// out\n\n    auxdata: 0xa264697066735822122028428a4747362c3c79fe6ab0328e2d3a78ef1114f7051be8456b1996f36220b464736f6c63430008120033\n}\n",
				"bytecode": {
					"linkReferences": {},
					"object": "60c06040523480156200001157600080fd5b50604051620022f3380380620022f383398181016040528101906200003791906200021d565b83838173ffffffffffffffffffffffffffffffffffffffff1660a08173ffffffffffffffffffffffffffffffffffffffff16815250508073ffffffffffffffffffffffffffffffffffffffff1660808173ffffffffffffffffffffffffffffffffffffffff16815250505050816001819055508060028190555033600360006101000a81548173ffffffffffffffffffffffffffffffffffffffff021916908373ffffffffffffffffffffffffffffffffffffffff16021790555083600960006101000a81548173ffffffffffffffffffffffffffffffffffffffff021916908373ffffffffffffffffffffffffffffffffffffffff160217905550505050506200028f565b600080fd5b600073ffffffffffffffffffffffffffffffffffffffff82169050919050565b60006200016f8262000142565b9050919050565b620001818162000162565b81146200018d57600080fd5b50565b600081519050620001a18162000176565b92915050565b6000819050919050565b620001bc81620001a7565b8114620001c857600080fd5b50565b600081519050620001dc81620001b1565b92915050565b6000819050919050565b620001f781620001e2565b81146200020357600080fd5b50565b6000815190506200021781620001ec565b92915050565b600080600080608085870312156200023a57620002396200013d565b5b60006200024a8782880162000190565b94505060206200025d8782880162000190565b93505060406200027087828801620001cb565b9250506060620002838782880162000206565b91505092959194509250565b60805160a05161201b620002d8600039600081816105f30152610eaa0152600081816103db015281816104180152818161055101528181610aa60152610e6e015261201b6000f3fe608060405234801561001057600080fd5b50600436106100cf5760003560e01c80639e658e911161008c578063b1b2063411610066578063b1b20634146101da578063b8617725146101f6578063c26ecefa14610214578063dbdff2c114610232576100cf565b80639e658e9114610184578063a0eb5570146101a0578063a2fb1175146101aa576100cf565b806306a49fce146100d45780633477ee2e146100f25780638b7bcc86146101225780638da5cb5b146101405780638dc654a21461015e57806394985ddd14610168575b600080fd5b6100dc610250565b6040516100e991906111c0565b60405180910390f35b61010c6004803603810190610107919061122c565b6102de565b6040516101199190611268565b60405180910390f35b61012a61031d565b6040516101379190611292565b60405180910390f35b610148610323565b6040516101559190611268565b60405180910390f35b610166610349565b005b610182600480360381019061017d91906112e3565b6105f1565b005b61019e600480360381019061019991906114a8565b61068d565b005b6101a8610787565b005b6101c460048036038101906101bf919061122c565b61087e565b6040516101d19190611268565b60405180910390f35b6101f460048036038101906101ef919061122c565b6108bd565b005b6101fe6109a7565b60405161020b919061150c565b60405180910390f35b61021c6109ba565b6040516102299190611292565b60405180910390f35b61023a6109c0565b6040516102479190611536565b60405180910390f35b606060058054806020026020016040519081016040528092919081815260200182805480156102d457602002820191906000526020600020905b8160009054906101000a900473ffffffffffffffffffffffffffffffffffffffff1673ffffffffffffffffffffffffffffffffffffffff168152602001906001019080831161028a575b5050505050905090565b600581815481106102ee57600080fd5b906000526020600020016000915054906101000a900473ffffffffffffffffffffffffffffffffffffffff1681565b60045481565b600360009054906101000a900473ffffffffffffffffffffffffffffffffffffffff1681565b600360009054906101000a900473ffffffffffffffffffffffffffffffffffffffff1673ffffffffffffffffffffffffffffffffffffffff163373ffffffffffffffffffffffffffffffffffffffff16146103d9576040517f08c379a00000000000000000000000000000000000000000000000000000000081526004016103d0906115ae565b60405180910390fd5b7f000000000000000000000000000000000000000000000000000000000000000073ffffffffffffffffffffffffffffffffffffffff1663a9059cbb337f000000000000000000000000000000000000000000000000000000000000000073ffffffffffffffffffffffffffffffffffffffff166370a08231306040518263ffffffff1660e01b815260040161046f9190611268565b602060405180830381865afa15801561048c573d6000803e3d6000fd5b505050506040513d601f19601f820116820180604052508101906104b091906115e3565b6040518363ffffffff1660e01b81526004016104cd929190611610565b6020604051808303816000875af11580156104ec573d6000803e3d6000fd5b505050506040513d601f19601f820116820180604052508101906105109190611665565b61054f576040517f08c379a0000000000000000000000000000000000000000000000000000000008152600401610546906116de565b60405180910390fd5b7f000000000000000000000000000000000000000000000000000000000000000073ffffffffffffffffffffffffffffffffffffffff166370a08231306040518263ffffffff1660e01b81526004016105a89190611268565b602060405180830381865afa1580156105c5573d6000803e3d6000fd5b505050506040513d601f19601f820116820180604052508101906105e991906115e3565b600881905550565b7f000000000000000000000000000000000000000000000000000000000000000073ffffffffffffffffffffffffffffffffffffffff163373ffffffffffffffffffffffffffffffffffffffff161461067f576040517f08c379a00000000000000000000000000000000000000000000000000000000081526004016106769061174a565b60405180910390fd5b6106898282610b92565b5050565b600360009054906101000a900473ffffffffffffffffffffffffffffffffffffffff1673ffffffffffffffffffffffffffffffffffffffff163373ffffffffffffffffffffffffffffffffffffffff161461071d576040517f08c379a0000000000000000000000000000000000000000000000000000000008152600401610714906117b6565b60405180910390fd5b600760009054906101000a900460ff161561076d576040517f08c379a000000000000000000000000000000000000000000000000000000000815260040161076490611822565b60405180910390fd5b8060059080519060200190610783929190611029565b5050565b600360009054906101000a900473ffffffffffffffffffffffffffffffffffffffff1673ffffffffffffffffffffffffffffffffffffffff163373ffffffffffffffffffffffffffffffffffffffff1614610817576040517f08c379a000000000000000000000000000000000000000000000000000000000815260040161080e9061188e565b60405180910390fd5b6004546005805490501015610861576040517f08c379a000000000000000000000000000000000000000000000000000000000815260040161085890611920565b60405180910390fd5b6001600760006101000a81548160ff021916908315150217905550565b6006818154811061088e57600080fd5b906000526020600020016000915054906101000a900473ffffffffffffffffffffffffffffffffffffffff1681565b600360009054906101000a900473ffffffffffffffffffffffffffffffffffffffff1673ffffffffffffffffffffffffffffffffffffffff163373ffffffffffffffffffffffffffffffffffffffff161461094d576040517f08c379a0000000000000000000000000000000000000000000000000000000008152600401610944906119b2565b60405180910390fd5b600760009054906101000a900460ff161561099d576040517f08c379a000000000000000000000000000000000000000000000000000000000815260040161099490611822565b60405180910390fd5b8060048190555050565b600760009054906101000a900460ff1681565b60085481565b6000600360009054906101000a900473ffffffffffffffffffffffffffffffffffffffff1673ffffffffffffffffffffffffffffffffffffffff163373ffffffffffffffffffffffffffffffffffffffff1614610a52576040517f08c379a0000000000000000000000000000000000000000000000000000000008152600401610a4990611a44565b60405180910390fd5b600760009054906101000a900460ff16610aa1576040517f08c379a0000000000000000000000000000000000000000000000000000000008152600401610a9890611ab0565b60405180910390fd5b6002547f000000000000000000000000000000000000000000000000000000000000000073ffffffffffffffffffffffffffffffffffffffff166370a08231306040518263ffffffff1660e01b8152600401610afd9190611268565b602060405180830381865afa158015610b1a573d6000803e3d6000fd5b505050506040513d601f19601f82011682018060405250810190610b3e91906115e3565b1015610b7f576040517f08c379a0000000000000000000000000000000000000000000000000000000008152600401610b7690611b42565b60405180910390fd5b610b8d600154600254610e6a565b905090565b600960009054906101000a900473ffffffffffffffffffffffffffffffffffffffff1673ffffffffffffffffffffffffffffffffffffffff163373ffffffffffffffffffffffffffffffffffffffff1614610c22576040517f08c379a0000000000000000000000000000000000000000000000000000000008152600401610c1990611bd4565b60405180910390fd5b600060068054905014610c6a576040517f08c379a0000000000000000000000000000000000000000000000000000000008152600401610c6190611c66565b60405180910390fd5b60005b600454811015610e655760006005805490508383604051602001610c92929190611c86565b6040516020818303038152906040528051906020012060001c610cb59190611cde565b9050600060058281548110610ccd57610ccc611d0f565b5b9060005260206000200160009054906101000a900473ffffffffffffffffffffffffffffffffffffffff1690506006819080600181540180825580915050600190039060005260206000200160009091909190916101000a81548173ffffffffffffffffffffffffffffffffffffffff021916908373ffffffffffffffffffffffffffffffffffffffff16021790555060056001600580549050610d719190611d6d565b81548110610d8257610d81611d0f565b5b9060005260206000200160009054906101000a900473ffffffffffffffffffffffffffffffffffffffff1660058381548110610dc157610dc0611d0f565b5b9060005260206000200160006101000a81548173ffffffffffffffffffffffffffffffffffffffff021916908373ffffffffffffffffffffffffffffffffffffffff1602179055506005805480610e1b57610e1a611da1565b5b6001900381819060005260206000200160006101000a81549073ffffffffffffffffffffffffffffffffffffffff0219169055905550508080610e5d90611dd0565b915050610c6d565b505050565b60007f000000000000000000000000000000000000000000000000000000000000000073ffffffffffffffffffffffffffffffffffffffff16634000aea07f000000000000000000000000000000000000000000000000000000000000000084866000604051602001610ede929190611e18565b6040516020818303038152906040526040518463ffffffff1660e01b8152600401610f0b93929190611ec0565b6020604051808303816000875af1158015610f2a573d6000803e3d6000fd5b505050506040513d601f19601f82011682018060405250810190610f4e9190611665565b506000610f708460003060008089815260200190815260200160002054610fba565b9050600160008086815260200190815260200160002054610f919190611efe565b60008086815260200190815260200160002081905550610fb18482610ff6565b91505092915050565b600084848484604051602001610fd39493929190611f32565b6040516020818303038152906040528051906020012060001c9050949350505050565b6000828260405160200161100b929190611fb9565b60405160208183030381529060405280519060200120905092915050565b8280548282559060005260206000209081019282156110a2579160200282015b828111156110a15782518260006101000a81548173ffffffffffffffffffffffffffffffffffffffff021916908373ffffffffffffffffffffffffffffffffffffffff16021790555091602001919060010190611049565b5b5090506110af91906110b3565b5090565b5b808211156110cc5760008160009055506001016110b4565b5090565b600081519050919050565b600082825260208201905092915050565b6000819050602082019050919050565b600073ffffffffffffffffffffffffffffffffffffffff82169050919050565b6000611127826110fc565b9050919050565b6111378161111c565b82525050565b6000611149838361112e565b60208301905092915050565b6000602082019050919050565b600061116d826110d0565b61117781856110db565b9350611182836110ec565b8060005b838110156111b357815161119a888261113d565b97506111a583611155565b925050600181019050611186565b5085935050505092915050565b600060208201905081810360008301526111da8184611162565b905092915050565b6000604051905090565b600080fd5b600080fd5b6000819050919050565b611209816111f6565b811461121457600080fd5b50565b60008135905061122681611200565b92915050565b600060208284031215611242576112416111ec565b5b600061125084828501611217565b91505092915050565b6112628161111c565b82525050565b600060208201905061127d6000830184611259565b92915050565b61128c816111f6565b82525050565b60006020820190506112a76000830184611283565b92915050565b6000819050919050565b6112c0816112ad565b81146112cb57600080fd5b50565b6000813590506112dd816112b7565b92915050565b600080604083850312156112fa576112f96111ec565b5b6000611308858286016112ce565b925050602061131985828601611217565b9150509250929050565b600080fd5b6000601f19601f8301169050919050565b7f4e487b7100000000000000000000000000000000000000000000000000000000600052604160045260246000fd5b61137182611328565b810181811067ffffffffffffffff821117156113905761138f611339565b5b80604052505050565b60006113a36111e2565b90506113af8282611368565b919050565b600067ffffffffffffffff8211156113cf576113ce611339565b5b602082029050602081019050919050565b600080fd5b6113ee8161111c565b81146113f957600080fd5b50565b60008135905061140b816113e5565b92915050565b600061142461141f846113b4565b611399565b90508083825260208201905060208402830185811115611447576114466113e0565b5b835b81811015611470578061145c88826113fc565b845260208401935050602081019050611449565b5050509392505050565b600082601f83011261148f5761148e611323565b5b813561149f848260208601611411565b91505092915050565b6000602082840312156114be576114bd6111ec565b5b600082013567ffffffffffffffff8111156114dc576114db6111f1565b5b6114e88482850161147a565b91505092915050565b60008115159050919050565b611506816114f1565b82525050565b600060208201905061152160008301846114fd565b92915050565b611530816112ad565b82525050565b600060208201905061154b6000830184611527565b92915050565b600082825260208201905092915050565b7f4f6e6c79206f776e65722063616e207769746864726177204c494e4b00000000600082015250565b6000611598601c83611551565b91506115a382611562565b602082019050919050565b600060208201905081810360008301526115c78161158b565b9050919050565b6000815190506115dd81611200565b92915050565b6000602082840312156115f9576115f86111ec565b5b6000611607848285016115ce565b91505092915050565b60006040820190506116256000830185611259565b6116326020830184611283565b9392505050565b611642816114f1565b811461164d57600080fd5b50565b60008151905061165f81611639565b92915050565b60006020828403121561167b5761167a6111ec565b5b600061168984828501611650565b91505092915050565b7f556e61626c6520746f207472616e736665720000000000000000000000000000600082015250565b60006116c8601283611551565b91506116d382611692565b602082019050919050565b600060208201905081810360008301526116f7816116bb565b9050919050565b7f4f6e6c7920565246436f6f7264696e61746f722063616e2066756c66696c6c00600082015250565b6000611734601f83611551565b915061173f826116fe565b602082019050919050565b6000602082019050818103600083015261176381611727565b9050919050565b7f4f6e6c79206f776e65722063616e207365742063616e64696461746573000000600082015250565b60006117a0601d83611551565b91506117ab8261176a565b602082019050919050565b600060208201905081810360008301526117cf81611793565b9050919050565b7f447261772068617320616c7265616479206265656e20636c6f73656400000000600082015250565b600061180c601c83611551565b9150611817826117d6565b602082019050919050565b6000602082019050818103600083015261183b816117ff565b9050919050565b7f4f6e6c79206f776e65722063616e20636c6f7365206472617700000000000000600082015250565b6000611878601983611551565b915061188382611842565b602082019050919050565b600060208201905081810360008301526118a78161186b565b9050919050565b7f4e6f7420656e6f7567682063616e6469646174657320746f2073656c6563742060008201527f77696e6e65727300000000000000000000000000000000000000000000000000602082015250565b600061190a602783611551565b9150611915826118ae565b604082019050919050565b60006020820190508181036000830152611939816118fd565b9050919050565b7f4f6e6c79206f776e65722063616e20736574206e756d626572206f662077696e60008201527f6e65727300000000000000000000000000000000000000000000000000000000602082015250565b600061199c602483611551565b91506119a782611940565b604082019050919050565b600060208201905081810360008301526119cb8161198f565b9050919050565b7f4f6e6c79206f776e65722063616e20726571756573742072616e646f6d206e7560008201527f6d62657200000000000000000000000000000000000000000000000000000000602082015250565b6000611a2e602483611551565b9150611a39826119d2565b604082019050919050565b60006020820190508181036000830152611a5d81611a21565b9050919050565b7f44726177206973207374696c6c206f70656e0000000000000000000000000000600082015250565b6000611a9a601283611551565b9150611aa582611a64565b602082019050919050565b60006020820190508181036000830152611ac981611a8d565b9050919050565b7f4e6f7420656e6f756768204c494e4b20746f2066756c66696c6c20726571756560008201527f7374000000000000000000000000000000000000000000000000000000000000602082015250565b6000611b2c602283611551565b9150611b3782611ad0565b604082019050919050565b60006020820190508181036000830152611b5b81611b1f565b9050919050565b7f4f6e6c792056524620636f6f7264696e61746f722063616e2066756c66696c6c60008201527f2072616e646f6d6e657373000000000000000000000000000000000000000000602082015250565b6000611bbe602b83611551565b9150611bc982611b62565b604082019050919050565b60006020820190508181036000830152611bed81611bb1565b9050919050565b7f57696e6e657273206861766520616c7265616479206265656e2073656c65637460008201527f6564000000000000000000000000000000000000000000000000000000000000602082015250565b6000611c50602283611551565b9150611c5b82611bf4565b604082019050919050565b60006020820190508181036000830152611c7f81611c43565b9050919050565b6000604082019050611c9b6000830185611283565b611ca86020830184611283565b9392505050565b7f4e487b7100000000000000000000000000000000000000000000000000000000600052601260045260246000fd5b6000611ce9826111f6565b9150611cf4836111f6565b925082611d0457611d03611caf565b5b828206905092915050565b7f4e487b7100000000000000000000000000000000000000000000000000000000600052603260045260246000fd5b7f4e487b7100000000000000000000000000000000000000000000000000000000600052601160045260246000fd5b6000611d78826111f6565b9150611d83836111f6565b9250828203905081811115611d9b57611d9a611d3e565b5b92915050565b7f4e487b7100000000000000000000000000000000000000000000000000000000600052603160045260246000fd5b6000611ddb826111f6565b91507fffffffffffffffffffffffffffffffffffffffffffffffffffffffffffffffff8203611e0d57611e0c611d3e565b5b600182019050919050565b6000604082019050611e2d6000830185611527565b611e3a6020830184611283565b9392505050565b600081519050919050565b600082825260208201905092915050565b60005b83811015611e7b578082015181840152602081019050611e60565b60008484015250505050565b6000611e9282611e41565b611e9c8185611e4c565b9350611eac818560208601611e5d565b611eb581611328565b840191505092915050565b6000606082019050611ed56000830186611259565b611ee26020830185611283565b8181036040830152611ef48184611e87565b9050949350505050565b6000611f09826111f6565b9150611f14836111f6565b9250828201905080821115611f2c57611f2b611d3e565b5b92915050565b6000608082019050611f476000830187611527565b611f546020830186611283565b611f616040830185611259565b611f6e6060830184611283565b95945050505050565b6000819050919050565b611f92611f8d826112ad565b611f77565b82525050565b6000819050919050565b611fb3611fae826111f6565b611f98565b82525050565b6000611fc58285611f81565b602082019150611fd58284611fa2565b602082019150819050939250505056fea264697066735822122028428a4747362c3c79fe6ab0328e2d3a78ef1114f7051be8456b1996f36220b464736f6c63430008120033",
					"opcodes": "PUSH1 0xC0 PUSH1 0x40 MSTORE CALLVALUE DUP1 ISZERO PUSH3 0x11 JUMPI PUSH1 0x0 DUP1 REVERT JUMPDEST POP PUSH1 0x40 MLOAD PUSH3 0x22F3 CODESIZE SUB DUP1 PUSH3 0x22F3 DUP4 CODECOPY DUP2 DUP2 ADD PUSH1 0x40 MSTORE DUP2 ADD SWAP1 PUSH3 0x37 SWAP2 SWAP1 PUSH3 0x21D JUMP JUMPDEST DUP4 DUP4 DUP2 PUSH20 0xFFFFFFFFFFFFFFFFFFFFFFFFFFFFFFFFFFFFFFFF AND PUSH1 0xA0 DUP2 PUSH20 0xFFFFFFFFFFFFFFFFFFFFFFFFFFFFFFFFFFFFFFFF AND DUP2 MSTORE POP POP DUP1 PUSH20 0xFFFFFFFFFFFFFFFFFFFFFFFFFFFFFFFFFFFFFFFF AND PUSH1 0x80 DUP2 PUSH20 0xFFFFFFFFFFFFFFFFFFFFFFFFFFFFFFFFFFFFFFFF AND DUP2 MSTORE POP POP POP POP DUP2 PUSH1 0x1 DUP2 SWAP1 SSTORE POP DUP1 PUSH1 0x2 DUP2 SWAP1 SSTORE POP CALLER PUSH1 0x3 PUSH1 0x0 PUSH2 0x100 EXP DUP2 SLOAD DUP2 PUSH20 0xFFFFFFFFFFFFFFFFFFFFFFFFFFFFFFFFFFFFFFFF MUL NOT AND SWAP1 DUP4 PUSH20 0xFFFFFFFFFFFFFFFFFFFFFFFFFFFFFFFFFFFFFFFF AND MUL OR SWAP1 SSTORE POP DUP4 PUSH1 0x9 PUSH1 0x0 PUSH2 0x100 EXP DUP2 SLOAD DUP2 PUSH20 0xFFFFFFFFFFFFFFFFFFFFFFFFFFFFFFFFFFFFFFFF MUL NOT AND SWAP1 DUP4 PUSH20 0xFFFFFFFFFFFFFFFFFFFFFFFFFFFFFFFFFFFFFFFF AND MUL OR SWAP1 SSTORE POP POP POP POP POP PUSH3 0x28F JUMP JUMPDEST PUSH1 0x0 DUP1 REVERT JUMPDEST PUSH1 0x0 PUSH20 0xFFFFFFFFFFFFFFFFFFFFFFFFFFFFFFFFFFFFFFFF DUP3 AND SWAP1 POP SWAP2 SWAP1 POP JUMP JUMPDEST PUSH1 0x0 PUSH3 0x16F DUP3 PUSH3 0x142 JUMP JUMPDEST SWAP1 POP SWAP2 SWAP1 POP JUMP JUMPDEST PUSH3 0x181 DUP2 PUSH3 0x162 JUMP JUMPDEST DUP2 EQ PUSH3 0x18D JUMPI PUSH1 0x0 DUP1 REVERT JUMPDEST POP JUMP JUMPDEST PUSH1 0x0 DUP2 MLOAD SWAP1 POP PUSH3 0x1A1 DUP2 PUSH3 0x176 JUMP JUMPDEST SWAP3 SWAP2 POP POP JUMP JUMPDEST PUSH1 0x0 DUP2 SWAP1 POP SWAP2 SWAP1 POP JUMP JUMPDEST PUSH3 0x1BC DUP2 PUSH3 0x1A7 JUMP JUMPDEST DUP2 EQ PUSH3 0x1C8 JUMPI PUSH1 0x0 DUP1 REVERT JUMPDEST POP JUMP JUMPDEST PUSH1 0x0 DUP2 MLOAD SWAP1 POP PUSH3 0x1DC DUP2 PUSH3 0x1B1 JUMP JUMPDEST SWAP3 SWAP2 POP POP JUMP JUMPDEST PUSH1 0x0 DUP2 SWAP1 POP SWAP2 SWAP1 POP JUMP JUMPDEST PUSH3 0x1F7 DUP2 PUSH3 0x1E2 JUMP JUMPDEST DUP2 EQ PUSH3 0x203 JUMPI PUSH1 0x0 DUP1 REVERT JUMPDEST POP JUMP JUMPDEST PUSH1 0x0 DUP2 MLOAD SWAP1 POP PUSH3 0x217 DUP2 PUSH3 0x1EC JUMP JUMPDEST SWAP3 SWAP2 POP POP JUMP JUMPDEST PUSH1 0x0 DUP1 PUSH1 0x0 DUP1 PUSH1 0x80 DUP6 DUP8 SUB SLT ISZERO PUSH3 0x23A JUMPI PUSH3 0x239 PUSH3 0x13D JUMP JUMPDEST JUMPDEST PUSH1 0x0 PUSH3 0x24A DUP8 DUP3 DUP9 ADD PUSH3 0x190 JUMP JUMPDEST SWAP5 POP POP PUSH1 0x20 PUSH3 0x25D DUP8 DUP3 DUP9 ADD PUSH3 0x190 JUMP JUMPDEST SWAP4 POP POP PUSH1 0x40 PUSH3 0x270 DUP8 DUP3 DUP9 ADD PUSH3 0x1CB JUMP JUMPDEST SWAP3 POP POP PUSH1 0x60 PUSH3 0x283 DUP8 DUP3 DUP9 ADD PUSH3 0x206 JUMP JUMPDEST SWAP2 POP POP SWAP3 SWAP6 SWAP2 SWAP5 POP SWAP3 POP JUMP JUMPDEST PUSH1 0x80 MLOAD PUSH1 0xA0 MLOAD PUSH2 0x201B PUSH3 0x2D8 PUSH1 0x0 CODECOPY PUSH1 0x0 DUP2 DUP2 PUSH2 0x5F3 ADD MSTORE PUSH2 0xEAA ADD MSTORE PUSH1 0x0 DUP2 DUP2 PUSH2 0x3DB ADD MSTORE DUP2 DUP2 PUSH2 0x418 ADD MSTORE DUP2 DUP2 PUSH2 0x551 ADD MSTORE DUP2 DUP2 PUSH2 0xAA6 ADD MSTORE PUSH2 0xE6E ADD MSTORE PUSH2 0x201B PUSH1 0x0 RETURN INVALID PUSH1 0x80 PUSH1 0x40 MSTORE CALLVALUE DUP1 ISZERO PUSH2 0x10 JUMPI PUSH1 0x0 DUP1 REVERT JUMPDEST POP PUSH1 0x4 CALLDATASIZE LT PUSH2 0xCF JUMPI PUSH1 0x0 CALLDATALOAD PUSH1 0xE0 SHR DUP1 PUSH4 0x9E658E91 GT PUSH2 0x8C JUMPI DUP1 PUSH4 0xB1B20634 GT PUSH2 0x66 JUMPI DUP1 PUSH4 0xB1B20634 EQ PUSH2 0x1DA JUMPI DUP1 PUSH4 0xB8617725 EQ PUSH2 0x1F6 JUMPI DUP1 PUSH4 0xC26ECEFA EQ PUSH2 0x214 JUMPI DUP1 PUSH4 0xDBDFF2C1 EQ PUSH2 0x232 JUMPI PUSH2 0xCF JUMP JUMPDEST DUP1 PUSH4 0x9E658E91 EQ PUSH2 0x184 JUMPI DUP1 PUSH4 0xA0EB5570 EQ PUSH2 0x1A0 JUMPI DUP1 PUSH4 0xA2FB1175 EQ PUSH2 0x1AA JUMPI PUSH2 0xCF JUMP JUMPDEST DUP1 PUSH4 0x6A49FCE EQ PUSH2 0xD4 JUMPI DUP1 PUSH4 0x3477EE2E EQ PUSH2 0xF2 JUMPI DUP1 PUSH4 0x8B7BCC86 EQ PUSH2 0x122 JUMPI DUP1 PUSH4 0x8DA5CB5B EQ PUSH2 0x140 JUMPI DUP1 PUSH4 0x8DC654A2 EQ PUSH2 0x15E JUMPI DUP1 PUSH4 0x94985DDD EQ PUSH2 0x168 JUMPI JUMPDEST PUSH1 0x0 DUP1 REVERT JUMPDEST PUSH2 0xDC PUSH2 0x250 JUMP JUMPDEST PUSH1 0x40 MLOAD PUSH2 0xE9 SWAP2 SWAP1 PUSH2 0x11C0 JUMP JUMPDEST PUSH1 0x40 MLOAD DUP1 SWAP2 SUB SWAP1 RETURN JUMPDEST PUSH2 0x10C PUSH1 0x4 DUP1 CALLDATASIZE SUB DUP2 ADD SWAP1 PUSH2 0x107 SWAP2 SWAP1 PUSH2 0x122C JUMP JUMPDEST PUSH2 0x2DE JUMP JUMPDEST PUSH1 0x40 MLOAD PUSH2 0x119 SWAP2 SWAP1 PUSH2 0x1268 JUMP JUMPDEST PUSH1 0x40 MLOAD DUP1 SWAP2 SUB SWAP1 RETURN JUMPDEST PUSH2 0x12A PUSH2 0x31D JUMP JUMPDEST PUSH1 0x40 MLOAD PUSH2 0x137 SWAP2 SWAP1 PUSH2 0x1292 JUMP JUMPDEST PUSH1 0x40 MLOAD DUP1 SWAP2 SUB SWAP1 RETURN JUMPDEST PUSH2 0x148 PUSH2 0x323 JUMP JUMPDEST PUSH1 0x40 MLOAD PUSH2 0x155 SWAP2 SWAP1 PUSH2 0x1268 JUMP JUMPDEST PUSH1 0x40 MLOAD DUP1 SWAP2 SUB SWAP1 RETURN JUMPDEST PUSH2 0x166 PUSH2 0x349 JUMP JUMPDEST STOP JUMPDEST PUSH2 0x182 PUSH1 0x4 DUP1 CALLDATASIZE SUB DUP2 ADD SWAP1 PUSH2 0x17D SWAP2 SWAP1 PUSH2 0x12E3 JUMP JUMPDEST PUSH2 0x5F1 JUMP JUMPDEST STOP JUMPDEST PUSH2 0x19E PUSH1 0x4 DUP1 CALLDATASIZE SUB DUP2 ADD SWAP1 PUSH2 0x199 SWAP2 SWAP1 PUSH2 0x14A8 JUMP JUMPDEST PUSH2 0x68D JUMP JUMPDEST STOP JUMPDEST PUSH2 0x1A8 PUSH2 0x787 JUMP JUMPDEST STOP JUMPDEST PUSH2 0x1C4 PUSH1 0x4 DUP1 CALLDATASIZE SUB DUP2 ADD SWAP1 PUSH2 0x1BF SWAP2 SWAP1 PUSH2 0x122C JUMP JUMPDEST PUSH2 0x87E JUMP JUMPDEST PUSH1 0x40 MLOAD PUSH2 0x1D1 SWAP2 SWAP1 PUSH2 0x1268 JUMP JUMPDEST PUSH1 0x40 MLOAD DUP1 SWAP2 SUB SWAP1 RETURN JUMPDEST PUSH2 0x1F4 PUSH1 0x4 DUP1 CALLDATASIZE SUB DUP2 ADD SWAP1 PUSH2 0x1EF SWAP2 SWAP1 PUSH2 0x122C JUMP JUMPDEST PUSH2 0x8BD JUMP JUMPDEST STOP JUMPDEST PUSH2 0x1FE PUSH2 0x9A7 JUMP JUMPDEST PUSH1 0x40 MLOAD PUSH2 0x20B SWAP2 SWAP1 PUSH2 0x150C JUMP JUMPDEST PUSH1 0x40 MLOAD DUP1 SWAP2 SUB SWAP1 RETURN JUMPDEST PUSH2 0x21C PUSH2 0x9BA JUMP JUMPDEST PUSH1 0x40 MLOAD PUSH2 0x229 SWAP2 SWAP1 PUSH2 0x1292 JUMP JUMPDEST PUSH1 0x40 MLOAD DUP1 SWAP2 SUB SWAP1 RETURN JUMPDEST PUSH2 0x23A PUSH2 0x9C0 JUMP JUMPDEST PUSH1 0x40 MLOAD PUSH2 0x247 SWAP2 SWAP1 PUSH2 0x1536 JUMP JUMPDEST PUSH1 0x40 MLOAD DUP1 SWAP2 SUB SWAP1 RETURN JUMPDEST PUSH1 0x60 PUSH1 0x5 DUP1 SLOAD DUP1 PUSH1 0x20 MUL PUSH1 0x20 ADD PUSH1 0x40 MLOAD SWAP1 DUP2 ADD PUSH1 0x40 MSTORE DUP1 SWAP3 SWAP2 SWAP1 DUP2 DUP2 MSTORE PUSH1 0x20 ADD DUP3 DUP1 SLOAD DUP1 ISZERO PUSH2 0x2D4 JUMPI PUSH1 0x20 MUL DUP3 ADD SWAP2 SWAP1 PUSH1 0x0 MSTORE PUSH1 0x20 PUSH1 0x0 KECCAK256 SWAP1 JUMPDEST DUP2 PUSH1 0x0 SWAP1 SLOAD SWAP1 PUSH2 0x100 EXP SWAP1 DIV PUSH20 0xFFFFFFFFFFFFFFFFFFFFFFFFFFFFFFFFFFFFFFFF AND PUSH20 0xFFFFFFFFFFFFFFFFFFFFFFFFFFFFFFFFFFFFFFFF AND DUP2 MSTORE PUSH1 0x20 ADD SWAP1 PUSH1 0x1 ADD SWAP1 DUP1 DUP4 GT PUSH2 0x28A JUMPI JUMPDEST POP POP POP POP POP SWAP1 POP SWAP1 JUMP JUMPDEST PUSH1 0x5 DUP2 DUP2 SLOAD DUP2 LT PUSH2 0x2EE JUMPI PUSH1 0x0 DUP1 REVERT JUMPDEST SWAP1 PUSH1 0x0 MSTORE PUSH1 0x20 PUSH1 0x0 KECCAK256 ADD PUSH1 0x0 SWAP2 POP SLOAD SWAP1 PUSH2 0x100 EXP SWAP1 DIV PUSH20 0xFFFFFFFFFFFFFFFFFFFFFFFFFFFFFFFFFFFFFFFF AND DUP2 JUMP JUMPDEST PUSH1 0x4 SLOAD DUP2 JUMP JUMPDEST PUSH1 0x3 PUSH1 0x0 SWAP1 SLOAD SWAP1 PUSH2 0x100 EXP SWAP1 DIV PUSH20 0xFFFFFFFFFFFFFFFFFFFFFFFFFFFFFFFFFFFFFFFF AND DUP2 JUMP JUMPDEST PUSH1 0x3 PUSH1 0x0 SWAP1 SLOAD SWAP1 PUSH2 0x100 EXP SWAP1 DIV PUSH20 0xFFFFFFFFFFFFFFFFFFFFFFFFFFFFFFFFFFFFFFFF AND PUSH20 0xFFFFFFFFFFFFFFFFFFFFFFFFFFFFFFFFFFFFFFFF AND CALLER PUSH20 0xFFFFFFFFFFFFFFFFFFFFFFFFFFFFFFFFFFFFFFFF AND EQ PUSH2 0x3D9 JUMPI PUSH1 0x40 MLOAD PUSH32 0x8C379A000000000000000000000000000000000000000000000000000000000 DUP2 MSTORE PUSH1 0x4 ADD PUSH2 0x3D0 SWAP1 PUSH2 0x15AE JUMP JUMPDEST PUSH1 0x40 MLOAD DUP1 SWAP2 SUB SWAP1 REVERT JUMPDEST PUSH32 0x0 PUSH20 0xFFFFFFFFFFFFFFFFFFFFFFFFFFFFFFFFFFFFFFFF AND PUSH4 0xA9059CBB CALLER PUSH32 0x0 PUSH20 0xFFFFFFFFFFFFFFFFFFFFFFFFFFFFFFFFFFFFFFFF AND PUSH4 0x70A08231 ADDRESS PUSH1 0x40 MLOAD DUP3 PUSH4 0xFFFFFFFF AND PUSH1 0xE0 SHL DUP2 MSTORE PUSH1 0x4 ADD PUSH2 0x46F SWAP2 SWAP1 PUSH2 0x1268 JUMP JUMPDEST PUSH1 0x20 PUSH1 0x40 MLOAD DUP1 DUP4 SUB DUP2 DUP7 GAS STATICCALL ISZERO DUP1 ISZERO PUSH2 0x48C JUMPI RETURNDATASIZE PUSH1 0x0 DUP1 RETURNDATACOPY RETURNDATASIZE PUSH1 0x0 REVERT JUMPDEST POP POP POP POP PUSH1 0x40 MLOAD RETURNDATASIZE PUSH1 0x1F NOT PUSH1 0x1F DUP3 ADD AND DUP3 ADD DUP1 PUSH1 0x40 MSTORE POP DUP2 ADD SWAP1 PUSH2 0x4B0 SWAP2 SWAP1 PUSH2 0x15E3 JUMP JUMPDEST PUSH1 0x40 MLOAD DUP4 PUSH4 0xFFFFFFFF AND PUSH1 0xE0 SHL DUP2 MSTORE PUSH1 0x4 ADD PUSH2 0x4CD SWAP3 SWAP2 SWAP1 PUSH2 0x1610 JUMP JUMPDEST PUSH1 0x20 PUSH1 0x40 MLOAD DUP1 DUP4 SUB DUP2 PUSH1 0x0 DUP8 GAS CALL ISZERO DUP1 ISZERO PUSH2 0x4EC JUMPI RETURNDATASIZE PUSH1 0x0 DUP1 RETURNDATACOPY RETURNDATASIZE PUSH1 0x0 REVERT JUMPDEST POP POP POP POP PUSH1 0x40 MLOAD RETURNDATASIZE PUSH1 0x1F NOT PUSH1 0x1F DUP3 ADD AND DUP3 ADD DUP1 PUSH1 0x40 MSTORE POP DUP2 ADD SWAP1 PUSH2 0x510 SWAP2 SWAP1 PUSH2 0x1665 JUMP JUMPDEST PUSH2 0x54F JUMPI PUSH1 0x40 MLOAD PUSH32 0x8C379A000000000000000000000000000000000000000000000000000000000 DUP2 MSTORE PUSH1 0x4 ADD PUSH2 0x546 SWAP1 PUSH2 0x16DE JUMP JUMPDEST PUSH1 0x40 MLOAD DUP1 SWAP2 SUB SWAP1 REVERT JUMPDEST PUSH32 0x0 PUSH20 0xFFFFFFFFFFFFFFFFFFFFFFFFFFFFFFFFFFFFFFFF AND PUSH4 0x70A08231 ADDRESS PUSH1 0x40 MLOAD DUP3 PUSH4 0xFFFFFFFF AND PUSH1 0xE0 SHL DUP2 MSTORE PUSH1 0x4 ADD PUSH2 0x5A8 SWAP2 SWAP1 PUSH2 0x1268 JUMP JUMPDEST PUSH1 0x20 PUSH1 0x40 MLOAD DUP1 DUP4 SUB DUP2 DUP7 GAS STATICCALL ISZERO DUP1 ISZERO PUSH2 0x5C5 JUMPI RETURNDATASIZE PUSH1 0x0 DUP1 RETURNDATACOPY RETURNDATASIZE PUSH1 0x0 REVERT JUMPDEST POP POP POP POP PUSH1 0x40 MLOAD RETURNDATASIZE PUSH1 0x1F NOT PUSH1 0x1F DUP3 ADD AND DUP3 ADD DUP1 PUSH1 0x40 MSTORE POP DUP2 ADD SWAP1 PUSH2 0x5E9 SWAP2 SWAP1 PUSH2 0x15E3 JUMP JUMPDEST PUSH1 0x8 DUP2 SWAP1 SSTORE POP JUMP JUMPDEST PUSH32 0x0 PUSH20 0xFFFFFFFFFFFFFFFFFFFFFFFFFFFFFFFFFFFFFFFF AND CALLER PUSH20 0xFFFFFFFFFFFFFFFFFFFFFFFFFFFFFFFFFFFFFFFF AND EQ PUSH2 0x67F JUMPI PUSH1 0x40 MLOAD PUSH32 0x8C379A000000000000000000000000000000000000000000000000000000000 DUP2 MSTORE PUSH1 0x4 ADD PUSH2 0x676 SWAP1 PUSH2 0x174A JUMP JUMPDEST PUSH1 0x40 MLOAD DUP1 SWAP2 SUB SWAP1 REVERT JUMPDEST PUSH2 0x689 DUP3 DUP3 PUSH2 0xB92 JUMP JUMPDEST POP POP JUMP JUMPDEST PUSH1 0x3 PUSH1 0x0 SWAP1 SLOAD SWAP1 PUSH2 0x100 EXP SWAP1 DIV PUSH20 0xFFFFFFFFFFFFFFFFFFFFFFFFFFFFFFFFFFFFFFFF AND PUSH20 0xFFFFFFFFFFFFFFFFFFFFFFFFFFFFFFFFFFFFFFFF AND CALLER PUSH20 0xFFFFFFFFFFFFFFFFFFFFFFFFFFFFFFFFFFFFFFFF AND EQ PUSH2 0x71D JUMPI PUSH1 0x40 MLOAD PUSH32 0x8C379A000000000000000000000000000000000000000000000000000000000 DUP2 MSTORE PUSH1 0x4 ADD PUSH2 0x714 SWAP1 PUSH2 0x17B6 JUMP JUMPDEST PUSH1 0x40 MLOAD DUP1 SWAP2 SUB SWAP1 REVERT JUMPDEST PUSH1 0x7 PUSH1 0x0 SWAP1 SLOAD SWAP1 PUSH2 0x100 EXP SWAP1 DIV PUSH1 0xFF AND ISZERO PUSH2 0x76D JUMPI PUSH1 0x40 MLOAD PUSH32 0x8C379A000000000000000000000000000000000000000000000000000000000 DUP2 MSTORE PUSH1 0x4 ADD PUSH2 0x764 SWAP1 PUSH2 0x1822 JUMP JUMPDEST PUSH1 0x40 MLOAD DUP1 SWAP2 SUB SWAP1 REVERT JUMPDEST DUP1 PUSH1 0x5 SWAP1 DUP1 MLOAD SWAP1 PUSH1 0x20 ADD SWAP1 PUSH2 0x783 SWAP3 SWAP2 SWAP1 PUSH2 0x1029 JUMP JUMPDEST POP POP JUMP JUMPDEST PUSH1 0x3 PUSH1 0x0 SWAP1 SLOAD SWAP1 PUSH2 0x100 EXP SWAP1 DIV PUSH20 0xFFFFFFFFFFFFFFFFFFFFFFFFFFFFFFFFFFFFFFFF AND PUSH20 0xFFFFFFFFFFFFFFFFFFFFFFFFFFFFFFFFFFFFFFFF AND CALLER PUSH20 0xFFFFFFFFFFFFFFFFFFFFFFFFFFFFFFFFFFFFFFFF AND EQ PUSH2 0x817 JUMPI PUSH1 0x40 MLOAD PUSH32 0x8C379A000000000000000000000000000000000000000000000000000000000 DUP2 MSTORE PUSH1 0x4 ADD PUSH2 0x80E SWAP1 PUSH2 0x188E JUMP JUMPDEST PUSH1 0x40 MLOAD DUP1 SWAP2 SUB SWAP1 REVERT JUMPDEST PUSH1 0x4 SLOAD PUSH1 0x5 DUP1 SLOAD SWAP1 POP LT ISZERO PUSH2 0x861 JUMPI PUSH1 0x40 MLOAD PUSH32 0x8C379A000000000000000000000000000000000000000000000000000000000 DUP2 MSTORE PUSH1 0x4 ADD PUSH2 0x858 SWAP1 PUSH2 0x1920 JUMP JUMPDEST PUSH1 0x40 MLOAD DUP1 SWAP2 SUB SWAP1 REVERT JUMPDEST PUSH1 0x1 PUSH1 0x7 PUSH1 0x0 PUSH2 0x100 EXP DUP2 SLOAD DUP2 PUSH1 0xFF MUL NOT AND SWAP1 DUP4 ISZERO ISZERO MUL OR SWAP1 SSTORE POP JUMP JUMPDEST PUSH1 0x6 DUP2 DUP2 SLOAD DUP2 LT PUSH2 0x88E JUMPI PUSH1 0x0 DUP1 REVERT JUMPDEST SWAP1 PUSH1 0x0 MSTORE PUSH1 0x20 PUSH1 0x0 KECCAK256 ADD PUSH1 0x0 SWAP2 POP SLOAD SWAP1 PUSH2 0x100 EXP SWAP1 DIV PUSH20 0xFFFFFFFFFFFFFFFFFFFFFFFFFFFFFFFFFFFFFFFF AND DUP2 JUMP JUMPDEST PUSH1 0x3 PUSH1 0x0 SWAP1 SLOAD SWAP1 PUSH2 0x100 EXP SWAP1 DIV PUSH20 0xFFFFFFFFFFFFFFFFFFFFFFFFFFFFFFFFFFFFFFFF AND PUSH20 0xFFFFFFFFFFFFFFFFFFFFFFFFFFFFFFFFFFFFFFFF AND CALLER PUSH20 0xFFFFFFFFFFFFFFFFFFFFFFFFFFFFFFFFFFFFFFFF AND EQ PUSH2 0x94D JUMPI PUSH1 0x40 MLOAD PUSH32 0x8C379A000000000000000000000000000000000000000000000000000000000 DUP2 MSTORE PUSH1 0x4 ADD PUSH2 0x944 SWAP1 PUSH2 0x19B2 JUMP JUMPDEST PUSH1 0x40 MLOAD DUP1 SWAP2 SUB SWAP1 REVERT JUMPDEST PUSH1 0x7 PUSH1 0x0 SWAP1 SLOAD SWAP1 PUSH2 0x100 EXP SWAP1 DIV PUSH1 0xFF AND ISZERO PUSH2 0x99D JUMPI PUSH1 0x40 MLOAD PUSH32 0x8C379A000000000000000000000000000000000000000000000000000000000 DUP2 MSTORE PUSH1 0x4 ADD PUSH2 0x994 SWAP1 PUSH2 0x1822 JUMP JUMPDEST PUSH1 0x40 MLOAD DUP1 SWAP2 SUB SWAP1 REVERT JUMPDEST DUP1 PUSH1 0x4 DUP2 SWAP1 SSTORE POP POP JUMP JUMPDEST PUSH1 0x7 PUSH1 0x0 SWAP1 SLOAD SWAP1 PUSH2 0x100 EXP SWAP1 DIV PUSH1 0xFF AND DUP2 JUMP JUMPDEST PUSH1 0x8 SLOAD DUP2 JUMP JUMPDEST PUSH1 0x0 PUSH1 0x3 PUSH1 0x0 SWAP1 SLOAD SWAP1 PUSH2 0x100 EXP SWAP1 DIV PUSH20 0xFFFFFFFFFFFFFFFFFFFFFFFFFFFFFFFFFFFFFFFF AND PUSH20 0xFFFFFFFFFFFFFFFFFFFFFFFFFFFFFFFFFFFFFFFF AND CALLER PUSH20 0xFFFFFFFFFFFFFFFFFFFFFFFFFFFFFFFFFFFFFFFF AND EQ PUSH2 0xA52 JUMPI PUSH1 0x40 MLOAD PUSH32 0x8C379A000000000000000000000000000000000000000000000000000000000 DUP2 MSTORE PUSH1 0x4 ADD PUSH2 0xA49 SWAP1 PUSH2 0x1A44 JUMP JUMPDEST PUSH1 0x40 MLOAD DUP1 SWAP2 SUB SWAP1 REVERT JUMPDEST PUSH1 0x7 PUSH1 0x0 SWAP1 SLOAD SWAP1 PUSH2 0x100 EXP SWAP1 DIV PUSH1 0xFF AND PUSH2 0xAA1 JUMPI PUSH1 0x40 MLOAD PUSH32 0x8C379A000000000000000000000000000000000000000000000000000000000 DUP2 MSTORE PUSH1 0x4 ADD PUSH2 0xA98 SWAP1 PUSH2 0x1AB0 JUMP JUMPDEST PUSH1 0x40 MLOAD DUP1 SWAP2 SUB SWAP1 REVERT JUMPDEST PUSH1 0x2 SLOAD PUSH32 0x0 PUSH20 0xFFFFFFFFFFFFFFFFFFFFFFFFFFFFFFFFFFFFFFFF AND PUSH4 0x70A08231 ADDRESS PUSH1 0x40 MLOAD DUP3 PUSH4 0xFFFFFFFF AND PUSH1 0xE0 SHL DUP2 MSTORE PUSH1 0x4 ADD PUSH2 0xAFD SWAP2 SWAP1 PUSH2 0x1268 JUMP JUMPDEST PUSH1 0x20 PUSH1 0x40 MLOAD DUP1 DUP4 SUB DUP2 DUP7 GAS STATICCALL ISZERO DUP1 ISZERO PUSH2 0xB1A JUMPI RETURNDATASIZE PUSH1 0x0 DUP1 RETURNDATACOPY RETURNDATASIZE PUSH1 0x0 REVERT JUMPDEST POP POP POP POP PUSH1 0x40 MLOAD RETURNDATASIZE PUSH1 0x1F NOT PUSH1 0x1F DUP3 ADD AND DUP3 ADD DUP1 PUSH1 0x40 MSTORE POP DUP2 ADD SWAP1 PUSH2 0xB3E SWAP2 SWAP1 PUSH2 0x15E3 JUMP JUMPDEST LT ISZERO PUSH2 0xB7F JUMPI PUSH1 0x40 MLOAD PUSH32 0x8C379A000000000000000000000000000000000000000000000000000000000 DUP2 MSTORE PUSH1 0x4 ADD PUSH2 0xB76 SWAP1 PUSH2 0x1B42 JUMP JUMPDEST PUSH1 0x40 MLOAD DUP1 SWAP2 SUB SWAP1 REVERT JUMPDEST PUSH2 0xB8D PUSH1 0x1 SLOAD PUSH1 0x2 SLOAD PUSH2 0xE6A JUMP JUMPDEST SWAP1 POP SWAP1 JUMP JUMPDEST PUSH1 0x9 PUSH1 0x0 SWAP1 SLOAD SWAP1 PUSH2 0x100 EXP SWAP1 DIV PUSH20 0xFFFFFFFFFFFFFFFFFFFFFFFFFFFFFFFFFFFFFFFF AND PUSH20 0xFFFFFFFFFFFFFFFFFFFFFFFFFFFFFFFFFFFFFFFF AND CALLER PUSH20 0xFFFFFFFFFFFFFFFFFFFFFFFFFFFFFFFFFFFFFFFF AND EQ PUSH2 0xC22 JUMPI PUSH1 0x40 MLOAD PUSH32 0x8C379A000000000000000000000000000000000000000000000000000000000 DUP2 MSTORE PUSH1 0x4 ADD PUSH2 0xC19 SWAP1 PUSH2 0x1BD4 JUMP JUMPDEST PUSH1 0x40 MLOAD DUP1 SWAP2 SUB SWAP1 REVERT JUMPDEST PUSH1 0x0 PUSH1 0x6 DUP1 SLOAD SWAP1 POP EQ PUSH2 0xC6A JUMPI PUSH1 0x40 MLOAD PUSH32 0x8C379A000000000000000000000000000000000000000000000000000000000 DUP2 MSTORE PUSH1 0x4 ADD PUSH2 0xC61 SWAP1 PUSH2 0x1C66 JUMP JUMPDEST PUSH1 0x40 MLOAD DUP1 SWAP2 SUB SWAP1 REVERT JUMPDEST PUSH1 0x0 JUMPDEST PUSH1 0x4 SLOAD DUP2 LT ISZERO PUSH2 0xE65 JUMPI PUSH1 0x0 PUSH1 0x5 DUP1 SLOAD SWAP1 POP DUP4 DUP4 PUSH1 0x40 MLOAD PUSH1 0x20 ADD PUSH2 0xC92 SWAP3 SWAP2 SWAP1 PUSH2 0x1C86 JUMP JUMPDEST PUSH1 0x40 MLOAD PUSH1 0x20 DUP2 DUP4 SUB SUB DUP2 MSTORE SWAP1 PUSH1 0x40 MSTORE DUP1 MLOAD SWAP1 PUSH1 0x20 ADD KECCAK256 PUSH1 0x0 SHR PUSH2 0xCB5 SWAP2 SWAP1 PUSH2 0x1CDE JUMP JUMPDEST SWAP1 POP PUSH1 0x0 PUSH1 0x5 DUP3 DUP2 SLOAD DUP2 LT PUSH2 0xCCD JUMPI PUSH2 0xCCC PUSH2 0x1D0F JUMP JUMPDEST JUMPDEST SWAP1 PUSH1 0x0 MSTORE PUSH1 0x20 PUSH1 0x0 KECCAK256 ADD PUSH1 0x0 SWAP1 SLOAD SWAP1 PUSH2 0x100 EXP SWAP1 DIV PUSH20 0xFFFFFFFFFFFFFFFFFFFFFFFFFFFFFFFFFFFFFFFF AND SWAP1 POP PUSH1 0x6 DUP2 SWAP1 DUP1 PUSH1 0x1 DUP2 SLOAD ADD DUP1 DUP3 SSTORE DUP1 SWAP2 POP POP PUSH1 0x1 SWAP1 SUB SWAP1 PUSH1 0x0 MSTORE PUSH1 0x20 PUSH1 0x0 KECCAK256 ADD PUSH1 0x0 SWAP1 SWAP2 SWAP1 SWAP2 SWAP1 SWAP2 PUSH2 0x100 EXP DUP2 SLOAD DUP2 PUSH20 0xFFFFFFFFFFFFFFFFFFFFFFFFFFFFFFFFFFFFFFFF MUL NOT AND SWAP1 DUP4 PUSH20 0xFFFFFFFFFFFFFFFFFFFFFFFFFFFFFFFFFFFFFFFF AND MUL OR SWAP1 SSTORE POP PUSH1 0x5 PUSH1 0x1 PUSH1 0x5 DUP1 SLOAD SWAP1 POP PUSH2 0xD71 SWAP2 SWAP1 PUSH2 0x1D6D JUMP JUMPDEST DUP2 SLOAD DUP2 LT PUSH2 0xD82 JUMPI PUSH2 0xD81 PUSH2 0x1D0F JUMP JUMPDEST JUMPDEST SWAP1 PUSH1 0x0 MSTORE PUSH1 0x20 PUSH1 0x0 KECCAK256 ADD PUSH1 0x0 SWAP1 SLOAD SWAP1 PUSH2 0x100 EXP SWAP1 DIV PUSH20 0xFFFFFFFFFFFFFFFFFFFFFFFFFFFFFFFFFFFFFFFF AND PUSH1 0x5 DUP4 DUP2 SLOAD DUP2 LT PUSH2 0xDC1 JUMPI PUSH2 0xDC0 PUSH2 0x1D0F JUMP JUMPDEST JUMPDEST SWAP1 PUSH1 0x0 MSTORE PUSH1 0x20 PUSH1 0x0 KECCAK256 ADD PUSH1 0x0 PUSH2 0x100 EXP DUP2 SLOAD DUP2 PUSH20 0xFFFFFFFFFFFFFFFFFFFFFFFFFFFFFFFFFFFFFFFF MUL NOT AND SWAP1 DUP4 PUSH20 0xFFFFFFFFFFFFFFFFFFFFFFFFFFFFFFFFFFFFFFFF AND MUL OR SWAP1 SSTORE POP PUSH1 0x5 DUP1 SLOAD DUP1 PUSH2 0xE1B JUMPI PUSH2 0xE1A PUSH2 0x1DA1 JUMP JUMPDEST JUMPDEST PUSH1 0x1 SWAP1 SUB DUP2 DUP2 SWAP1 PUSH1 0x0 MSTORE PUSH1 0x20 PUSH1 0x0 KECCAK256 ADD PUSH1 0x0 PUSH2 0x100 EXP DUP2 SLOAD SWAP1 PUSH20 0xFFFFFFFFFFFFFFFFFFFFFFFFFFFFFFFFFFFFFFFF MUL NOT AND SWAP1 SSTORE SWAP1 SSTORE POP POP DUP1 DUP1 PUSH2 0xE5D SWAP1 PUSH2 0x1DD0 JUMP JUMPDEST SWAP2 POP POP PUSH2 0xC6D JUMP JUMPDEST POP POP POP JUMP JUMPDEST PUSH1 0x0 PUSH32 0x0 PUSH20 0xFFFFFFFFFFFFFFFFFFFFFFFFFFFFFFFFFFFFFFFF AND PUSH4 0x4000AEA0 PUSH32 0x0 DUP5 DUP7 PUSH1 0x0 PUSH1 0x40 MLOAD PUSH1 0x20 ADD PUSH2 0xEDE SWAP3 SWAP2 SWAP1 PUSH2 0x1E18 JUMP JUMPDEST PUSH1 0x40 MLOAD PUSH1 0x20 DUP2 DUP4 SUB SUB DUP2 MSTORE SWAP1 PUSH1 0x40 MSTORE PUSH1 0x40 MLOAD DUP5 PUSH4 0xFFFFFFFF AND PUSH1 0xE0 SHL DUP2 MSTORE PUSH1 0x4 ADD PUSH2 0xF0B SWAP4 SWAP3 SWAP2 SWAP1 PUSH2 0x1EC0 JUMP JUMPDEST PUSH1 0x20 PUSH1 0x40 MLOAD DUP1 DUP4 SUB DUP2 PUSH1 0x0 DUP8 GAS CALL ISZERO DUP1 ISZERO PUSH2 0xF2A JUMPI RETURNDATASIZE PUSH1 0x0 DUP1 RETURNDATACOPY RETURNDATASIZE PUSH1 0x0 REVERT JUMPDEST POP POP POP POP PUSH1 0x40 MLOAD RETURNDATASIZE PUSH1 0x1F NOT PUSH1 0x1F DUP3 ADD AND DUP3 ADD DUP1 PUSH1 0x40 MSTORE POP DUP2 ADD SWAP1 PUSH2 0xF4E SWAP2 SWAP1 PUSH2 0x1665 JUMP JUMPDEST POP PUSH1 0x0 PUSH2 0xF70 DUP5 PUSH1 0x0 ADDRESS PUSH1 0x0 DUP1 DUP10 DUP2 MSTORE PUSH1 0x20 ADD SWAP1 DUP2 MSTORE PUSH1 0x20 ADD PUSH1 0x0 KECCAK256 SLOAD PUSH2 0xFBA JUMP JUMPDEST SWAP1 POP PUSH1 0x1 PUSH1 0x0 DUP1 DUP7 DUP2 MSTORE PUSH1 0x20 ADD SWAP1 DUP2 MSTORE PUSH1 0x20 ADD PUSH1 0x0 KECCAK256 SLOAD PUSH2 0xF91 SWAP2 SWAP1 PUSH2 0x1EFE JUMP JUMPDEST PUSH1 0x0 DUP1 DUP7 DUP2 MSTORE PUSH1 0x20 ADD SWAP1 DUP2 MSTORE PUSH1 0x20 ADD PUSH1 0x0 KECCAK256 DUP2 SWAP1 SSTORE POP PUSH2 0xFB1 DUP5 DUP3 PUSH2 0xFF6 JUMP JUMPDEST SWAP2 POP POP SWAP3 SWAP2 POP POP JUMP JUMPDEST PUSH1 0x0 DUP5 DUP5 DUP5 DUP5 PUSH1 0x40 MLOAD PUSH1 0x20 ADD PUSH2 0xFD3 SWAP5 SWAP4 SWAP3 SWAP2 SWAP1 PUSH2 0x1F32 JUMP JUMPDEST PUSH1 0x40 MLOAD PUSH1 0x20 DUP2 DUP4 SUB SUB DUP2 MSTORE SWAP1 PUSH1 0x40 MSTORE DUP1 MLOAD SWAP1 PUSH1 0x20 ADD KECCAK256 PUSH1 0x0 SHR SWAP1 POP SWAP5 SWAP4 POP POP POP POP JUMP JUMPDEST PUSH1 0x0 DUP3 DUP3 PUSH1 0x40 MLOAD PUSH1 0x20 ADD PUSH2 0x100B SWAP3 SWAP2 SWAP1 PUSH2 0x1FB9 JUMP JUMPDEST PUSH1 0x40 MLOAD PUSH1 0x20 DUP2 DUP4 SUB SUB DUP2 MSTORE SWAP1 PUSH1 0x40 MSTORE DUP1 MLOAD SWAP1 PUSH1 0x20 ADD KECCAK256 SWAP1 POP SWAP3 SWAP2 POP POP JUMP JUMPDEST DUP3 DUP1 SLOAD DUP3 DUP3 SSTORE SWAP1 PUSH1 0x0 MSTORE PUSH1 0x20 PUSH1 0x0 KECCAK256 SWAP1 DUP2 ADD SWAP3 DUP3 ISZERO PUSH2 0x10A2 JUMPI SWAP2 PUSH1 0x20 MUL DUP3 ADD JUMPDEST DUP3 DUP2 GT ISZERO PUSH2 0x10A1 JUMPI DUP3 MLOAD DUP3 PUSH1 0x0 PUSH2 0x100 EXP DUP2 SLOAD DUP2 PUSH20 0xFFFFFFFFFFFFFFFFFFFFFFFFFFFFFFFFFFFFFFFF MUL NOT AND SWAP1 DUP4 PUSH20 0xFFFFFFFFFFFFFFFFFFFFFFFFFFFFFFFFFFFFFFFF AND MUL OR SWAP1 SSTORE POP SWAP2 PUSH1 0x20 ADD SWAP2 SWAP1 PUSH1 0x1 ADD SWAP1 PUSH2 0x1049 JUMP JUMPDEST JUMPDEST POP SWAP1 POP PUSH2 0x10AF SWAP2 SWAP1 PUSH2 0x10B3 JUMP JUMPDEST POP SWAP1 JUMP JUMPDEST JUMPDEST DUP1 DUP3 GT ISZERO PUSH2 0x10CC JUMPI PUSH1 0x0 DUP2 PUSH1 0x0 SWAP1 SSTORE POP PUSH1 0x1 ADD PUSH2 0x10B4 JUMP JUMPDEST POP SWAP1 JUMP JUMPDEST PUSH1 0x0 DUP2 MLOAD SWAP1 POP SWAP2 SWAP1 POP JUMP JUMPDEST PUSH1 0x0 DUP3 DUP3 MSTORE PUSH1 0x20 DUP3 ADD SWAP1 POP SWAP3 SWAP2 POP POP JUMP JUMPDEST PUSH1 0x0 DUP2 SWAP1 POP PUSH1 0x20 DUP3 ADD SWAP1 POP SWAP2 SWAP1 POP JUMP JUMPDEST PUSH1 0x0 PUSH20 0xFFFFFFFFFFFFFFFFFFFFFFFFFFFFFFFFFFFFFFFF DUP3 AND SWAP1 POP SWAP2 SWAP1 POP JUMP JUMPDEST PUSH1 0x0 PUSH2 0x1127 DUP3 PUSH2 0x10FC JUMP JUMPDEST SWAP1 POP SWAP2 SWAP1 POP JUMP JUMPDEST PUSH2 0x1137 DUP2 PUSH2 0x111C JUMP JUMPDEST DUP3 MSTORE POP POP JUMP JUMPDEST PUSH1 0x0 PUSH2 0x1149 DUP4 DUP4 PUSH2 0x112E JUMP JUMPDEST PUSH1 0x20 DUP4 ADD SWAP1 POP SWAP3 SWAP2 POP POP JUMP JUMPDEST PUSH1 0x0 PUSH1 0x20 DUP3 ADD SWAP1 POP SWAP2 SWAP1 POP JUMP JUMPDEST PUSH1 0x0 PUSH2 0x116D DUP3 PUSH2 0x10D0 JUMP JUMPDEST PUSH2 0x1177 DUP2 DUP6 PUSH2 0x10DB JUMP JUMPDEST SWAP4 POP PUSH2 0x1182 DUP4 PUSH2 0x10EC JUMP JUMPDEST DUP1 PUSH1 0x0 JUMPDEST DUP4 DUP2 LT ISZERO PUSH2 0x11B3 JUMPI DUP2 MLOAD PUSH2 0x119A DUP9 DUP3 PUSH2 0x113D JUMP JUMPDEST SWAP8 POP PUSH2 0x11A5 DUP4 PUSH2 0x1155 JUMP JUMPDEST SWAP3 POP POP PUSH1 0x1 DUP2 ADD SWAP1 POP PUSH2 0x1186 JUMP JUMPDEST POP DUP6 SWAP4 POP POP POP POP SWAP3 SWAP2 POP POP JUMP JUMPDEST PUSH1 0x0 PUSH1 0x20 DUP3 ADD SWAP1 POP DUP2 DUP2 SUB PUSH1 0x0 DUP4 ADD MSTORE PUSH2 0x11DA DUP2 DUP5 PUSH2 0x1162 JUMP JUMPDEST SWAP1 POP SWAP3 SWAP2 POP POP JUMP JUMPDEST PUSH1 0x0 PUSH1 0x40 MLOAD SWAP1 POP SWAP1 JUMP JUMPDEST PUSH1 0x0 DUP1 REVERT JUMPDEST PUSH1 0x0 DUP1 REVERT JUMPDEST PUSH1 0x0 DUP2 SWAP1 POP SWAP2 SWAP1 POP JUMP JUMPDEST PUSH2 0x1209 DUP2 PUSH2 0x11F6 JUMP JUMPDEST DUP2 EQ PUSH2 0x1214 JUMPI PUSH1 0x0 DUP1 REVERT JUMPDEST POP JUMP JUMPDEST PUSH1 0x0 DUP2 CALLDATALOAD SWAP1 POP PUSH2 0x1226 DUP2 PUSH2 0x1200 JUMP JUMPDEST SWAP3 SWAP2 POP POP JUMP JUMPDEST PUSH1 0x0 PUSH1 0x20 DUP3 DUP5 SUB SLT ISZERO PUSH2 0x1242 JUMPI PUSH2 0x1241 PUSH2 0x11EC JUMP JUMPDEST JUMPDEST PUSH1 0x0 PUSH2 0x1250 DUP5 DUP3 DUP6 ADD PUSH2 0x1217 JUMP JUMPDEST SWAP2 POP POP SWAP3 SWAP2 POP POP JUMP JUMPDEST PUSH2 0x1262 DUP2 PUSH2 0x111C JUMP JUMPDEST DUP3 MSTORE POP POP JUMP JUMPDEST PUSH1 0x0 PUSH1 0x20 DUP3 ADD SWAP1 POP PUSH2 0x127D PUSH1 0x0 DUP4 ADD DUP5 PUSH2 0x1259 JUMP JUMPDEST SWAP3 SWAP2 POP POP JUMP JUMPDEST PUSH2 0x128C DUP2 PUSH2 0x11F6 JUMP JUMPDEST DUP3 MSTORE POP POP JUMP JUMPDEST PUSH1 0x0 PUSH1 0x20 DUP3 ADD SWAP1 POP PUSH2 0x12A7 PUSH1 0x0 DUP4 ADD DUP5 PUSH2 0x1283 JUMP JUMPDEST SWAP3 SWAP2 POP POP JUMP JUMPDEST PUSH1 0x0 DUP2 SWAP1 POP SWAP2 SWAP1 POP JUMP JUMPDEST PUSH2 0x12C0 DUP2 PUSH2 0x12AD JUMP JUMPDEST DUP2 EQ PUSH2 0x12CB JUMPI PUSH1 0x0 DUP1 REVERT JUMPDEST POP JUMP JUMPDEST PUSH1 0x0 DUP2 CALLDATALOAD SWAP1 POP PUSH2 0x12DD DUP2 PUSH2 0x12B7 JUMP JUMPDEST SWAP3 SWAP2 POP POP JUMP JUMPDEST PUSH1 0x0 DUP1 PUSH1 0x40 DUP4 DUP6 SUB SLT ISZERO PUSH2 0x12FA JUMPI PUSH2 0x12F9 PUSH2 0x11EC JUMP JUMPDEST JUMPDEST PUSH1 0x0 PUSH2 0x1308 DUP6 DUP3 DUP7 ADD PUSH2 0x12CE JUMP JUMPDEST SWAP3 POP POP PUSH1 0x20 PUSH2 0x1319 DUP6 DUP3 DUP7 ADD PUSH2 0x1217 JUMP JUMPDEST SWAP2 POP POP SWAP3 POP SWAP3 SWAP1 POP JUMP JUMPDEST PUSH1 0x0 DUP1 REVERT JUMPDEST PUSH1 0x0 PUSH1 0x1F NOT PUSH1 0x1F DUP4 ADD AND SWAP1 POP SWAP2 SWAP1 POP JUMP JUMPDEST PUSH32 0x4E487B7100000000000000000000000000000000000000000000000000000000 PUSH1 0x0 MSTORE PUSH1 0x41 PUSH1 0x4 MSTORE PUSH1 0x24 PUSH1 0x0 REVERT JUMPDEST PUSH2 0x1371 DUP3 PUSH2 0x1328 JUMP JUMPDEST DUP2 ADD DUP2 DUP2 LT PUSH8 0xFFFFFFFFFFFFFFFF DUP3 GT OR ISZERO PUSH2 0x1390 JUMPI PUSH2 0x138F PUSH2 0x1339 JUMP JUMPDEST JUMPDEST DUP1 PUSH1 0x40 MSTORE POP POP POP JUMP JUMPDEST PUSH1 0x0 PUSH2 0x13A3 PUSH2 0x11E2 JUMP JUMPDEST SWAP1 POP PUSH2 0x13AF DUP3 DUP3 PUSH2 0x1368 JUMP JUMPDEST SWAP2 SWAP1 POP JUMP JUMPDEST PUSH1 0x0 PUSH8 0xFFFFFFFFFFFFFFFF DUP3 GT ISZERO PUSH2 0x13CF JUMPI PUSH2 0x13CE PUSH2 0x1339 JUMP JUMPDEST JUMPDEST PUSH1 0x20 DUP3 MUL SWAP1 POP PUSH1 0x20 DUP2 ADD SWAP1 POP SWAP2 SWAP1 POP JUMP JUMPDEST PUSH1 0x0 DUP1 REVERT JUMPDEST PUSH2 0x13EE DUP2 PUSH2 0x111C JUMP JUMPDEST DUP2 EQ PUSH2 0x13F9 JUMPI PUSH1 0x0 DUP1 REVERT JUMPDEST POP JUMP JUMPDEST PUSH1 0x0 DUP2 CALLDATALOAD SWAP1 POP PUSH2 0x140B DUP2 PUSH2 0x13E5 JUMP JUMPDEST SWAP3 SWAP2 POP POP JUMP JUMPDEST PUSH1 0x0 PUSH2 0x1424 PUSH2 0x141F DUP5 PUSH2 0x13B4 JUMP JUMPDEST PUSH2 0x1399 JUMP JUMPDEST SWAP1 POP DUP1 DUP4 DUP3 MSTORE PUSH1 0x20 DUP3 ADD SWAP1 POP PUSH1 0x20 DUP5 MUL DUP4 ADD DUP6 DUP2 GT ISZERO PUSH2 0x1447 JUMPI PUSH2 0x1446 PUSH2 0x13E0 JUMP JUMPDEST JUMPDEST DUP4 JUMPDEST DUP2 DUP2 LT ISZERO PUSH2 0x1470 JUMPI DUP1 PUSH2 0x145C DUP9 DUP3 PUSH2 0x13FC JUMP JUMPDEST DUP5 MSTORE PUSH1 0x20 DUP5 ADD SWAP4 POP POP PUSH1 0x20 DUP2 ADD SWAP1 POP PUSH2 0x1449 JUMP JUMPDEST POP POP POP SWAP4 SWAP3 POP POP POP JUMP JUMPDEST PUSH1 0x0 DUP3 PUSH1 0x1F DUP4 ADD SLT PUSH2 0x148F JUMPI PUSH2 0x148E PUSH2 0x1323 JUMP JUMPDEST JUMPDEST DUP2 CALLDATALOAD PUSH2 0x149F DUP5 DUP3 PUSH1 0x20 DUP7 ADD PUSH2 0x1411 JUMP JUMPDEST SWAP2 POP POP SWAP3 SWAP2 POP POP JUMP JUMPDEST PUSH1 0x0 PUSH1 0x20 DUP3 DUP5 SUB SLT ISZERO PUSH2 0x14BE JUMPI PUSH2 0x14BD PUSH2 0x11EC JUMP JUMPDEST JUMPDEST PUSH1 0x0 DUP3 ADD CALLDATALOAD PUSH8 0xFFFFFFFFFFFFFFFF DUP2 GT ISZERO PUSH2 0x14DC JUMPI PUSH2 0x14DB PUSH2 0x11F1 JUMP JUMPDEST JUMPDEST PUSH2 0x14E8 DUP5 DUP3 DUP6 ADD PUSH2 0x147A JUMP JUMPDEST SWAP2 POP POP SWAP3 SWAP2 POP POP JUMP JUMPDEST PUSH1 0x0 DUP2 ISZERO ISZERO SWAP1 POP SWAP2 SWAP1 POP JUMP JUMPDEST PUSH2 0x1506 DUP2 PUSH2 0x14F1 JUMP JUMPDEST DUP3 MSTORE POP POP JUMP JUMPDEST PUSH1 0x0 PUSH1 0x20 DUP3 ADD SWAP1 POP PUSH2 0x1521 PUSH1 0x0 DUP4 ADD DUP5 PUSH2 0x14FD JUMP JUMPDEST SWAP3 SWAP2 POP POP JUMP JUMPDEST PUSH2 0x1530 DUP2 PUSH2 0x12AD JUMP JUMPDEST DUP3 MSTORE POP POP JUMP JUMPDEST PUSH1 0x0 PUSH1 0x20 DUP3 ADD SWAP1 POP PUSH2 0x154B PUSH1 0x0 DUP4 ADD DUP5 PUSH2 0x1527 JUMP JUMPDEST SWAP3 SWAP2 POP POP JUMP JUMPDEST PUSH1 0x0 DUP3 DUP3 MSTORE PUSH1 0x20 DUP3 ADD SWAP1 POP SWAP3 SWAP2 POP POP JUMP JUMPDEST PUSH32 0x4F6E6C79206F776E65722063616E207769746864726177204C494E4B00000000 PUSH1 0x0 DUP3 ADD MSTORE POP JUMP JUMPDEST PUSH1 0x0 PUSH2 0x1598 PUSH1 0x1C DUP4 PUSH2 0x1551 JUMP JUMPDEST SWAP2 POP PUSH2 0x15A3 DUP3 PUSH2 0x1562 JUMP JUMPDEST PUSH1 0x20 DUP3 ADD SWAP1 POP SWAP2 SWAP1 POP JUMP JUMPDEST PUSH1 0x0 PUSH1 0x20 DUP3 ADD SWAP1 POP DUP2 DUP2 SUB PUSH1 0x0 DUP4 ADD MSTORE PUSH2 0x15C7 DUP2 PUSH2 0x158B JUMP JUMPDEST SWAP1 POP SWAP2 SWAP1 POP JUMP JUMPDEST PUSH1 0x0 DUP2 MLOAD SWAP1 POP PUSH2 0x15DD DUP2 PUSH2 0x1200 JUMP JUMPDEST SWAP3 SWAP2 POP POP JUMP JUMPDEST PUSH1 0x0 PUSH1 0x20 DUP3 DUP5 SUB SLT ISZERO PUSH2 0x15F9 JUMPI PUSH2 0x15F8 PUSH2 0x11EC JUMP JUMPDEST JUMPDEST PUSH1 0x0 PUSH2 0x1607 DUP5 DUP3 DUP6 ADD PUSH2 0x15CE JUMP JUMPDEST SWAP2 POP POP SWAP3 SWAP2 POP POP JUMP JUMPDEST PUSH1 0x0 PUSH1 0x40 DUP3 ADD SWAP1 POP PUSH2 0x1625 PUSH1 0x0 DUP4 ADD DUP6 PUSH2 0x1259 JUMP JUMPDEST PUSH2 0x1632 PUSH1 0x20 DUP4 ADD DUP5 PUSH2 0x1283 JUMP JUMPDEST SWAP4 SWAP3 POP POP POP JUMP JUMPDEST PUSH2 0x1642 DUP2 PUSH2 0x14F1 JUMP JUMPDEST DUP2 EQ PUSH2 0x164D JUMPI PUSH1 0x0 DUP1 REVERT JUMPDEST POP JUMP JUMPDEST PUSH1 0x0 DUP2 MLOAD SWAP1 POP PUSH2 0x165F DUP2 PUSH2 0x1639 JUMP JUMPDEST SWAP3 SWAP2 POP POP JUMP JUMPDEST PUSH1 0x0 PUSH1 0x20 DUP3 DUP5 SUB SLT ISZERO PUSH2 0x167B JUMPI PUSH2 0x167A PUSH2 0x11EC JUMP JUMPDEST JUMPDEST PUSH1 0x0 PUSH2 0x1689 DUP5 DUP3 DUP6 ADD PUSH2 0x1650 JUMP JUMPDEST SWAP2 POP POP SWAP3 SWAP2 POP POP JUMP JUMPDEST PUSH32 0x556E61626C6520746F207472616E736665720000000000000000000000000000 PUSH1 0x0 DUP3 ADD MSTORE POP JUMP JUMPDEST PUSH1 0x0 PUSH2 0x16C8 PUSH1 0x12 DUP4 PUSH2 0x1551 JUMP JUMPDEST SWAP2 POP PUSH2 0x16D3 DUP3 PUSH2 0x1692 JUMP JUMPDEST PUSH1 0x20 DUP3 ADD SWAP1 POP SWAP2 SWAP1 POP JUMP JUMPDEST PUSH1 0x0 PUSH1 0x20 DUP3 ADD SWAP1 POP DUP2 DUP2 SUB PUSH1 0x0 DUP4 ADD MSTORE PUSH2 0x16F7 DUP2 PUSH2 0x16BB JUMP JUMPDEST SWAP1 POP SWAP2 SWAP1 POP JUMP JUMPDEST PUSH32 0x4F6E6C7920565246436F6F7264696E61746F722063616E2066756C66696C6C00 PUSH1 0x0 DUP3 ADD MSTORE POP JUMP JUMPDEST PUSH1 0x0 PUSH2 0x1734 PUSH1 0x1F DUP4 PUSH2 0x1551 JUMP JUMPDEST SWAP2 POP PUSH2 0x173F DUP3 PUSH2 0x16FE JUMP JUMPDEST PUSH1 0x20 DUP3 ADD SWAP1 POP SWAP2 SWAP1 POP JUMP JUMPDEST PUSH1 0x0 PUSH1 0x20 DUP3 ADD SWAP1 POP DUP2 DUP2 SUB PUSH1 0x0 DUP4 ADD MSTORE PUSH2 0x1763 DUP2 PUSH2 0x1727 JUMP JUMPDEST SWAP1 POP SWAP2 SWAP1 POP JUMP JUMPDEST PUSH32 0x4F6E6C79206F776E65722063616E207365742063616E64696461746573000000 PUSH1 0x0 DUP3 ADD MSTORE POP JUMP JUMPDEST PUSH1 0x0 PUSH2 0x17A0 PUSH1 0x1D DUP4 PUSH2 0x1551 JUMP JUMPDEST SWAP2 POP PUSH2 0x17AB DUP3 PUSH2 0x176A JUMP JUMPDEST PUSH1 0x20 DUP3 ADD SWAP1 POP SWAP2 SWAP1 POP JUMP JUMPDEST PUSH1 0x0 PUSH1 0x20 DUP3 ADD SWAP1 POP DUP2 DUP2 SUB PUSH1 0x0 DUP4 ADD MSTORE PUSH2 0x17CF DUP2 PUSH2 0x1793 JUMP JUMPDEST SWAP1 POP SWAP2 SWAP1 POP JUMP JUMPDEST PUSH32 0x447261772068617320616C7265616479206265656E20636C6F73656400000000 PUSH1 0x0 DUP3 ADD MSTORE POP JUMP JUMPDEST PUSH1 0x0 PUSH2 0x180C PUSH1 0x1C DUP4 PUSH2 0x1551 JUMP JUMPDEST SWAP2 POP PUSH2 0x1817 DUP3 PUSH2 0x17D6 JUMP JUMPDEST PUSH1 0x20 DUP3 ADD SWAP1 POP SWAP2 SWAP1 POP JUMP JUMPDEST PUSH1 0x0 PUSH1 0x20 DUP3 ADD SWAP1 POP DUP2 DUP2 SUB PUSH1 0x0 DUP4 ADD MSTORE PUSH2 0x183B DUP2 PUSH2 0x17FF JUMP JUMPDEST SWAP1 POP SWAP2 SWAP1 POP JUMP JUMPDEST PUSH32 0x4F6E6C79206F776E65722063616E20636C6F7365206472617700000000000000 PUSH1 0x0 DUP3 ADD MSTORE POP JUMP JUMPDEST PUSH1 0x0 PUSH2 0x1878 PUSH1 0x19 DUP4 PUSH2 0x1551 JUMP JUMPDEST SWAP2 POP PUSH2 0x1883 DUP3 PUSH2 0x1842 JUMP JUMPDEST PUSH1 0x20 DUP3 ADD SWAP1 POP SWAP2 SWAP1 POP JUMP JUMPDEST PUSH1 0x0 PUSH1 0x20 DUP3 ADD SWAP1 POP DUP2 DUP2 SUB PUSH1 0x0 DUP4 ADD MSTORE PUSH2 0x18A7 DUP2 PUSH2 0x186B JUMP JUMPDEST SWAP1 POP SWAP2 SWAP1 POP JUMP JUMPDEST PUSH32 0x4E6F7420656E6F7567682063616E6469646174657320746F2073656C65637420 PUSH1 0x0 DUP3 ADD MSTORE PUSH32 0x77696E6E65727300000000000000000000000000000000000000000000000000 PUSH1 0x20 DUP3 ADD MSTORE POP JUMP JUMPDEST PUSH1 0x0 PUSH2 0x190A PUSH1 0x27 DUP4 PUSH2 0x1551 JUMP JUMPDEST SWAP2 POP PUSH2 0x1915 DUP3 PUSH2 0x18AE JUMP JUMPDEST PUSH1 0x40 DUP3 ADD SWAP1 POP SWAP2 SWAP1 POP JUMP JUMPDEST PUSH1 0x0 PUSH1 0x20 DUP3 ADD SWAP1 POP DUP2 DUP2 SUB PUSH1 0x0 DUP4 ADD MSTORE PUSH2 0x1939 DUP2 PUSH2 0x18FD JUMP JUMPDEST SWAP1 POP SWAP2 SWAP1 POP JUMP JUMPDEST PUSH32 0x4F6E6C79206F776E65722063616E20736574206E756D626572206F662077696E PUSH1 0x0 DUP3 ADD MSTORE PUSH32 0x6E65727300000000000000000000000000000000000000000000000000000000 PUSH1 0x20 DUP3 ADD MSTORE POP JUMP JUMPDEST PUSH1 0x0 PUSH2 0x199C PUSH1 0x24 DUP4 PUSH2 0x1551 JUMP JUMPDEST SWAP2 POP PUSH2 0x19A7 DUP3 PUSH2 0x1940 JUMP JUMPDEST PUSH1 0x40 DUP3 ADD SWAP1 POP SWAP2 SWAP1 POP JUMP JUMPDEST PUSH1 0x0 PUSH1 0x20 DUP3 ADD SWAP1 POP DUP2 DUP2 SUB PUSH1 0x0 DUP4 ADD MSTORE PUSH2 0x19CB DUP2 PUSH2 0x198F JUMP JUMPDEST SWAP1 POP SWAP2 SWAP1 POP JUMP JUMPDEST PUSH32 0x4F6E6C79206F776E65722063616E20726571756573742072616E646F6D206E75 PUSH1 0x0 DUP3 ADD MSTORE PUSH32 0x6D62657200000000000000000000000000000000000000000000000000000000 PUSH1 0x20 DUP3 ADD MSTORE POP JUMP JUMPDEST PUSH1 0x0 PUSH2 0x1A2E PUSH1 0x24 DUP4 PUSH2 0x1551 JUMP JUMPDEST SWAP2 POP PUSH2 0x1A39 DUP3 PUSH2 0x19D2 JUMP JUMPDEST PUSH1 0x40 DUP3 ADD SWAP1 POP SWAP2 SWAP1 POP JUMP JUMPDEST PUSH1 0x0 PUSH1 0x20 DUP3 ADD SWAP1 POP DUP2 DUP2 SUB PUSH1 0x0 DUP4 ADD MSTORE PUSH2 0x1A5D DUP2 PUSH2 0x1A21 JUMP JUMPDEST SWAP1 POP SWAP2 SWAP1 POP JUMP JUMPDEST PUSH32 0x44726177206973207374696C6C206F70656E0000000000000000000000000000 PUSH1 0x0 DUP3 ADD MSTORE POP JUMP JUMPDEST PUSH1 0x0 PUSH2 0x1A9A PUSH1 0x12 DUP4 PUSH2 0x1551 JUMP JUMPDEST SWAP2 POP PUSH2 0x1AA5 DUP3 PUSH2 0x1A64 JUMP JUMPDEST PUSH1 0x20 DUP3 ADD SWAP1 POP SWAP2 SWAP1 POP JUMP JUMPDEST PUSH1 0x0 PUSH1 0x20 DUP3 ADD SWAP1 POP DUP2 DUP2 SUB PUSH1 0x0 DUP4 ADD MSTORE PUSH2 0x1AC9 DUP2 PUSH2 0x1A8D JUMP JUMPDEST SWAP1 POP SWAP2 SWAP1 POP JUMP JUMPDEST PUSH32 0x4E6F7420656E6F756768204C494E4B20746F2066756C66696C6C207265717565 PUSH1 0x0 DUP3 ADD MSTORE PUSH32 0x7374000000000000000000000000000000000000000000000000000000000000 PUSH1 0x20 DUP3 ADD MSTORE POP JUMP JUMPDEST PUSH1 0x0 PUSH2 0x1B2C PUSH1 0x22 DUP4 PUSH2 0x1551 JUMP JUMPDEST SWAP2 POP PUSH2 0x1B37 DUP3 PUSH2 0x1AD0 JUMP JUMPDEST PUSH1 0x40 DUP3 ADD SWAP1 POP SWAP2 SWAP1 POP JUMP JUMPDEST PUSH1 0x0 PUSH1 0x20 DUP3 ADD SWAP1 POP DUP2 DUP2 SUB PUSH1 0x0 DUP4 ADD MSTORE PUSH2 0x1B5B DUP2 PUSH2 0x1B1F JUMP JUMPDEST SWAP1 POP SWAP2 SWAP1 POP JUMP JUMPDEST PUSH32 0x4F6E6C792056524620636F6F7264696E61746F722063616E2066756C66696C6C PUSH1 0x0 DUP3 ADD MSTORE PUSH32 0x2072616E646F6D6E657373000000000000000000000000000000000000000000 PUSH1 0x20 DUP3 ADD MSTORE POP JUMP JUMPDEST PUSH1 0x0 PUSH2 0x1BBE PUSH1 0x2B DUP4 PUSH2 0x1551 JUMP JUMPDEST SWAP2 POP PUSH2 0x1BC9 DUP3 PUSH2 0x1B62 JUMP JUMPDEST PUSH1 0x40 DUP3 ADD SWAP1 POP SWAP2 SWAP1 POP JUMP JUMPDEST PUSH1 0x0 PUSH1 0x20 DUP3 ADD SWAP1 POP DUP2 DUP2 SUB PUSH1 0x0 DUP4 ADD MSTORE PUSH2 0x1BED DUP2 PUSH2 0x1BB1 JUMP JUMPDEST SWAP1 POP SWAP2 SWAP1 POP JUMP JUMPDEST PUSH32 0x57696E6E657273206861766520616C7265616479206265656E2073656C656374 PUSH1 0x0 DUP3 ADD MSTORE PUSH32 0x6564000000000000000000000000000000000000000000000000000000000000 PUSH1 0x20 DUP3 ADD MSTORE POP JUMP JUMPDEST PUSH1 0x0 PUSH2 0x1C50 PUSH1 0x22 DUP4 PUSH2 0x1551 JUMP JUMPDEST SWAP2 POP PUSH2 0x1C5B DUP3 PUSH2 0x1BF4 JUMP JUMPDEST PUSH1 0x40 DUP3 ADD SWAP1 POP SWAP2 SWAP1 POP JUMP JUMPDEST PUSH1 0x0 PUSH1 0x20 DUP3 ADD SWAP1 POP DUP2 DUP2 SUB PUSH1 0x0 DUP4 ADD MSTORE PUSH2 0x1C7F DUP2 PUSH2 0x1C43 JUMP JUMPDEST SWAP1 POP SWAP2 SWAP1 POP JUMP JUMPDEST PUSH1 0x0 PUSH1 0x40 DUP3 ADD SWAP1 POP PUSH2 0x1C9B PUSH1 0x0 DUP4 ADD DUP6 PUSH2 0x1283 JUMP JUMPDEST PUSH2 0x1CA8 PUSH1 0x20 DUP4 ADD DUP5 PUSH2 0x1283 JUMP JUMPDEST SWAP4 SWAP3 POP POP POP JUMP JUMPDEST PUSH32 0x4E487B7100000000000000000000000000000000000000000000000000000000 PUSH1 0x0 MSTORE PUSH1 0x12 PUSH1 0x4 MSTORE PUSH1 0x24 PUSH1 0x0 REVERT JUMPDEST PUSH1 0x0 PUSH2 0x1CE9 DUP3 PUSH2 0x11F6 JUMP JUMPDEST SWAP2 POP PUSH2 0x1CF4 DUP4 PUSH2 0x11F6 JUMP JUMPDEST SWAP3 POP DUP3 PUSH2 0x1D04 JUMPI PUSH2 0x1D03 PUSH2 0x1CAF JUMP JUMPDEST JUMPDEST DUP3 DUP3 MOD SWAP1 POP SWAP3 SWAP2 POP POP JUMP JUMPDEST PUSH32 0x4E487B7100000000000000000000000000000000000000000000000000000000 PUSH1 0x0 MSTORE PUSH1 0x32 PUSH1 0x4 MSTORE PUSH1 0x24 PUSH1 0x0 REVERT JUMPDEST PUSH32 0x4E487B7100000000000000000000000000000000000000000000000000000000 PUSH1 0x0 MSTORE PUSH1 0x11 PUSH1 0x4 MSTORE PUSH1 0x24 PUSH1 0x0 REVERT JUMPDEST PUSH1 0x0 PUSH2 0x1D78 DUP3 PUSH2 0x11F6 JUMP JUMPDEST SWAP2 POP PUSH2 0x1D83 DUP4 PUSH2 0x11F6 JUMP JUMPDEST SWAP3 POP DUP3 DUP3 SUB SWAP1 POP DUP2 DUP2 GT ISZERO PUSH2 0x1D9B JUMPI PUSH2 0x1D9A PUSH2 0x1D3E JUMP JUMPDEST JUMPDEST SWAP3 SWAP2 POP POP JUMP JUMPDEST PUSH32 0x4E487B7100000000000000000000000000000000000000000000000000000000 PUSH1 0x0 MSTORE PUSH1 0x31 PUSH1 0x4 MSTORE PUSH1 0x24 PUSH1 0x0 REVERT JUMPDEST PUSH1 0x0 PUSH2 0x1DDB DUP3 PUSH2 0x11F6 JUMP JUMPDEST SWAP2 POP PUSH32 0xFFFFFFFFFFFFFFFFFFFFFFFFFFFFFFFFFFFFFFFFFFFFFFFFFFFFFFFFFFFFFFFF DUP3 SUB PUSH2 0x1E0D JUMPI PUSH2 0x1E0C PUSH2 0x1D3E JUMP JUMPDEST JUMPDEST PUSH1 0x1 DUP3 ADD SWAP1 POP SWAP2 SWAP1 POP JUMP JUMPDEST PUSH1 0x0 PUSH1 0x40 DUP3 ADD SWAP1 POP PUSH2 0x1E2D PUSH1 0x0 DUP4 ADD DUP6 PUSH2 0x1527 JUMP JUMPDEST PUSH2 0x1E3A PUSH1 0x20 DUP4 ADD DUP5 PUSH2 0x1283 JUMP JUMPDEST SWAP4 SWAP3 POP POP POP JUMP JUMPDEST PUSH1 0x0 DUP2 MLOAD SWAP1 POP SWAP2 SWAP1 POP JUMP JUMPDEST PUSH1 0x0 DUP3 DUP3 MSTORE PUSH1 0x20 DUP3 ADD SWAP1 POP SWAP3 SWAP2 POP POP JUMP JUMPDEST PUSH1 0x0 JUMPDEST DUP4 DUP2 LT ISZERO PUSH2 0x1E7B JUMPI DUP1 DUP3 ADD MLOAD DUP2 DUP5 ADD MSTORE PUSH1 0x20 DUP2 ADD SWAP1 POP PUSH2 0x1E60 JUMP JUMPDEST PUSH1 0x0 DUP5 DUP5 ADD MSTORE POP POP POP POP JUMP JUMPDEST PUSH1 0x0 PUSH2 0x1E92 DUP3 PUSH2 0x1E41 JUMP JUMPDEST PUSH2 0x1E9C DUP2 DUP6 PUSH2 0x1E4C JUMP JUMPDEST SWAP4 POP PUSH2 0x1EAC DUP2 DUP6 PUSH1 0x20 DUP7 ADD PUSH2 0x1E5D JUMP JUMPDEST PUSH2 0x1EB5 DUP2 PUSH2 0x1328 JUMP JUMPDEST DUP5 ADD SWAP2 POP POP SWAP3 SWAP2 POP POP JUMP JUMPDEST PUSH1 0x0 PUSH1 0x60 DUP3 ADD SWAP1 POP PUSH2 0x1ED5 PUSH1 0x0 DUP4 ADD DUP7 PUSH2 0x1259 JUMP JUMPDEST PUSH2 0x1EE2 PUSH1 0x20 DUP4 ADD DUP6 PUSH2 0x1283 JUMP JUMPDEST DUP2 DUP2 SUB PUSH1 0x40 DUP4 ADD MSTORE PUSH2 0x1EF4 DUP2 DUP5 PUSH2 0x1E87 JUMP JUMPDEST SWAP1 POP SWAP5 SWAP4 POP POP POP POP JUMP JUMPDEST PUSH1 0x0 PUSH2 0x1F09 DUP3 PUSH2 0x11F6 JUMP JUMPDEST SWAP2 POP PUSH2 0x1F14 DUP4 PUSH2 0x11F6 JUMP JUMPDEST SWAP3 POP DUP3 DUP3 ADD SWAP1 POP DUP1 DUP3 GT ISZERO PUSH2 0x1F2C JUMPI PUSH2 0x1F2B PUSH2 0x1D3E JUMP JUMPDEST JUMPDEST SWAP3 SWAP2 POP POP JUMP JUMPDEST PUSH1 0x0 PUSH1 0x80 DUP3 ADD SWAP1 POP PUSH2 0x1F47 PUSH1 0x0 DUP4 ADD DUP8 PUSH2 0x1527 JUMP JUMPDEST PUSH2 0x1F54 PUSH1 0x20 DUP4 ADD DUP7 PUSH2 0x1283 JUMP JUMPDEST PUSH2 0x1F61 PUSH1 0x40 DUP4 ADD DUP6 PUSH2 0x1259 JUMP JUMPDEST PUSH2 0x1F6E PUSH1 0x60 DUP4 ADD DUP5 PUSH2 0x1283 JUMP JUMPDEST SWAP6 SWAP5 POP POP POP POP POP JUMP JUMPDEST PUSH1 0x0 DUP2 SWAP1 POP SWAP2 SWAP1 POP JUMP JUMPDEST PUSH2 0x1F92 PUSH2 0x1F8D DUP3 PUSH2 0x12AD JUMP JUMPDEST PUSH2 0x1F77 JUMP JUMPDEST DUP3 MSTORE POP POP JUMP JUMPDEST PUSH1 0x0 DUP2 SWAP1 POP SWAP2 SWAP1 POP JUMP JUMPDEST PUSH2 0x1FB3 PUSH2 0x1FAE DUP3 PUSH2 0x11F6 JUMP JUMPDEST PUSH2 0x1F98 JUMP JUMPDEST DUP3 MSTORE POP POP JUMP JUMPDEST PUSH1 0x0 PUSH2 0x1FC5 DUP3 DUP6 PUSH2 0x1F81 JUMP JUMPDEST PUSH1 0x20 DUP3 ADD SWAP2 POP PUSH2 0x1FD5 DUP3 DUP5 PUSH2 0x1FA2 JUMP JUMPDEST PUSH1 0x20 DUP3 ADD SWAP2 POP DUP2 SWAP1 POP SWAP4 SWAP3 POP POP POP JUMP INVALID LOG2 PUSH5 0x6970667358 0x22 SLT KECCAK256 0x28 TIMESTAMP DUP11 SELFBALANCE SELFBALANCE CALLDATASIZE 0x2C EXTCODECOPY PUSH26 0xFE6AB0328E2D3A78EF1114F7051BE8456B1996F36220B464736F PUSH13 0x63430008120033000000000000 "
				},
				"gasEstimates": {
					"creation": {
						"codeDepositCost": "1643800",
						"executionCost": "infinite",
						"totalCost": "infinite"
					},
					"external": {
						"candidates(uint256)": "4979",
						"closeDraw()": "30860",
						"drawClosed()": "2515",
						"getCandidates()": "infinite",
						"getRandomNumber()": "infinite",
						"linkBalance()": "2495",
						"numWinners()": "2474",
						"owner()": "2581",
						"rawFulfillRandomness(bytes32,uint256)": "infinite",
						"setCandidates(address[])": "infinite",
						"setNumWinners(uint256)": "26868",
						"winners(uint256)": "5023",
						"withdrawLink()": "infinite"
					},
					"internal": {
						"fulfillRandomness(bytes32,uint256)": "infinite"
					}
				},
				"methodIdentifiers": {
					"candidates(uint256)": "3477ee2e",
					"closeDraw()": "a0eb5570",
					"drawClosed()": "b8617725",
					"getCandidates()": "06a49fce",
					"getRandomNumber()": "dbdff2c1",
					"linkBalance()": "c26ecefa",
					"numWinners()": "8b7bcc86",
					"owner()": "8da5cb5b",
					"rawFulfillRandomness(bytes32,uint256)": "94985ddd",
					"setCandidates(address[])": "9e658e91",
					"setNumWinners(uint256)": "b1b20634",
					"winners(uint256)": "a2fb1175",
					"withdrawLink()": "8dc654a2"
				}
			},
			"storageLayout": {
				"storage": [
					{
						"astId": 79,
						"contract": "main.sol:LuckyDraw",
						"label": "nonces",
						"offset": 0,
						"slot": "0",
						"type": "t_mapping(t_bytes32,t_uint256)"
					},
					{
						"astId": 272,
						"contract": "main.sol:LuckyDraw",
						"label": "keyHash",
						"offset": 0,
						"slot": "1",
						"type": "t_bytes32"
					},
					{
						"astId": 274,
						"contract": "main.sol:LuckyDraw",
						"label": "fee",
						"offset": 0,
						"slot": "2",
						"type": "t_uint256"
					},
					{
						"astId": 276,
						"contract": "main.sol:LuckyDraw",
						"label": "owner",
						"offset": 0,
						"slot": "3",
						"type": "t_address"
					},
					{
						"astId": 278,
						"contract": "main.sol:LuckyDraw",
						"label": "numWinners",
						"offset": 0,
						"slot": "4",
						"type": "t_uint256"
					},
					{
						"astId": 281,
						"contract": "main.sol:LuckyDraw",
						"label": "candidates",
						"offset": 0,
						"slot": "5",
						"type": "t_array(t_address)dyn_storage"
					},
					{
						"astId": 284,
						"contract": "main.sol:LuckyDraw",
						"label": "winners",
						"offset": 0,
						"slot": "6",
						"type": "t_array(t_address)dyn_storage"
					},
					{
						"astId": 286,
						"contract": "main.sol:LuckyDraw",
						"label": "drawClosed",
						"offset": 0,
						"slot": "7",
						"type": "t_bool"
					},
					{
						"astId": 288,
						"contract": "main.sol:LuckyDraw",
						"label": "linkBalance",
						"offset": 0,
						"slot": "8",
						"type": "t_uint256"
					},
					{
						"astId": 290,
						"contract": "main.sol:LuckyDraw",
						"label": "vrfCoordinator",
						"offset": 0,
						"slot": "9",
						"type": "t_address"
					}
				],
				"types": {
					"t_address": {
						"encoding": "inplace",
						"label": "address",
						"numberOfBytes": "20"
					},
					"t_array(t_address)dyn_storage": {
						"base": "t_address",
						"encoding": "dynamic_array",
						"label": "address[]",
						"numberOfBytes": "32"
					},
					"t_bool": {
						"encoding": "inplace",
						"label": "bool",
						"numberOfBytes": "1"
					},
					"t_bytes32": {
						"encoding": "inplace",
						"label": "bytes32",
						"numberOfBytes": "32"
					},
					"t_mapping(t_bytes32,t_uint256)": {
						"encoding": "mapping",
						"key": "t_bytes32",
						"label": "mapping(bytes32 => uint256)",
						"numberOfBytes": "32",
						"value": "t_uint256"
					},
					"t_uint256": {
						"encoding": "inplace",
						"label": "uint256",
						"numberOfBytes": "32"
					}
				}
			},
			"userdoc": {
				"kind": "user",
				"methods": {},
				"version": 1
			}
		}
	}
}